:020000040800F2
:1000000010A5002081020008131D0008E91A00084D
:10001000111D0008C505000891250008000000001A
:10002000000000000000000000000000C101000806
:1000300085060008000000001D020008291F0008B6
:100040009B0200089B0200089B0200089B0200081C
:100050009B0200089B0200089B0200089B0200080C
:100060009B0200089B0200089B0200089B020008FC
:100070009B0200089B0200089B0200089B020008EC
:100080009B0200089B0200089B0200089B020008DC
:100090009B0200089B0200089B0200089B020008CC
:1000A0009B020008912000089B0200089B020008A8
:1000B0009B0200089B0200089B0200089B020008AC
:1000C0009B0200089B0200089B0200089B0200089C
:1000D0009B0200089B0200089B0200089B0200088C
:1000E0009B0200089B0200089B0200089B0200087C
:1000F0009B0200089B0200089B0200089B0200086C
:100100009B0200089B0200089B0200089B0200085B
:100110009B0200089B0200089B0200089B0200084B
:100120009B020008C90500089B0200089B0200080A
:100130009B0200089B0200089B0200089B0200082B
:100140009B0200089B0200089B0200089B0200081B
:100150009B020008D50500089B020008B92400088E
:100160009B0200089B0200089B0200089B020008FB
:100170009B0200089B0200089B0200080000000090
:100180009B0200089B0200089B0200089B020008DB
:100190009B0200089B0200089B0200089B020008CB
:1001A0009B0200089B0200089B020008DFF80CD0AD
:1001B00000F07CF900480047F16E000810A500200F
:1001C0002C4B19680868B0E8F04F80F30988BFF33A
:1001D0006F8F4FF0000080F311887047000000001F
:1001E00008480068006880F308884FF0000080F33A
:1001F000148862B661B6BFF34F8FBFF36F8F00DF15
:1002000000BF00BF08ED00E0DFF80C00016841F41A
:1002100070010160704700BF88ED00E0EFF30980D6
:10022000BFF36F8F134B1A681EF0100F08BF20ED3D
:10023000108A20E9F04F106009B44FF0500080F3AD
:100240001188BFF34F8FBFF36F8F11F027FB4FF073
:10025000000080F3118809BC19680868B0E8F04F05
:100260001EF0100F08BFB0EC108A80F30988BFF3AE
:100270006F8F7047AC000020EFF3058070470000DF
:100280000648804706480047FEE7FEE7FEE7FEE730
:10029000FEE7FEE7FEE7FEE7FEE7FEE7DD1F0008FC
:1002A000AD0100082DE9F05F0546002092469B460F
:1002B00088460646814640241BE02846414647467C
:1002C000224600F0ABF853465A46C01A914110D36B
:1002D00011461846224600F092F82D1A67EB0108E5
:1002E0004F4622460120002100F089F817EB000953
:1002F0004E41201EA4F10104DFDC484631462A4667
:100300004346BDE8F09F000000487047E83401080C
:100310000649074A0868504343F23902104408600E
:10032000400870470149086070470000F80100204C
:100330006D4EC64110B5431A934209D283188818EE
:1003400003E010F8011D03F8011D521EF9D210BD83
:1003500040EA01039B0703D009E008C9121F08C047
:10036000042AFAD203E011F8013B00F8013B521EC7
:10037000F9D210BDD2B201E000F8012B491EFBD228
:1003800070470022F6E710B513460A4604461946A0
:10039000FFF7F0FF204610BD30B505462A460B4654
:1003A00012F8010B13F8014B08B1A042F8D01CB1B0
:1003B000002802D06D1CF1E7284630BD421C10F821
:1003C000011B0029FBD1801A704730B5044600207C
:1003D000034600E05B1C934203D2E05CCD5C401B13
:1003E000F8D030BD70B5064602F008F9046805463D
:1003F0000A220021304600F021F82C6070BD202A2E
:1004000004DB203A00FA02F1002070479140C2F16B
:10041000200320FA03F3194390407047202A04DB9D
:10042000203A21FA02F00021704721FA02F3D0406D
:10043000C2F1200291400843194670472DE9F04768
:1004400091460F4680460446002614F8015B2DB104
:10045000FFF75AFF0068405DC007F6D12B2D02D090
:100460002D2D18D0641E4A463946204600F030F83B
:1004700027B13968A14201D1C7F8008071054FF05A
:1004800002040BD54042002803DD02F0B7F80460F7
:10049000A007BDE8F08746F48066E4E70028F8DAB4
:1004A00002F0ACF804606FF00040F2E7064C074D34
:1004B00006E0E06840F0010394E807009847103434
:1004C000AC42F6D3FFF776FEC4360108E4360108E5
:1004D0002DE9F05F82460078002715468B460AF129
:1004E0000104B946302801D09DB113E014F8010B86
:1004F0000127782803D0582801D045B10AE00DB172
:10050000102D07D10027102514F8010B02E0082553
:1005100000E00A250026B0460EE005FB080005FBBA
:1005200006F1012701EB10461FFA80F8B6F5803F6F
:1005300000D3B94614F8010B294600F018F800283A
:10054000EBDABBF1000F05D00FB1641E00E054469A
:10055000CBF80040B9F1000F06D002F04FF80221AD
:100560000160C81EBDE8F09F48EA0640FAE73A2855
:1005700000D2303820F02002412A01D3A2F1370006
:10058000884201D34FF0FF30704730B58C1810F817
:10059000012B12F00F0301D110F8013B120906D113
:1005A00010F8012B03E010F8015B01F8015B5B1E02
:1005B000F9D101E001F8013B521EFBD1A142E6D383
:1005C000002030BDFEE70000014800F0B7B8000091
:1005D000180F0020014800F0B1B80000780F00208B
:1005E00001681823CAB2103AB2FBF3F2054B6FF35D
:1005F0000901032A9B5CC36500D9091D8165084672
:1006000070470000BC2F010810B5014600208B691F
:100610008A6A4FF0C07453B1B3F5005F15D072B160
:10062000012A0CD0022A0AD0032A09D104E01AB107
:10063000012A06D0022A03D1C96AC90100D50120C6
:1006400010BDC96AA142FAD010BD002AF7D0012A14
:10065000F2D0022AF3D0032AF3D010BD30B50468DB
:10066000256825F480252560046863608368402B35
:10067000036803D099600068C26030BD9A6000686A
:10068000C16030BD704770472DE9F0410446876D69
:1006900000F0B6FA064694F835000025022806D088
:1006A0008020606584F834500120BDE8F081206826
:1006B000016821F0160101602068416921F0800184
:1006C0004161206C08B9A06C20B12068016821F05C
:1006D000080101602068016821F0010101600BE060
:1006E00000F08EFA801B052806D92020606504F8EA
:1006F000345F03206070D8E720680068C007EFD13E
:1007000094F85C103F208840B86004F8345F012002
:1007100060700020C9E790F83510022903D08021CD
:10072000416501207047052180F835100068016897
:1007300021F0010101600020704700002DE9F8431D
:1007400004464FF00009CDF8009063484FF416516D
:10075000A56D0068B0FBF1F72E6894F85C100820D6
:1007600000FA01F131420FD021680A6852070BD517
:100770000A6822F004020A6094F85C108840A860BD
:10078000606D40F00100606594F85C104FF0010866
:1007900008FA01F0304208D021684969090604D5F9
:1007A000A860606D40F00200606594F85C10042061
:1007B0008840304208D021680968890704D5A860BC
:1007C000606D40F00400606594F85C101020884073
:1007D000304218D021680968090714D5A86020683C
:1007E0000168490304D50068000308D5A16C07E03F
:1007F0000168C90503D4016821F008010160216C7A
:1008000009B12046884794F85C1020208840304287
:1008100031D021680968C9062DD5A86094F8350043
:1008200005282068016806D0490347D50068000301
:100830001DD4616C1CE021F0160101602068416943
:1008400021F080014161206C08B9A06C20B12068C2
:10085000016821F00801016094F85C103F20884095
:10086000A86084F8349084F83580216D1FE0E16B36
:1008700009B120468847606D00282BD0606DC00705
:1008800014D0052084F835002068016821F00101AA
:1008900001600098401C0090B84203D820680068AE
:1008A000C007F6D184F8349084F83580E16C0029D3
:1008B00010D001B02046BDE8F04308470168C905E3
:1008C000D5D4016821F01001016084F8349084F8D7
:1008D0003580CCE7BDE8F883A80000202DE9F04181
:1008E000044600F08DF906465CB1002584F83450CA
:1008F000022084F835002068016821F001010160C0
:100900000DE00120BDE8F08100F07AF9801B052898
:1009100005D920206065032084F83500F2E72068BF
:100920000068C007F0D12268116820480140D4E96E
:1009300001031843D4E9033633431843636918436A
:10094000A3691843E3691843236A18430843616A9B
:10095000042903D1D4E90B1319430843106020681C
:100960004069666A20F0070130460E4301270428DB
:100970000CD1A06A0643E06A40B12046FFF744FE6E
:1009800020B14020606584F83570BAE72068466180
:100990002046FFF725FE94F85C203F2191408160BE
:1009A000656584F835700020ACE700003F8010F0EA
:1009B0002DE9F0410446866D90F8340000250128A9
:1009C0000DD0012084F8340094F835700020012FF8
:1009D00007D084F8340002252846BDE8F0810220C3
:1009E000FBE7022784F8357060652046FFF736FE86
:1009F00094F85C103F208840B0602068016841F0A6
:100A000016010160206C20B12068016841F00801E6
:100A100001602068016841F001010160DCE700002D
:100A20002DE9F84F00224FF0010803254FF00F0E7B
:100A30000B6808FA02F42340A3426ED14E68012EDF
:100A400005D0022E03D0112E01D0122E12D18668AD
:100A50004FEA420C05FA0CF7BE43CF6807FA0CF7D1
:100A6000374387604668A6430C79C4F3001494406A
:100A700034434460C668570005FA07FC8C6826EAD0
:100A80000C06BC403443C4604C68022C01D0122CCC
:100A900013D1D40800EB8404A346D4F82090540763
:100AA0004FEAD46A0EFA0AF629EA06090E6906FA2E
:100AB0000AF646EA0906CBF8206004680E7924EAB3
:100AC0000C0406F00306BE40264306604C68E400B2
:100AD0006FD53B4C266846F480462660246822F099
:100AE000030604F480440094364C3444A446D4F8FD
:100AF00008489607360F0EFA06F7BC43324FB84245
:100B000001D100272EE0314FB84201D1012729E061
:100B10002F4FB84202D1022724E04AE02D4FB842BD
:100B200001D103271EE02C4FB84201D1042719E060
:100B30002A4FB84201D1052714E0294FB84201D10C
:100B400006270FE0274FB84201D107270AE0264FBA
:100B5000B84201D1082705E0244FB84201D1092746
:100B600000E00A27B7402743CCF80878204E3468C5
:100B70004F689C43FF0300D51C4334601C4E361D58
:100B800034684F689C43BF0300D51C433460184E43
:100B9000083634684F689C43FF0200D51C4334601C
:100BA000134E0C3634684F689C43BF0200D51C437B
:100BB0003460521C102AFFF43BAFBDE8F88F0000F0
:100BC000443802400030014000000240000402406E
:100BD00000080240000C02400010024000140240D5
:100BE00000180240001C0240002002400024024085
:100BF000003C01400AB1816170470904FBE7000035
:100C000001488068704700009C000020024881680D
:100C100002781144816070479C0000200B4810B599
:100C2000016841F400710160016841F48061016074
:100C3000016841F480710160032000F089F8002010
:100C400000F006F800F03EF8002010BD003C024025
:100C500010B5014688B00022192000F059F819207B
:100C600000F048F813480024016841F001010160D8
:100C7000006805A900F001000690684600F04CF9F4
:100C800000F07AF90C494000B0FBF1F10C480B4A36
:100C9000491E026040F2E732C0E90324C0E90114B2
:100CA00000F05AFB10B1012008B010BD044800F05C
:100CB0006FFBF9E74438024040420F00000001405A
:100CC0002C1200200A4808B5016841F480410160F7
:100CD000006800F4804000900548001F016841F062
:100CE00080510160006800F08050009008BD000055
:100CF00044380240002809DB00F01F020121914026
:100D00004009800000F1E020C0F8001170470000A9
:100D1000F0B40E4B1B680C46C3F30223C3F1070566
:100D2000042D00D90425191D072901D2002300E054
:100D3000DB1E012606FA05F1491E214099409E401E
:100D4000761E16403143F0BC01F048BC0CED00E0CB
:100D5000064900F0070208684FF6FF03184040EA12
:100D60000220034A10430860704700000CED00E0C9
:100D70000000FA052DE9F8431748016841F0805159
:100D800001600068154F00F08050012600903E641D
:100D9000FFF736FF05464FF47A78114C05E000BFA7
:100DA000FFF72EFF401B40450DD86068C003F7D504
:100DB0007E64FFF725FF0546464607E0FFF720FF64
:100DC000401BB04202D90320BDE8F883606880036D
:100DD000F4D50020F8E700004038024000000E4241
:100DE000007000402DE9F0470E46050065D0DFF8A1
:100DF0001481D8F80000F7B200F00F00B04207D21B
:100E000088F80070D8F8000000F00F00B04254D10C
:100E100028683D4C810712D5400703D5206840F46F
:100E2000E05020602878000703D5206840F4604037
:100E300020602068A96820F0F0000843206028782E
:100E4000C0072DD0304968680839012812D002281F
:100E500013D0032811D00968890700292DDA2168E9
:100E600021F0030101432160FFF7CAFE814641F2F0
:100E7000883A0EE009688903EFE709688901ECE721
:100E8000FFF7BEFEA0EB0901514502D90320BDE8E2
:100E9000F0872068696800F00C00B0EB810FEFD19B
:100EA000D8F80010404601F00F01B14207D9077091
:100EB000006800F00F00B04201D00120E7E7287879
:100EC000400705D52068E96820F4E0500843206019
:100ED0002878000706D52068296920F4604040EA98
:100EE000C100206000F058F82168084AC1F30311DE
:100EF000515CC8400649086006480068FFF7A8FE34
:100F00000020C4E7003C024008380240C42F01081A
:100F1000A8000020A00000200F2202600C4A1368E5
:100F200003F003034360136803F0F0038360136866
:100F300003F4E053C36012684FF4E05303EAD202B3
:100F400002610448006800F00F000860704700006C
:100F500008380240003C024004480549006809681E
:100F6000044AC1F38221515CC8407047A8000020A8
:100F700008380240D42F0108044805490068096870
:100F8000044AC1F34231515CC8407047A8000020B8
:100F900008380240D42F0108154810B5006810F039
:100FA0000C02144813D04110042A0FD0082A0ED185
:100FB0000F4C241F2268236802F03F025B0207D512
:100FC0002068C0F38810A0FB010106E0084610BDB0
:100FD0002168C1F38811A1FB00010023FFF762F92A
:100FE0002168C1F30141491C4900B0FBF1F010BD7B
:100FF000083802400024F4002DE9F84F04006ED0B8
:101000002078DFF83C93C007A9F104054AD009F124
:1010100004000168C1F38101012908D00068C0F310
:10102000810002280AD1D9F80000400206D52868BC
:10103000800337D560680028E1D033E06068B0F500
:10104000803F10D0B0F5A02F286810D020F4803059
:101050002860286820F4802028606068A8B1FFF725
:10106000CFFD06460DE0286840F48030F4E740F4F8
:1010700080202860F7E700BFFFF7C2FD801B6428CF
:1010800073D828688003F7D50CE0FFF7B9FD064652
:1010900005E000BFFFF7B4FD801B6428F0D8286886
:1010A0008003F7D42078DFF89C8280074FF0000A95
:1010B0003ED5A348001D016811F00C0F08D0006850
:1010C000C0F3810002280BD1D9F80000400207D4F8
:1010D0002868800716D5E068012800D112E02BE1CE
:1010E000E068B8B10120C8F80000FFF789FD0646A6
:1010F00005E000BFFFF784FD801B0228C0D82868E8
:101100008007F7D52868216920F0F80040EAC1007F
:1011100028600DE0C8F800A0FFF772FD064604E065
:10112000FFF76EFD801B02281FD828688007F7D4C0
:101130002078000722D5824E83486169703671B1EC
:1011400001210160FFF75CFD074604E0FFF758FD51
:10115000C01B022809D830688007F7D50EE0C0F818
:1011600000A0FFF74DFD074605E082E0FFF748FDD0
:10117000C01B02287DD830688007F7D4207840074C
:1011800068D5DFF8BCB100270BF13C0BDBF80000A1
:10119000C0000BD4DBF8001041F08051CBF80010F8
:1011A000DBF80000012700F080500090674E3068A7
:1011B000C00510D4306840F480703060FFF720FD27
:1011C000009005E0FFF71CFD0099401A022850D856
:1011D0003068C005F6D55A4EA0686C3601280FD08D
:1011E0000528306810D020F001003060306820F011
:1011F00004003060A068B8B1FFF702FD00900FE076
:10120000306840F00100F4E740F004003060F7E798
:10121000FFF7F6FC0099411A41F28830814266D806
:1012200030688007F4D50EE0FFF7EAFC009007E095
:10123000FFF7E6FC0099411A41F28830814256D806
:1012400030688007F4D42FB1DBF8001021F0805112
:10125000CBF80010A069C8B33949091D0968C1F36A
:10126000810102294AD00228504607D0C8F8600000
:1012700000E03CE0FFF7C4FC04463BE04746C8F80A
:101280006000FFF7BDFC064605E000BFFFF7B8FCB5
:10129000801B02282BD828688001F7D4D4E90701E5
:1012A0000843A16A2A4A490802EB0141626A41EAFD
:1012B0008211084394F82C1040EA0161C9F800102B
:1012C00001203866FFF79CFC044606E036E000BFCC
:1012D000FFF796FC001B022809D828688001F7D583
:1012E0002CE000BFFFF78CFC001B022802D9032072
:1012F000BDE8F88F28688001F4D41FE00128F7D0FA
:10130000D9F80000E26900F48001914214D1226A08
:1013100000F03F0191420FD147F6C071626A01406F
:10132000914209D1A26A00F44031914204D1E16AAC
:1013300000F07060884201D00120D9E70020D7E793
:101340000438024000004742800E474200700040CF
:101350000000FFFF7047704710B5040003D094F8F9
:101360003D0010B107E0012010BD002084F83C00D2
:10137000204600F00CF8022084F83D00211D206872
:1013800000F08CFE012084F83D00002010BD704765
:101390000168CA6842F00102CA600068816801F011
:1013A0000701062903D0016841F001010160002016
:1013B0007047704770B50446006801694FF000053A
:1013C000C943890715D4C168C943890711D4E91EE7
:1013D000016101202077206880698007204602D0C3
:1013E000FFF7E7FF04E000F098F8204600F096F8D9
:1013F000257720680169C943490717D4C168C943E3
:10140000490713D46FF0040101610220207720689E
:10141000806910F4407F204602D0FFF7CAFF04E045
:1014200000F07BF8204600F079F825772068016904
:10143000C943090716D4C168C943090712D46FF01C
:1014400008010161042020772068C06980072046D8
:1014500002D0FFF7AEFF04E000F05FF8204600F096
:101460005DF8257720680169C943C90617D4C168AA
:10147000C943C90613D46FF0100101610820207719
:101480002068C06910F4407F204602D0FFF791FF2A
:1014900004E000F042F8204600F040F8257720688C
:1014A0000169C943C90708D1C168C943C90704D143
:1014B000891E0161204600F033F820680169C943A4
:1014C000090609D4C168C943090605D46FF0800133
:1014D00001612046FFF73EFF20680169C9434906C4
:1014E00009D4C168C943490605D46FF040010161C0
:1014F000204600F01FF820680169C94389060BD413
:10150000C168C943890607D46FF0200101612046F4
:10151000BDE87040FFF71FBF70BD70477047000007
:1015200000680349884201D1FFF770BB7047000093
:1015300000000140704708B590F83810012907D025
:10154000012180F8381090F83910212902D006E0E6
:10155000022008BD01684A6942F080024A6190F8A1
:101560003A100022222911D101680B684B680093C0
:10157000CB6843F48073CB6001684B6943F001038F
:101580004B6101684B6943F040034B6180F83820A0
:10159000002008BD10B504460068416994F8392060
:1015A000C1F3C011212A0BD151B1416921F0800151
:1015B0004161206B08B1FFF767F8204600F030FE6C
:1015C0002068416994F83A20C1F38011222A0BD196
:1015D00051B1416921F040014161606B08B1FFF7F1
:1015E00053F8204600F00EFE002010BD70470000AA
:1015F00070B5026804461068D168536910F00F0F87
:1016000052D003F0010501F490762E435FD0C2075B
:1016100005D0CA0503D5E26B42F00102E26342073E
:1016200005D5DA0703D0E26B42F00202E2638207DB
:1016300005D5DA0703D0E26B42F00402E263020749
:1016400007D501F020022A4303D0E26B42F00802E2
:10165000E263E26B002A33D0800604D5880602D507
:10166000204600F0E6FD20684069E16BC0F3801081
:10167000090700D428B3204600F0C4FD2068416962
:1016800049061AD5416921F040014161606BA0B162
:101690001B490165606BFFF73EF8002810D0606BB6
:1016A000016DBDE870400847830610D58B060ED546
:1016B0002046BDE8704000F0BCBD2046FFF796FF15
:1016C00070BD2046FFF792FF0020E06370BD030667
:1016D00006D50B0604D52046BDE8704000F088BE54
:1016E0004006F3D54806F1D5D168204621F04001E7
:1016F000D160202184F8391000F0C0F970BD0000DD
:101700006521000870B5040004D094F83900002564
:1017100010B106E0012070BD84F83850204600F07A
:1017200023F8242084F839002068C16821F400518E
:10173000C160204600F0C8FD2068016921F4904195
:1017400001612068416921F02A0141612068C16876
:1017500041F40051C160E563202084F8390084F829
:101760003A00002070BD00002DE9F04186B0064629
:1017700014216846FEF705FEDFF800C131684048D5
:101780000222032308273F4D002461451FD13C4915
:1017900010310C6844F400240C60096801F4002145
:1017A0000591016841F004010160006802AC00F09D
:1017B000040005909802CDE90002012084E8890028
:1017C00069462846FFF72CF906B0BDE8F081DFF83E
:1017D000B8C06145F8D12A491431D1F800C04CF0A5
:1017E000200CC1F800C0096801F0200105910168D2
:1017F00041F0040101600068694600F004000590B2
:10180000C0208DE81500CDE903372846FFF708F919
:101810001F4D1E484FF4806887052860C5E9017494
:10182000C5E903486C61AC61EC612C6228466C62CE
:10183000FFF754F808B1FEF726FF7563AE6313484F
:10184000144D7830E5E802074020A5E81101114861
:1018500045F81449AC61EC612C626C62FFF73EF80C
:1018600008B1FEF710FF3563002204214720AE6364
:10187000FFF74EFA4720FFF73DFAA5E7004C00407E
:101880003038024000080240001401402864024041
:10189000180F0020780F0020F8B5044690F83A00A1
:1018A00020283CD1C1B3BAB394F83800012836D00F
:1018B000012084F83800A162A2850025E56322207A
:1018C00084F83A00636B1748D863636B1648186452
:1018D000636B1648D864606B134605650846666BF3
:1018E000216802463046091DFFF762F8206801684A
:1018F0004168009184F83850C16841F48071C1603A
:101900002068416941F0010141612068416941F06D
:10191000400141610020F8BDFFE70120FBE7022004
:10192000F9E70000BF210008FB210008752100082D
:1019300090F83A30202B22D1F9B1F2B190F838303A
:10194000012B1CD081628285C2850021C1632222C5
:1019500080F83A2080F838100168CA6842F4807232
:10196000CA6001684A6942F001024A610068C168C0
:1019700041F02001C1600020704701207047022023
:10198000704700001CB500680A49884211D10A4816
:1019900000F06EFA00280CD06946074800F02CFAD7
:1019A000002806D0BDF8042064230448009900F004
:1019B00008F81CBD0014014004020020980E00200D
:1019C00070472DE9F843044690F839001F46164643
:1019D0000D46202850D1B5B1AEB194F83800012899
:1019E0004AD0012084F838004FF00008C4F83C8049
:1019F000212084F83900FFF703F9A6848146E684A4
:101A000084F8388026E00120BDE8F883E08C401E91
:101A1000E084A0684B46B0F5805F4FF000024FF0C5
:101A200080012046009703D000F013FDE8B90DE0D7
:101A300000F00FFDC8B928882168C0F3080048608D
:101A4000206908B16D1C05E0AD1C03E0216815F8A4
:101A5000010B4860E08C0028D8D14B460022402181
:101A60002046009700F0F5FC08B10320CCE72020C9
:101A700084F839000020C7E70220C5E7704700F06E
:101A800001B80000F8B5134800900BF0D5F9124CDE
:101A90004FF47A621149E06009F06CFCE0680028BC
:101AA00016D00F4B5022694609F0AAFE0D49E06896
:101AB0000AF0F2F900254FF47A76E068007D0428F8
:101AC00006D0304606F086FA6D1CADB2052DF4D373
:101AD000F8BD00002F6EB136280000204431010807
:101AE000193700087F1A0008FEE70000014800F0DF
:101AF000A5B900000402002070B50546046800F096
:101B00003DF8287C092816D1206AC00202D50AA017
:101B100008F0C6F82946134809F088FA607A4FF4AD
:101B20007A7110FB01F02A460E4909F081F9206A0A
:101B300040F48010206270BD617373657274696FC8
:101B40006E206C63705F6563686F5F74696D65724A
:101B50005F72756E6E696E673D3D30206661696CBF
:101B600065640000691B000801680A6AD30204D595
:101B700022F480120A62FFF7BFBF70472DE9FC41D3
:101B80000468054604F16406A27A002A17D094F886
:101B9000D210914213D3287C274609280CD118A0D3
:101BA00007F0C0FC1EA007F033FE092087F82100D3
:101BB00025A1384604F0B2F9002084F8D200287C30
:101BC00009281AD1B06801AB010E8DF80410010C80
:101BD0008DF80510010A8DF806108DF80700042015
:101BE000009014F8D32F0921501C04F8010928464D
:101BF00001F0DEFC2078401C2070BDE8FC81000074
:101C00004E6F20726573706F6E736520746F202540
:101C100064206563686F2D726571756573747300F8
:101C200053657269616C206C696E6B2061707065C0
:101C300061727320746F20626520646973636F6ED4
:101C40006E65637465642E0050656572206E6F74F6
:101C500020726573706F6E64696E670070B586B0D0
:101C600014216846FEF78DFB19480025016841F0F4
:101C700004010160016801F004010591016841F06F
:101C800080010160016801F080010591016841F067
:101C900002010160016801F002010591016841F053
:101CA000010101600068012200F00100094E1403E7
:101CB000059021463046FEF79DFF0121CDE9004108
:101CC000CDE9021569463046FEF7AAFE06B070BDA2
:101CD000303802400004024010B50C4C0A480C2178
:101CE00020604FF4E13060600020A060E060C4E953
:101CF0000401A061E0612046FFF704FD2068C1688F
:101D000041F01001C16010BD00140140D80E002048
:101D1000FEE7704770B515460E4608B109A000E011
:101D20000AA000F037FC002405E0315D09A000F0B6
:101D300031FC641CA4B2AC42F7D3BDE8704007A0EC
:101D400000F028BC726563763A00000073656E642B
:101D50003A00000025303278200000000D0A000013
:101D60001CB5104C6068C0B10F4800F081F8A0B1FC
:101D700069460D4800F040F878B1BDF80420012014
:101D80000099FFF7C7FF0FF0B7FBBDF904200099DA
:101D9000606808F005F90FF0CFFB0A2006F01AF989
:101DA000E0E70000080000200402002010B590F9D0
:101DB0005A30002B07DD90F9583090F95940A34272
:101DC00006D1002010BD03D190F8593080F858306A
:101DD00090F9583000EBC303C3E9001210F9581F03
:101DE0000A22491C91FBF2F302FB13110170817866
:101DF000491C8170012010BD70B5044690F85A004E
:101E00000D46002818D00FF077FB94F9590004EB29
:101E1000C000D0E90010C5E9001014F9590F0A21DB
:101E2000401C90FBF1F201FB120020706078401E14
:101E300060700FF081FB012070BD0000002180F870
:101E4000581080F8591080F85A10A0F85C1080F8EB
:101E50005E10064A026542654FEA010240F8321000
:101E6000521CD2B20A2AF9D3704700006502002042
:101E700010B5044690F85A0008B1012010BD94F93D
:101E8000580094F9591088420AD00FF035FB94F8A5
:101E90005A0018B994F8590084F858000FF04CFB18
:101EA000002010BD08A000F075FB04F015FF09A08C
:101EB00000F070FB42F2107409A000F06BFB2046AA
:101EC00006F088F8F8E70000494E4954204C57497D
:101ED000500D0A00494E4954204F5645520D0A00F4
:101EE00069646C65205461736B2069732052756E50
:101EF0006E6E696E670D0A0009F072FD05A000F0B4
:101F000049FB4FF47A7400200FF0BAFB204606F02C
:101F100061F8F8E752544F532049532052554E4E22
:101F2000494E470D0A00000010B5502080F311887B
:101F3000BFF34F8FBFF36F8F10F072FE18B10449DB
:101F40004FF080500860002080F3118810BD000021
:101F500004ED00E030B593B030216846FEF711FA89
:101F600014210CA8FEF70DFA1A480025016841F06B
:101F700080510160006800F080501190164801689F
:101F800041F4404101600068022400F44040119097
:101F90000120039010200490009406940820CDE9BD
:101FA0000750B420CDE9090404200B906846FFF7E0
:101FB00023F8FEF7DFFE0CA90F2081E831004FF473
:101FC000A0500F90E002109005210CA8FEF70AFF28
:101FD00013B030BD40380240007000400548016831
:101FE00041F47001016003494FF0006080390860DE
:101FF0007047000088ED00E070B58AB014460E46C8
:102000001D46242216A16846FEF794F9F4B12189F1
:1020100030460CF01BFF1B4800F0BCFA69461AA0C2
:1020200000F0B8FA174800F0B5FA164800F0B2FA16
:1020300015A0616800F0AEFA124800F0ABFA6068D3
:1020400001F0ACFB204606F013FE05E025B9304652
:1020500009F036FAFFF716FD0AB0002070BD000047
:10206000546869732069732074686520736572769B
:10207000657220636F6E74656E74206563686F3A75
:102080000D0A00007435010825730D0A00000000D8
:102090000148FFF78FB900002C120020F0B502684C
:1020A000254C264D264E274F274B4FF0804CA04203
:1020B00009D0604507D0A84205D0B04203D0B8424D
:1020C00001D0984204D122F0700E4A6842EA0E0212
:1020D000A0421BD0604519D0A84217D0B04215D0FD
:1020E000B84213D0984211D0184DA8420ED0184DC6
:1020F000A8420BD0174DA84208D0174DA84205D0D2
:10210000164DA84202D0164DA84203D122F44075C4
:10211000CA682A434D6922F080022A4302608A6815
:10212000C2620A688262A04201D0984201D1096964
:10213000016301214161F0BD000001400004004045
:1021400000080040000C0040000401400040014035
:10215000004401400048014000180040001C0040BD
:102160000020004010B5806B0021C185C184FFF7BD
:102170003DFA10BD70B5846B2068406994F8391041
:10218000C0F3C0100025212904D118B1E5842046F0
:1021900000F046F82068406994F83A10C0F38010C7
:1021A000222904D118B1E585204600F02BF8E06B18
:1021B00040F01000E0632046FFF718FA70BD10B53C
:1021C0000146806B09680968C90513D40021C185DF
:1021D0000168CA6822F48072CA6001684A6922F004
:1021E00001024A6101684A6922F040024A612021E5
:1021F00080F83A10FFF7C6FB10BD10B5806BFFF7F3
:10220000DFFB10BD0168CA6822F49072CA600168E1
:102210004A6922F001024A61202180F83A10704791
:102220000168CA6822F0C002CA60202180F8391013
:10223000704710B590F83A10222901D0022010BD45
:102240008168B1F5805F11D00169002901681FD054
:10225000496801F07F03816A4A1C82620B70C18D5C
:10226000491E0904090CC18518D02BE00269816A56
:10227000002A0268526805D0D2B20A80816A491CDD
:102280008162ECE7C2F308020A80816A891CF7E7E1
:102290004A68816A4B1C83620A70E0E70168CA6879
:1022A00022F02002CA600168CA6822F48072CA6003
:1022B00001684A6922F001024A61202180F83A103F
:1022C000FFF760FB002010BD2DE9F04104460068D7
:1022D0000169E26821F44051114301612169A0685C
:1022E000E26908436169114308432168CA6849F2F9
:1022F0000C639A430243CA6020684169A26921F4D1
:10230000407111434161E069192764253226B0F517
:10231000004F354A354920684FF0000806D0884202
:1023200001D0904236D1FEF727FE35E0884201D039
:10233000904202D1FEF720FE01E0FEF70DFE61683B
:102340004A18A0FB070148EB0803FDF7ABFF014665
:10235000B0FBF5F00201B1FBF5F06FF01803584344
:1023600001EB800006EBC000B0FBF5F000F0F800D8
:1023700002EB4002B1FBF5F0584301EB800006EBA5
:10238000C000B0FBF5F000F0070021681044886041
:10239000BDE8F081FEF7E0FD61688B0F8A00A0FBCD
:1023A0000701FDF77FFF0146B0FBF5F06FF0180263
:1023B000504301EB800006EB0010B0FBF5F000F09D
:1023C000F002B1FBF5F002EB0012B1FBF5F06FF09B
:1023D0001803584301EB800006EB0010B0FBF5F04A
:1023E00000F00F00D1E70000001401400010014090
:1023F00090F83910212901D0022070478168B1F589
:10240000805F016A0BD04A1C026202680978516041
:10241000C18C491E0904090CC1840ED017E009883B
:102420000268C1F30801516001690029016A02D004
:10243000491C0162ECE7891CFBE70168CA6822F0CD
:102440008002CA600068C16841F04001C16000209C
:1024500070472DE9F041984617460E460446069D02
:102460001DE0681C1BD02DB1FEF7CAFBA0EB0800D5
:10247000A84214D92068C16821F4D071C1602068D5
:10248000416921F001014161202084F8390084F87C
:102490003A00002084F838000320BDE8F08120686D
:1024A000006836EA000004D00020B842D9D00020ED
:1024B000F3E70120F9E7000010B50449044800F0F3
:1024C00009F8BDE810400248FFF792B80402002066
:1024D000D80E00202DE9F843804600680C460168BC
:1024E000C943C90638D401680027406800904046B7
:1024F000FFF750F81948006840684FF42076B04262
:1025000020D0C0F52070B0421CD2154DA880616D5E
:10251000296020466A68FFF749FCB0B1B4F85C1046
:10252000B5F90400014409B2A4F85C10C1F540619A
:10253000B14202DB616D084402E0A4F85C70206DDA
:10254000606502E04046FEF7F6FF32464046616DA8
:10255000BDE8F843FFF7A0B9BDE8F883180F0020E5
:102560000000002010B504466423FFF72AFA002873
:102570000BD02046FEF7DFFF04484FF42072416D78
:102580002046BDE81040FFF787B910BD04020020C7
:10259000FEE700000FB4054B10B503A9044A0298EA
:1025A00000F040F810BC5DF814FB0000892D000815
:1025B000FC0100200FB4084B10B504A902AA03982F
:1025C00000F030F8044602A9002000F05CFA204632
:1025D00010BC5DF814FB0000872A00080907090EEB
:1025E000002804DB00F1E02080F80014704700F0C0
:1025F0000F0000F1E02080F8141D7047004870477C
:102600000002002002E008C8121F08C1002AFAD107
:1026100070477047002001E001C1121F002AFBD162
:10262000704700002DE9FF4F8DB00F46054600268C
:1026300006E025280BD0DDE90F1290476D1C761CB3
:1026400028780028F5D111B03046BDE8F08F00247D
:10265000A246A1460122EC4900E0044315F8013FDF
:10266000203B02FA03F00842F7D128782A2810D03C
:102670006FF02F022878A0F13001092914D80AEB55
:102680008A0102EB410144F0020400EB010A6D1CD7
:10269000F0E701CF5FEA000A03D544F40054CAF121
:1026A000000A44F002046D1C28782E2817D115F872
:1026B000010F44F004042A280ED06FF02F0228786E
:1026C000A0F1300109290AD809EB890102EB410187
:1026D00000EB01096D1CF2E757F8049B6D1C28788C
:1026E0006C280FD006DC4C2817D068280DD06A283B
:1026F00014D104E0742810D07A280FD10DE044F4EE
:1027000000140AE044F4801401E044F440146978B1
:10271000814202D104F580146D1C6D1C2A786E2A4A
:102720001FD00CDC632A31D004DC002A8BD0582A5D
:1027300011D1A3E0642A68D0692A0CD165E0732A1C
:102740002ED004DC6F2A73D0702A04D19BE0752A46
:102750006FD0782A6ED01046DDE90F129047761CB4
:1027600050E1C4F30250022806D0032809D00428FF
:1027700001CF09D0066045E101CFF117C0E9006142
:1027800040E101CF06803DE106703BE117F8040B04
:102790008DF8000000208DF80100EB46012003E0D9
:1027A00057F804BB4FF0FF3061074FF0000102D42F
:1027B0000DE008F10101884649450FDA8045F8DB54
:1027C0001BF808100029F4D108E008F1010188463F
:1027D0008142FADB1BF808100029F6D1DDE90F234E
:1027E000AAEB08008146214600F036F9304400EBA0
:1027F000080604E0DDE90F121BF8010B9047B8F161
:102800000108F7D221464846F7E00A21C4F30253F3
:102810004FF0000B0891022B04D001CFC117032BFE
:1028200009D00AE0FF1D27F00707F7E8020108E0DA
:1028300032E01FE020E000B2C117042B01D140B20A
:10284000C117031E71F1000307DA4FF0000CD0EB43
:102850000C006CEB01012D2302E0230504D52B2392
:102860008DF82430012303E0E30701D02023F7E7AC
:10287000984658E00A2110E010210EE010204FF099
:10288000000B08900CE010214FF0000B44F0040402
:102890004FF00809089103E008214FF0000B089160
:1028A000C4F30253022B04D001CF0021032B06D026
:1028B00006E0FF1D27F00707F7E8020103E080B2FA
:1028C000042B00D1C0B24FF0000823072BD5702A8B
:1028D00007D0DDF820C08CF0100C5CEA0B0C05D0A2
:1028E0000EE040238DF82430012308E050EA010374
:1028F00006D030238DF824308DF825200223984609
:10290000DDF820C08CF0080C5CEA0B0C0BD150EA0F
:10291000010301D1630706D530238DF824304FF031
:102920000108A9F10109582A04D038A20B9208AA7B
:102930000A920BE03AA2F9E75B46089AFDF7B2FC6F
:102940000B9B9B5C0A9A521E0A92137050EA01027A
:10295000F2D10A98ADEB000000F1200B600702D520
:1029600024F4803401E04FF00109D94502DDA9EBE0
:102970000B0000E0002000EB0B0141440890AAEBA3
:10298000010AE00306D4DDE90F232146504600F09A
:1029900063F806444FF0000908E009A911F809009E
:1029A000DDE90F12904709F10109761CC145F4DBFE
:1029B000E0030CD5DDE90F232146504600F04CF82A
:1029C000064404E0DDE90F1230209047761C089998
:1029D000481E08900029F5DC08E00A980A9900785A
:1029E000491C0A91DDE90F129047761CBBF10001EA
:1029F000ABF1010BF1DC21465046DDE90F2300F07D
:102A000019F806446D1C1BE60928010030313233E9
:102A1000343536373839616263646566000000001A
:102A20003031323334353637383941424344454604
:102A3000000000002DE9F041044600251E4617461F
:102A4000880404D405E039462020B0476D1C641E7C
:102A5000F9D52846BDE8F0812DE9F041044600256E
:102A60001E469046C80301D5302700E02027880481
:102A700004D505E041463846B0476D1C641EF9D5C3
:102A80002846BDE8F0810A68531C0B60107070473F
:102A900010B5044BC069044A194605F083F90120BA
:102AA00010BD000044310108483101083EB504461C
:102AB000064807A380688DE80700044A06491032DB
:102AC0002046FFF777FD20463EBD0000280000208D
:102AD0006C7749502F0000000C350108084C02E0CB
:102AE0000A2005F077FA20780028F9D000F018FFC6
:102AF0004FF47A7400F016FF204605F06BFAF9E700
:102B0000080000202DE9F041054600244FF440471D
:102B10000F4E0CE00188B94208D2816931B12846D4
:102B2000884795F8D400401C85F8D400641C56F8FA
:102B300024000028EED195F8D400002805D12846BD
:102B4000BDE8F04103A103F0E9B9BDE8F081000060
:102B5000143201084E6F206E6574776F726B2070AF
:102B6000726F746F636F6C732072756E6E696E67CF
:102B70000000000070B505460C46880706D00BA380
:102B80004FF4B67215A11DA0FFF704FD08F074F80C
:102B90002A689188491E9180E96809682160E9687E
:102BA0000C60BDE8704008F073B800002E2E5C4D3C
:102BB0006964646C6577617265735C54686972649A
:102BC0005F50617274795C4C7749505C7372635CDE
:102BD000636F72655C6D656D702E63006D656D7001
:102BE0005F667265653A206D656D2070726F706505
:102BF000726C7920616C69676E65640041737365FE
:102C00007274696F6E2022257322206661696C657B
:102C100064206174206C696E6520256420696E20D3
:102C200025730A0070B5054608F026F80646E868E0
:102C30000468002C19D021680160A00706D00FA3FA
:102C40004FF48C7219A122A0FFF7A4FC2868818898
:102C5000491C89B281802868C288914200D9C1800C
:102C6000304608F015F8204670BD29680888401CD9
:102C70000880304608F00CF8002070BD2E2E5C4D08
:102C80006964646C6577617265735C5468697264C9
:102C90005F50617274795C4C7749505C7372635C0D
:102CA000636F72655C6D656D702E63006D656D7030
:102CB0005F6D616C6C6F633A206D656D7020707232
:102CC0006F7065726C7920616C69676E6564000075
:102CD000417373657274696F6E20222573222066BA
:102CE00061696C6564206174206C696E652025647F
:102CF00020696E2025730A002DE9F0411E46154615
:102D00000F46FDF749FB040011D03846FDF756FB8E
:102D100020442946FDF740FB050001D0AC4208D90C
:102D200009A000BFFFF736FC0020BDE8F0810EA02F
:102D3000F8E73846FDF742FB01196A1A3046FDF7FD
:102D4000F9FA0120F1E70000726967687420737472
:102D500072696E67206E616D65206E6F7420666F9C
:102D6000756E64210A0000006C65667420737472CD
:102D7000696E67206E616D65206E6F7420666F7579
:102D80006E64210A0000000004490A685206FCD55E
:102D9000024AC1B2121D116070470000004C004091
:102DA00070B50D000446856008D02846FDF706FB87
:102DB000FF2805D22846FDF701FB02E0002001E0D4
:102DC000FF20C0B22076207C0A280CD2DFE800F079
:102DD0000B050B070B090C0C0C0C002002E0022069
:102DE00000E00420207470BD2046BDE8704004213E
:102DF0000EF0FEB800210268017441748174D2792A
:102E0000C275017670470000F8B5134604460D46BA
:102E1000042A33DB0878691C11F801CB11F8012B67
:102E200011F8016B46EA02260A46042E26DB9E4272
:102E300024DC217C361F002920D001291ED008283F
:102E40003AD2DFE800F039040C14141C242901B034
:102E500033462046BDE8F040614600F0F3B901B0CA
:102E600033462046BDE8F040614600F0EBB813461B
:102E7000014662462046009600F052F9F8BD01B0C6
:102E800033462046BDE8F040614600F06DBA20466A
:102E9000BDE8F84000F03ABA1046042EEEDB0278A6
:102EA00043786068816B10A006F0FAFE207C07284A
:102EB000E4D106202074F8BD61684F6B3FB1134622
:102EC0000146624620460096B8470028F3D1361DD9
:102ED0000096A07C2B46401CC2B2A274072120465B
:102EE00000F066FBF8BD000025733A20526376645B
:102EF00020436F64652D52656A65637420666F7246
:102F000020636F64652025642C206964202564009B
:102F100070B5017C044600200125891E082906D2CF
:102F2000DFE801F004060F1111111118207470BDB3
:102F300025746068416A0029F9D02046BDE87040D8
:102F40000847207400E025742146BDE8704005481C
:102F500008F06CB86068016A09B12046884725749A
:102F600070BD00003D36000810B50446007C30B14D
:102F700001280CD1607C400703D5032006E0022025
:102F800004E00021204600F049FA0620207410BD1C
:102F900010B50446007C0A281BD2DFE800F0051AB1
:102FA0000F1D1B1A1A1A1A1D012020746068416A2D
:102FB00000290ED02046BDE810400847607C40073D
:102FC00001D5032004E00021204600F027FA062066
:102FD000207410BD05202074607C8007F9D5204640
:102FE000FFF796FF2046BDE81040FFF7BDBF000089
:102FF00010B50446007C801E08281FD2DFE800F0D0
:10300000080E040A0A0A0A1821460D4808F00EF8AC
:10301000022004E021460A4808F008F80320207442
:103020006068816A002909D02046BDE81040084741
:103030002046BDE8104005210DF0DABF10BD0000AC
:103040003D3600082DE9F84304460568C07C0E466D
:103050001F469046B04229D1207B002826D16068C7
:10306000C3682BB13A4641462046984708B107E06D
:1030700037B13A464146BDE8F84320A006F048BAC9
:10308000012020730020A075217C0627891E0829B5
:103090000CD2DFE801F004040B0B0D12172800908E
:1030A000F2B200230621204600F082FABDE8F88340
:1030B0000720207468792075F8E72146174807F043
:1030C000B5FF15E02146154807F0B0FF0920207430
:1030D000687920756068C1690029E7D001B0204691
:1030E000BDE8F04308476068016A09B12046884797
:1030F0000021204600F092F92774D7E752656365F6
:10310000697665642062616420636F6E66696775C5
:1031100072652D61636B3A20255000003D36000832
:103120002DE9F8430446C07C1646DDF820901F4682
:10313000B04244D1207B002841D1804603290BD0E6
:1031400084F816806068436953B34A46394620467E
:103150009847050024D012E0A07D401CC0B2A075A5
:10316000E17D884201D3012300E000236068056906
:1031700095B14A4639462046A84705000CD00120A3
:103180002073207C0627801E082818D2DFE800F074
:103190000F0F17171928192D4A46394618A002E0B3
:1031A0004A4639461EA0BDE8F84306F0B1B9F2B26E
:1031B000002306212046CDF8008000F0F9F9BDE893
:1031C000F88321461E4807F031FF002D02DA032064
:1031D0002074F4E72046BDE8F843002100F01EB952
:1031E0002146174807F022FF04E06068016A09B130
:1031F000204688470021204600F010F92774DEE7BA
:1032000052656365697665642062616420636F6EF0
:103210006669677572652D6E616B3A2025500000F6
:1032200052656365697665642062616420636F6ED0
:103230006669677572652D72656A3A2025500000CF
:103240003D3600082DE9FF430446007C0027062692
:10325000801E81B091468846082819D2DFE800F028
:1032600004130B0B1818180E0023424606212046A3
:10327000009700F09DF905B0BDE8F0836068016A31
:1032800009B1204688470021204600F0C7F826747F
:103290006068856965B1607DE17D884201D3012365
:1032A00000E0002304AA49462046A847054604E05A
:1032B000049808B1042500E0022504980090E9B2C2
:1032C0004B464246204600F073F9207C022D08D080
:1032D000072800D02674032DCDD1607D401C607579
:1032E000C9E7072803D0082020746775C3E7214683
:1032F000054807F09BFE092020746068C169002919
:10330000F3D020468847F0E73D36000870B5044604
:10331000007C042811D0052815D0062507280AD0DE
:10332000092809D16068016A09B12046884700214F
:10333000204600F073F8257470BD2146094807F057
:1033400075FE022004E02146064807F06FFE0320C8
:1033500020746068816A0029EED02046BDE8704084
:10336000084700003D360008F8B504460568007CB3
:1033700000269C460F46072804D0082802D00928BA
:1033800026D102E00620207422E06068BCF1000F24
:10339000816B05DD1346624611A006F0C3F802E01A
:1033A00017A006F0BFF82675052020746068016A32
:1033B00009B1204688472146174807F037FE28798B
:1033C0004FF47A7110FB01F02246134907F030FDEB
:1033D000FAB2002306212046009600F0E9F8F8BD75
:1033E0002573207465726D696E61746564206279FD
:1033F0002070656572202825302E2A76290000006D
:103400002573207465726D696E61746564206279DC
:1034100020706565720000003D360008F8B504466E
:103420000668007C00250F4606280AD0072808D029
:10343000082806D06068016809B12046884765758C
:10344000A5752FB970792075A07C401CA074E0741C
:1034500025736068416859B1806848B12046884743
:103460000090B6F8D010091F814202DA009100E006
:10347000009500984FF4C172083081B2002004F02A
:103480004DFF050006D028896989884203D0284667
:1034900005F0EEFBF8BD6968FF2001F8010B032081
:1034A00001F8010BE089000A01F8020BA07B01F88A
:1034B000010C012001F8040BE07C01F8030C0098DA
:1034C000001D000A01F8020C0098001D01F8010C13
:1034D0000098002810D060686A46836820469847A4
:1034E000688900990838884206D00EA340F2F2227B
:1034F00019A124A0FFF74EF82946304606F0DAFB62
:10350000207D2146401E2075284807F08FFD307928
:103510004FF47A7110FB01F02246244907F088FC31
:10352000F8BD00002E2E5C4D6964646C6577617295
:1035300065735C54686972645F50617274795C4C45
:103540007749505C7372635C6E657469665C707019
:10355000705C66736D2E630063696C656E203D3D23
:1035600020702D3E6C656E202D204845414445520B
:103570004C454E202D205050505F4844524C454EF3
:1035800000000000417373657274696F6E2022251C
:103590007322206661696C6564206174206C696EB9
:1035A0006520256420696E2025730A003D360008D9
:1035B0002DE9FF5FD0F8009080468A46B9F8D00028
:1035C0000E9F011F9346B94200DA071F3D1D281DBB
:1035D00081B24FF4C172002004F0A0FE06002AD090
:1035E00030897189884205D004B03046BDE8F05F6B
:1035F00005F03EBB74682FB13A4604F10800039908
:10360000FCF798FEFF20207003206070B8F80E00D1
:103610003146000AA07098F80E00E07084F804A00B
:1036200084F805B0280AA071E57104B04846BDE8E9
:10363000F05F06F03FBBBDE8FF9F000038B50446D1
:103640000568007C011F052922D2DFE801F0030391
:1036500029292900217DE1B1207E0090A07CA3686A
:10366000401CC2B2A274E27405212046FFF7A0FFFD
:1036700021461D4807F0DAFC28794FF47A7110FBD7
:1036800001F02246184907F0D3FB207D401E20752B
:1036900038BD042802D0032020741CE00220FBE780
:1036A000207D002860680DD0016B09B12046884755
:1036B00001212046FFF7B2FE207C0728E8D1062032
:1036C000207438BD816B09A006F0EAFA032020744B
:1036D000607CC007F5D16068816A0029F1D001B033
:1036E0002046BDE8304008473D36000825733A20A3
:1036F00074696D656F75742073656E64696E67209B
:10370000436F6E6669672D526571756573747300DA
:103710004FF0FF307047000010B5ADF5207D0C462E
:1037200024220EA196A8FCF705FE154920460BF0B1
:10373000E3FA6846FCF742FE01466846FCF721FEC4
:103740001048FEF727FF0F48FEF724FF0EA0FEF7F4
:1037500021FF0DF5207D002010BD00005468697325
:103760002069732061206E657720636C69656E74D3
:1037700020636F6E6E656374696F6E2E0D0A0000B4
:10378000F91F000874350108636F6E6E656374205D
:103790007375636365737321210D0A00F0B5ADF293
:1037A000A44D07464FF4007631466846FCF7E9FD24
:1037B0004FF4167180A8FCF7E4FD34210DF58B6001
:1037C000FCF7DFFD14210DF28C40FCF7DAFD0DF55E
:1037D0008B60FCF7F3FD01460DF58B60FCF7D1FD26
:1037E0006846FCF7EBFD01466846FCF7CAFD80A879
:1037F000FCF7E4FD014680A8FCF7C3FD0DF28C4008
:10380000FCF7DCFD01460DF28C40FCF7BAFD294CBB
:103810002078E0B90120207027A13846FCF7BCFDD4
:103820000DF28C4328A229A1FFF766FA0DF28C4015
:10383000FCF7D8FD81B2618025A0FEF7ABFE0DF24A
:103840008C40FCF7CFFD014622A0FEF7A3FE29A184
:103850003846FCF7A1FD27A13846FCF79DFDFCF793
:10386000ADFD054623A13846FCF796FD01462A46E4
:1038700080A8FCF75FFD14A180A8FCF78DFD011D59
:1038800032466846FCF756FD69461FA0FEF782FEE9
:10389000E0880146401CA08001F5007081B2E18003
:1038A0006088814202D3411EA180E08068460DF20B
:1038B000A44DF0BD28000020436F6E74656E742D1A
:1038C00052616E67650000000D0A00002F000000C5
:1038D00025640000212121212121212121212121D3
:1038E00021212121212121212121212564200D0AAD
:1038F00000000000782D6F73732D7365727665720A
:103900002D74696D6500000066696C655F62696EA3
:103910005F64617461200D0A25730D0A00000000C8
:10392000FEF7B0B810B5ADF5167D6846FCF746FD5C
:1039300001466846FCF725FD194CE06840B3007D60
:10394000042825D11748FEF725FEE288A18868469D
:10395000FFF7ACF802E00A2004F03CFB6846FCF7F5
:103960002DFD82B201236946E0680CF039FC002885
:10397000F1D1E288A1886846FFF798F801460AA0CD
:10398000FEF708FE0748FEF705FE642004F022FB60
:103990004FF47A7004F01EFB0DF5167D10BD00008B
:1039A000280000207435010825730D0A000000006E
:1039B0000A46032100F028B92DE9FE4F5D4C05466B
:1039C0008B46B4F84A005C49401CA4F84A00D1F880
:1039D000088098F800000007860E142E74D36889BA
:1039E0000428FBD36868007848B108280CD034F864
:1039F000580F401C24F80A092088401C20802846C3
:103A0000BDE8FE4F05F034B94869DFF82CA1C0F3DA
:103A100003120AF1140A0E2A4DD08946096800F0F3
:103A2000DCF9002847D1288908287CD306F10E014B
:103A30000F46284604F00EFC002830D02889811952
:103A400089B2884237D84FF420720E2004F066FC09
:103A5000070030D0798906F10800814216D332463A
:103A600041467868FCF766FC3146384605F0CCFAEA
:103A7000002806D031A3B6223EA14CA0FEF78AFD55
:103A800004E02946384604F0FDFE18B1384605F03A
:103A9000EFF810E0284605F0EBF83D4615E0394612
:103AA000284605F0B1FA00280FD024A3C72249A167
:103AB0003EA0FEF76FFD284605F0DAF834F85C0FFB
:103AC000401C2080BDE8FE8F2DE031462846D5F809
:103AD000048004F0BFFB002891D16F68DAF8000081
:103AE0003146F860D9F8100038614FF0000988F8C5
:103AF0000090A8F80290FF203872A7F80A90384684
:103B000000F01AF9788134F8480F0122401C208017
:103B1000CDE90092FF23CDF808B000225146284697
:103B200000F0C2FB6BE7284605F0A2F834F8520F0C
:103B3000C6E70000308D00205C4F00202E2E5C4D2B
:103B40006964646C6577617265735C5468697264FA
:103B50005F50617274795C4C7749505C7372635C3E
:103B6000636F72655C697076345C69636D702E6337
:103B70000000000069636D705F696E7075743A20B3
:103B80006D6F76696E6720722D3E7061796C6F6122
:103B90006420746F2069636D70206865616465726C
:103BA000206661696C65640A0000000041737365FA
:103BB0007274696F6E2022257322206661696C65BC
:103BC00064206174206C696E6520256420696E2014
:103BD00025730A0069636D705F696E7075743A20B1
:103BE000726573746F72696E67206F726967696E50
:103BF000616C20702D3E7061796C6F61642066612C
:103C0000696C65640A0000002DE9FF47914688460B
:103C100006464FF420722421222004F07FFB050089
:103C200036D06889242806D21AA34FF4B47227A18B
:103C300031A0FEF7AFFC6C6877681C2284F8008026
:103C400084F801904FF00008A4F80480A4F80680DE
:103C5000686871680830FCF76DFBF868039003A88A
:103C600000F078FD88B12E4BA4F80280002133F8D3
:103C7000482F521C1A800122CDF80080CDE9012086
:103C8000FF2303AA284600F00FFB284604F0F0FFAC
:103C9000BDE8FF872E2E5C4D6964646C65776172A8
:103CA00065735C54686972645F50617274795C4CCE
:103CB0007749505C7372635C636F72655C697076A0
:103CC000345C69636D702E63000000006368656397
:103CD0006B207468617420666972737420706275F9
:103CE000662063616E20686F6C642069636D70206C
:103CF0006D65737361676500417373657274696F95
:103D00006E2022257322206661696C6564206174CF
:103D1000206C696E6520256420696E2025730A0079
:103D2000308D00200A460B21FFF76EBFEFF30580B0
:103D3000002800D00120704700B503F08FF8C04381
:103D400080B200BD30B41B68029D9CB204EB1344EA
:103D50002B6814FA83F404EB13431C0C14FA83F35A
:103D60001C0C14FA83F330BCAFF300802DE9F04152
:103D70001C4690460F460026054612E06989686891
:103D800003F06CF82044010C11FA80F4A87AC00703
:103D900006D006B30026E0B2C4F3072141EA0024AE
:103DA0002D68002DEAD126B1E0B2C4F3072141EA23
:103DB0000024384603F03AF80444404603F036F84D
:103DC0002044010C11FA80F0010C11FA80F0C0437C
:103DD00080B2BDE8F0810126DDE7421C12D088B137
:103DE00091F8292092070BD54B68834208D0896847
:103DF00000EA01020B409A4202D10143491C01D062
:103E000000207047012070472DE9F74F88B0044625
:103E1000099800251426008CAF1F1438C11700EB39
:103E20005170C0F3CF00039060680690017801F0F4
:103E30000F01052903D038460BB0BDE8F08F61892A
:103E4000142907D260A34FF43F726EA174A0FEF74D
:103E5000A1FBF0E7C08802F0E9FFC0F30C0100F419
:103E6000005002910790208914381FFA80F89AE0D8
:103E700003994FF6FF7000EAC1004146404500D962
:103E8000084605904FF4207214210E2004F046FAE3
:103E90005FEA000A7DD0BAF80A00142806D24AA3C5
:103EA0004FF4497268A15EA0FEF774FB1422DAF8A1
:103EB00004000699FCF73EFADAF804000490059F26
:103EC00035E06089811B8DB2B04206D23EA340F23C
:103ED0002D3265A152A0FEF75DFBAF4200D23D46F8
:103EE0001DB3052003F0F0FC5FEA000961D06068B3
:103EF0004B463044CDE9000541222946002004F01C
:103F000099FB5FEA000B5AD0204605F02FF85A497A
:103F1000C9E904145946504604F0A8FB781B07046D
:103F20003F0C06D000262468CBE724680026002F2B
:103F3000C7D1701986B20998008C14384045029890
:103F4000C0F30C0001DB079909B140F4005002F006
:103F50006DFF0499C8800598143080B202F066FFA6
:103F60000499488004980021418114210498FFF7A6
:103F7000E3FE04994881099851460A9A4369984793
:103F80003E49088B401C0883504604F071FE059999
:103F900000E011E0A8EB01001FFA80F8DDE9020162
:103FA000084480B20290B8F1000F7FF461AF0020A6
:103FB00042E7504604F05CFE4FF0FF303CE74846D5
:103FC00000F046FCF5E700002E2E5C4D6964646C41
:103FD0006577617265735C54686972645F50617281
:103FE00074795C4C7749505C7372635C636F726583
:103FF0005C697076345C6970345F667261672E63E9
:10400000000000006970345F6672616728293A20F9
:104010007062756620746F6F2073686F7274000031
:10402000417373657274696F6E2022257322206656
:1040300061696C6564206174206C696E652025641B
:1040400020696E2025730A0074686973206E6565A7
:1040500064732061207062756620696E206F6E65E2
:104060002070696563652100702D3E6C656E203E91
:104070003D20706F66660000715B0008308D002087
:104080002DE9F047DFF8E8810E460746B8F8321010
:10409000491CA8F83210456804212878B1EB101F9C
:1040A0000AD0384604F0E4FD404630F8441F491C6D
:1040B00020F80E19018821E000074FEA906968880E
:1040C00002F0B4FE04463889A04203D9214638469E
:1040D00004F0B2FE7989494506D33889A04203D35A
:1040E0004846B9F1140F0DD2384604F0C1FDB8F8B6
:1040F0003A104046491CA8F83A1075E0491CA8F847
:1041000036107BE001462846FFF716FE48B13846D8
:1041100004F0AEFDB8F838104046491CA8F8381035
:1041200062E02969DFF84CA1C1F303100E28CAF838
:104130001410EA68CAF8102005D0304600F09EF846
:1041400050B1344619E096F82900C00702D07068D3
:104150000028F6D1002410E09AF8140000247F28EB
:104160000BD04548046806E0B44203D0204600F076
:1041700085F810B92468002CF6D13146DAF8100021
:10418000FFF72BFE60BB9AF81000C0F303100E2857
:1041900026D05CB3E88830F0C00005D0384600F087
:1041A00073F907002AD07D68CAF80850CAE90046AA
:1041B000297838460907890EAAF80C10494604F0F8
:1041C00023FF687A012826D006281FD0112818D08E
:1041D00055462146DAF81400FFF7FFFD00B32CE046
:1041E000384604F045FD4046C18E87E7B8F83610E2
:1041F0003846491CA8F8361004F03AFD0020BDE806
:10420000F087314638460CF043FF23E0314638460C
:1042100007F0DAFF1EE031463846FFF7CDFB19E024
:10422000287DC0F303100E2807D04946384604F015
:10423000EBFD02213846FFF7BBFB404630F8401F3C
:10424000491C20F80A1901883846491CA8F836107C
:1042500004F00EFD0021CAF80010CAF80410CAF8D4
:104260000810AAF80C10CAF81010CAF81410C5E704
:10427000308D00205C4F00206401002010B590F8C4
:104280002910C9070CD0416851B1064A52698A42C7
:1042900004D001461046FFF7A0FD08B1012010BD73
:1042A000002010BD5C4F0020FEB5DDE90954089EDA
:1042B0001AB109B10F6807B9211D0096CDE9015463
:1042C00000F002F8FEBD00002DE9FF4F81B0054669
:1042D000DDE90E87807BDDF840A09B46164601286D
:1042E00006D040A34FF455724BA14EA0FEF752F9F1
:1042F000DFF858916FF00104002E4BD014212846AE
:1043000003F0A8FF002848D168896C68142806D2F9
:1043100034A34FF462724EA142A0FEF73BF984F839
:1043200008B0390247EA0B20677241EA1020316871
:10433000216110FA81F000EB1140452121704FEA14
:10434000082248F48A4142EA112184F801800F18BA
:10435000288902F06BFD00EB07086080484F0020C1
:10436000E080388802F062FDA08039884044491C12
:104370003980029901B943490968E16010FA81F076
:1043800000EB1140010C11FA80F000EB1040C0432B
:1043900060810FE06889142808D2B9F844102046DB
:1043A000491CA9F8441005B0BDE8F08F68686E4656
:1043B00000690090B9F83010491CA9F83010BAF81B
:1043C000200040B12989814205D93246514628460C
:1043D000FFF71AFDE7E7DAF814305046324629466F
:1043E0009847E0E72E2E5C4D6964646C65776172D6
:1043F00065735C54686972645F50617274795C4C77
:104400007749505C7372635C636F72655C69707648
:10441000345C6970342E6300702D3E726566203DF9
:104420003D203100417373657274696F6E202225DF
:104430007322206661696C6564206174206C696E0A
:104440006520256420696E2025730A00308D0020C8
:10445000636865636B207468617420666972737445
:1044600020706275662063616E20686F6C642073D3
:1044700074727563742069705F6864720000000074
:10448000C8010020443101082DE9F14FDFF81C82FA
:10449000B8F81A10491CA8F81A100098456828782E
:1044A00000F00F00052805D0B8F82C10491CA8F81A
:1044B0002C10F1E0E88802F0B9FCC004070C688811
:1044C00002F0B4FC29780907890E8142F1D8401A1C
:1044D0001FFA80F9009804F06AF9754C06462088A6
:1044E00030440A2808D93146284600F047FCE0B39A
:1044F000208830440A283CD8A24664684FF0000B5C
:1045000018E06069E968884213D1A0692969884286
:104510000FD1A089A98888420BD1B8F82E10491C68
:10452000A8F82E1044B1E88802F080FCC00426D020
:1045300030E02468002CE4D1042003F0C5F9040025
:104540000AD13146284600F019FCB04211DB0420A4
:1045500003F0BAF904000CD02021FBF712FF0F2062
:10456000E077DAF80410216000E002E0CAF80440C5
:104570000AE0B8F82410491CA8F824108CE0E0895F
:1045800002F054FCC00405D01422294604F10800AE
:10459000FBF7D0FEA87940F340156D1C08D007EB5F
:1045A000090080B2B84266D34FF6EB71884262D8F8
:1045B0002A462046009900F093F9411C5BD0BAF8D6
:1045C00000203244AAF8002035B107EB0901A1838D
:1045D000A17F41F00101A17701284AD1A08B1422CB
:1045E000143087B2606804F10801456828462E68D7
:1045F000FBF7A0FE384602F019FC6880A5F806B06B
:10460000A5F80AB014212846FFF796FB6881656873
:1046100009E014213046776804F0F6FC314628465C
:1046200004F024F83E68002EF3D1DAF80410564660
:104630008C4205D1002105E00868A04202D0014665
:104640000029F9D1204600F06FFA284604F0AFF8AF
:1046500004463088A04206D216A340F29B2224A131
:104660002AA0FDF797FF3088001B30802846BDE860
:10467000F88F0020FBE7606870B9DAF80400844224
:1046800006D00CA340F2AB222AA120A0FDF782FFA6
:104690000021204600F048FAB8F81E10491CA8F87E
:1046A0001E10009804F0E4FAE3E70000308D0020CB
:1046B000CC0100202E2E5C4D6964646C65776172BC
:1046C00065735C54686972645F50617274795C4CA4
:1046D0007749505C7372635C636F72655C69707676
:1046E000345C6970345F667261672E63000000009D
:1046F00069705F72656173735F70627566636F7511
:104700006E74203E3D20636C656E000041737365DE
:104710007274696F6E2022257322206661696C6550
:1047200064206174206C696E6520256420696E20A8
:1047300025730A006E6F74206669727374616C74FD
:10474000686F756768206A75737420656E7175652A
:104750007565640070B50146164813E090F829208D
:10476000D3070FD053070DD543685BB184680D683C
:10477000234005EA04069E421AD0920702D4C2687A
:10478000954215D000680028E8D10B48006850B168
:1047900090F82920D30706D0520704D5426812B1F9
:1047A00009787F2904D10549C88F401CC88700209B
:1047B00070BD00006401002068010020308D0020E1
:1047C0001022014900F002B8248E00202DE9FC439C
:1047D0000023006889466C461E464FF00A0C01AD66
:1047E0000090002094F80080B8FBFCF70CFB1787C2
:1047F000B8FBFCF884F8008030372F54401CC0B25E
:10480000B8F1000FEED106E01F465B1C974209DAB3
:104810002F5C01F8017B401EC0B2F5D218465B1C2C
:10482000904202DB0020BDE8FC832E20761CF6B20D
:10483000641C01F8010B042ED3D3002001F8010CF5
:104840004846F0E738B5049C0094FFF77BFA38BD82
:1048500010B5040006D106A34FF4317213A116A0BF
:10486000FDF798FE2146BDE81040052002F06ABF22
:104870002E2E5C4D6964646C6577617265735C545F
:10488000686972645F50617274795C4C7749505CFE
:104890007372635C636F72655C697076345C6970B7
:1048A000345F667261672E63000000007020213D56
:1048B000204E554C4C000000417373657274696F53
:1048C0006E2022257322206661696C656420617404
:1048D000206C696E6520256420696E2025730A00AE
:1048E0002DE9F05F4C68064693460F4600254FF0D1
:1048F0000108608802F09AFA21784FF0FF3A090720
:10490000890E814231D8A0EB0109E08802F08EFACD
:10491000C0047C68010C0020206001EB090083B218
:10492000A180E3808B4220D3726829E05068B0F800
:1049300004C0614515D222606DB1B5F806C061456D
:1049400013D38088834210D82F60A088844506D076
:104950004FF0000803E08088834206D877608AB170
:104960002EE002D0C288914202D25046BDE8F09FAC
:1049700025B1EA88624501D04FF00008026805467B
:10498000002AD3D195B1E888A188884206D92AA304
:104990004FF4DB7237A13FA0FDF7FCFD2F60E888E4
:1049A000A18888420CD04FF0000809E0706830B14F
:1049B00021A34FF4DF7241A136A0FDF7EBFD776034
:1049C000BBF1000F02D1B07FC007CFD0B8F1000F0C
:1049D00030D07268002A2DD050688088002829D1F4
:1049E0002168204629B14C68C088A1888842F7D048
:1049F00020E0B8F1000F1DD032B90FA340F2DF1252
:104A00003CA124A0FDF7C6FD70684068A04206D115
:104A100009A34FF4F07237A11EA0FDF7BBFD20687B
:104A200030B105A34FF4F17236A11AA0FDF7B2FD23
:104A300001209BE7002099E72E2E5C4D6964646C91
:104A40006577617265735C54686972645F50617206
:104A500074795C4C7749505C7372635C636F726508
:104A60005C697076345C6970345F667261672E636E
:104A700000000000636865636B20667261676D65A6
:104A80006E747320646F6E2774206F7665726C612C
:104A900070000000417373657274696F6E20222587
:104AA0007322206661696C6564206174206C696E94
:104AB0006520256420696E2025730A006E6F2070C2
:104AC000726576696F757320667261676D656E7465
:104AD0002C2074686973206D75737420626520746E
:104AE000686520666972737420667261676D656EB1
:104AF0007421000073616E69747920636865636B6B
:104B00000000000076616C69646174655F646174C3
:104B1000616772616D3A6E6578745F706275662167
:104B20003D4E554C4C00000070B504460C480D46F7
:104B30004168A14202D1216841600AE0002D06D1FE
:104B400008A340F2451216A11CA0FDF723FD206822
:104B500028602146BDE87040042002F0F3BD00004B
:104B6000CC0100202E2E5C4D6964646C6577617207
:104B700065735C54686972645F50617274795C4CEF
:104B80007749505C7372635C636F72655C697076C1
:104B9000345C6970345F667261672E6300000000E8
:104BA00073616E69747920636865636B206C696EEC
:104BB0006B6564206C697374000000004173736559
:104BC0007274696F6E2022257322206661696C659C
:104BD00064206174206C696E6520256420696E20F4
:104BE00025730A002DE9F047054600240F46A94227
:104BF00005D12FA3AB223DA13FA0FDF7CBFC002F99
:104C000008D03868A84205D029A3AD2244A13AA013
:104C1000FDF7C0FC6E684FF4803870688188002909
:104C20001AD100686860142205F108017068FBF76A
:104C300081FB01213046FFF775F8304603F0B7FDE0
:104C40000446404505D31AA3BC223AA12AA0FDF789
:104C5000A1FC304604F00CF86E6812E07068B146B2
:104C60000668484603F0A3FD0444444505D310A359
:104C7000CC2230A120A0FDF78DFCA4B2484603F061
:104C8000F7FF002EEAD139462846FFF74DFF314D98
:104C90002888A04205D206A3D2222FA116A0FDF794
:104CA00079FC2888001B28802046BDE8F08700009A
:104CB0002E2E5C4D6964646C6577617265735C541B
:104CC000686972645F50617274795C4C7749505CBA
:104CD0007372635C636F72655C697076345C697073
:104CE000345F667261672E63000000007072657643
:104CF00020213D2069707200417373657274696F81
:104D00006E2022257322206661696C6564206174BF
:104D1000206C696E6520256420696E2025730A0069
:104D2000707265762D3E6E657874203D3D20697009
:104D30007200000070627566735F6672656564205C
:104D40002B20636C656E203C3D203078666666667D
:104D500000000000CC01002069705F726561737310
:104D60005F70627566636F756E74203E3D20706281
:104D70007566735F66726565640000002DE9F04733
:104D80001D4F89460646002400221346114615464B
:104D9000786822E0D0F814C0D6F80C80C4450BD156
:104DA000D0F818C0D6F81080C44505D1B0F80CC0B2
:104DB000B6F80480C44509D06D1C2AB190F81FC014
:104DC00092F81F80C44501D802461946D0F800C0A9
:104DD000BCF1000F00D0034660460028DAD11AB1BA
:104DE0001046FFF7FFFE04444C4501DA012DCBDCF1
:104DF0002046BDE8F0870000CC01002070B50948CE
:104E0000002544680BE0E07F20B1401EE077254696
:104E1000246804E0204624682946FFF7E3FE002CBE
:104E2000F1D170BDCC01002070B50C46006841F294
:104E30003021451816462868C10732D1800730D581
:104E4000B2F10A0671D414F8010B14F8011B0A29F7
:104E50006BD1012869D114F8010B010214F8010B80
:104E60000843010214F8020B0843010214F8010C74
:104E7000084301F0D9FF6968814256D114F8010B4B
:104E8000010214F8010B0843010214F8020B084355
:104E9000010214F8010C084301F0C6FFA968814221
:104EA00043D12868010724D5C10601D5042100E0BB
:104EB0000621761A39D414F8012B14F8013B8B42E1
:104EC00033D1022A31D114F8011B0A0214F8011B54
:104ED0001143AA898A4228D1C1060AD414F8011BB9
:104EE000AA7B8A4221D114F8011BC0F340128A42E6
:104EF0001BD1C00718D0B61F17D414F8010B14F833
:104F0000011B062911D103280FD1207801026078F6
:104F100008430102A07808430102E078084301F049
:104F200083FF6968814200D10EB1002070BD01206D
:104F300070BD2DE9F0411646006841F23022841818
:104F400035682068C20725D1820723D50A2D1EDBCC
:104F5000012001F8010B0A2008704F1C606801F065
:104F600063FF010E3970010C7970010AB970F87095
:104F7000A06801F059FF010E3971010C7971010A25
:104F800007F8061F791C0A3D01F8010B02E020F02A
:104F9000020020602268100722D5D00601D5042027
:104FA00000E00620854218DB022201F8012B01F8FF
:104FB000010BA289120A01F8022B227B01F8012CB5
:104FC0002278D20607D4A27B01F8012B2278C2F303
:104FD000401201F8012B2D1A02E022F00800206097
:104FE0002068C20716D0062D11DB032001F8010B43
:104FF000062008704F1C606801F016FF010E397022
:10500000010C7970010AB970F870AD1F02E020F050
:10501000010020603068401B3060BDE8F08130B591
:10502000016841F23020084401F5915241F25023C9
:1050300019440368DC0709D09C0707D50C68E5070D
:1050400004D1A40702D523F00103036012781207EC
:105050000ED51A461B070BD4D30609D40B681C07C0
:1050600006D5DB0604D542F01802026089898181E9
:105070000068C10703D1810701D50A2100E00021A2
:10508000020705D5C20601D5042202E0062200E08F
:1050900000221144C00700D00620084430BD41F270
:1050A00004221044FDF77CBE70B5046841F2502024
:1050B000261841F230202518206A410306D520F435
:1050C000802020622121204602F04EFF00231A4654
:1050D0001946204605F024FC204605F003FC204636
:1050E0006968B268BDE87040FDF7D2BC0068016A2B
:1050F0008A0305D521F400310162212102F040BF6D
:105100007047000070B5014641F204200D1848F2C6
:1051100021002960E8811448686001F5915401F587
:1051200092562846FDF766FE6420E875206840F038
:105130000200410861F3000040F0080020602D20CB
:10514000A0810F21A173206840F02000206030680A
:10515000B17340F00200420862F3000040F0080022
:1051600040F02000306070BD4C31010841F2042352
:105170001844FDF749BE41F204210844FDF7C8BEBA
:1051800041F204210844FDF7EFBE2DE9FF4F81B045
:105190000C46019841F23021164600684FF0000895
:1051A000471820CF97E8070082463F1F8B4691465D
:1051B000E80735D1A80733D560780A2830D10A2E00
:1051C0002EDB207801282BD1A078E1780A3E41EA35
:1051D0000021207940EA012001026079084301F0B2
:1051E00023FE0090A0790102E07908430102207AB1
:1051F00008430102607A0A34084301F015FE04995D
:105200004FF0020811B125F0020509E039684A069D
:1052100002D5009A02B19246090601D500B1834633
:105220003A68100722D56178042901D006291DD1DA
:105230008E421BDB2078022818D1A078761A030250
:10524000E07848F008081843049B241D63B9062938
:1052500004D02D281ED037281CD005E014F8011BDF
:105260002D2814F8013B07D025F00805D00702D0FF
:105270006078062815D0B4E0B87B25F01005884288
:1052800003D9484661F317408146002BEED125F043
:105290002005EBE7494660F30F0145F0100589460C
:1052A000E4E7062E16DB2078032813D1A078B61F7A
:1052B0000102E07808430102207908430102607985
:1052C000A41D084301F0B0FD049948F0010811B194
:1052D00025F0030585E0397849063ED5E8B38246D6
:1052E0007FE0611C227811F8010B022859D3361A8D
:1052F00057D40C18A41E012A11D0022A02D0032A66
:105300006FD146E0397809074BD45FEA087148D479
:10531000062801D0042844D148F0080060E03A682B
:10532000D30701D192073CD45FEA887239D40A28A6
:1053300037D111F8010B25F00105020211F8010B1C
:105340001043020211F8020B1043020211F8010C83
:105350000291104301F068FD00E042E018B1397895
:10536000490600D5824602980078020202984178E8
:1053700011438278C07842EA012240EA022001F01B
:1053800053FD18B13978090600D5834648F002006C
:1053900026E03A78D20704D15FEAC87201D1062824
:1053A00003D0002005B0BDE8F08F08784A7825F0DA
:1053B000020542EA0022887840EA02200202C87808
:1053C000104301F031FD20B13978490601D58246FC
:1053D00002E0BAF1000F01D045F0010548F00100EC
:1053E0008046022EBFF67DAF0198007C092803D0CD
:1053F000C7F80C9087E8200C0120D3E710B50446CD
:1054000041F204202044FDF7C3FD206A40F400303F
:10541000206210BD41F204210844FDF779BD2DE959
:10542000F05F80460C46006841F23021471816466E
:1054300020CF97E8070081463F1F8A469346E8073A
:105440002FD1A8072DD560780A282AD10A2E28DB6B
:105450002078012825D1A0780A3E0102E07808438F
:1054600001022079084301026079A41D084301F07C
:10547000DBFC7968814259D114F8010B010214F860
:10548000010B0843010214F8020B0843010214F84F
:10549000010C084301F0C8FCB968814246D125F0EF
:1054A00002053868010724D56178C20601D50422B7
:1054B00000E0062291421CD1B1421ADC2278022A75
:1054C00017D1761AA1780A02E178241D1143BA890E
:1054D0008A422BD1C1060AD414F8011BBA7B8A4236
:1054E00024D114F8011BC0F340128A421ED125F0CA
:1054F0000805C00719D06078062816D1062E14DBDF
:105500002078032811D1A078B61F0102E078084363
:1055100001022079084301026079084301F084FC0C
:105520007968814202D125F0010516B10020BDE85D
:10553000F09F98F81000092801D087E8200E01207C
:10554000F5E72DE9FF4F066841F2502091B006EBD8
:10555000000A06F592500F90139888460225002104
:105560000768CAF80010CAF80410CAF80810CAF888
:105570000C1006F591594446CDF828805BE10220D5
:105580000D900A980190022F04DB4178022901D383
:10559000B94203DD1FFA87FB00273FE18B460A9BD8
:1055A00010F8022B03EB0B01A7EB0B070A91012A62
:1055B00004D0022A79D0032AEFD187E00F99097825
:1055C0008907EAD59AF80010C907E6D1BBF10A0F9E
:1055D000E3D110F8011B10F8012B42EA012210F868
:1055E000021B41EA02210A0210F8011C009011433B
:1055F000084601F019FC0B90D9F8081081421BD025
:1056000018B199F80000000618D403200D901498E2
:10561000A0B90098001F0090084601F005FC014663
:10562000020E0098027000980A0C42700A0A8270FA
:10563000C170001D009001E000B9F1B1009800991F
:1056400000784A7842EA0022887840EA0220CA7844
:10565000091D42EA0020009101F0E6FB0290D9F812
:105660000410814225D018B199F8000040061DD4DD
:1056700003200D90149838B11BE0D9F8000020F0F9
:105680000401C9F80010C9E00098001F0090084606
:1056900001F0CAFB0146020E0098027000980A0C45
:1056A00042700A0A8270C17003E058E00298C9F89B
:1056B0000400DAF8000040F00201CAF800100B986C
:1056C000CAF808000298CAF804009AE00F9909780D
:1056D000C90770D09AF8001089076CD4BBF1060F87
:1056E00069D110F8011B0A0210F8011B114310F8D0
:1056F000022B42EA012210F8011C009041EA02212B
:10570000084601F091FB0B90D9F80810814219D09E
:1057100018B199F80000000617D403200D901498D2
:1057200098B90098001F0090084601F07DFB0146E3
:10573000020E0098027000980A0C42700A0A8270E9
:10574000C17002E008B9002997D0DAF8000040F0F3
:105750000101CAF800100B98CAF8080051E00F992F
:10576000097809075AD5BBF1060F02D0BBF1040F27
:1057700054D110F8011B0A0210F8011B11432D2906
:1057800004D037294AD1BBF1040F47D1DAF8002001
:10579000BBF1060F42F00802CAF80020AAF80C106C
:1057A0000AD042F010000F228AF80E2040F02001AB
:1057B000CAF800102DE031E00F9A10F8011B927B1F
:1057C0008A4205D203230D93149B0BB900F8012CD8
:1057D00010F8012B6AB10F9B1B789B0609D4032399
:1057E0000D93149B2BB999F80030C3F3401300F8C4
:1057F000013C8AF80E10DAF8000062F34510CAF88E
:1058000000000D98022804D0032805D0042805D0F4
:1058100008E0022D0FD105E01498B0B1042D01D09D
:10582000042544460198844204D001465A46204645
:10583000FAF780FD5C44002F7FF4A1AE042D2DD03B
:10584000DAF80000C10706D028E0042DF3D0022DBD
:10585000E8D10325E5E7800720D4D9F80000410707
:105860001CD51499D1B93178890717D4022D05D1E7
:1058700020F0040103254446C9F8001003202070DD
:1058800006206070D9F8080001F0CEFA010EA17070
:10589000010CE170010A21716071A41D1398A4EB41
:1058A0000801016015B02846BDE8F08F30B50068EA
:1058B00041F2302200F5915183180A6800F59254A4
:1058C000D50701D1950707D52468E50701D1A407BD
:1058D00002D542F0040201E022F004020A604C68A2
:1058E00014B942F040020A608A68002A0A6802D1AC
:1058F00042F080020A60D1E90251C3E90251C3E9D2
:105900000024016ACA034FF0000100D4596000F579
:105910009050016541658165C16530BD2DE9F0415B
:105920008046056841F250202C1841F230202F1893
:10593000206805F59156C10703D1800701D4B068EE
:10594000A0603868C1070FD180070DD43068C10747
:1059500001D1800708D5706830B134A003F0D8FDBC
:105960003CA1D8F800005CE0786810B1A06838B1BC
:1059700013E03EA003F0CCFD3CA1D8F8000050E0BD
:10598000287880071ED4434801F04EFA0146A060F3
:1059900041A004F085F9A068A0B101F045FA7F218B
:1059A000B1EB106F07D00E21B1EB107F03D00F21A8
:1059B000B1EB107F06D146A0A16803F0A9FD50A16C
:1059C00028462EE02078A37BC0F34012C0F3C0012C
:1059D000284604F0A5FF7868FDF79AFE0346A26802
:1059E0002846796804F072FFC0B1284604F084FFAD
:1059F000A0B1786870604AA0796803F009FFA168D7
:105A000011B14DA003F004FF2121284602F0D4FA81
:105A1000286A40F480202862BDE8F081D8F80000B0
:105A20004BA1BDE8F041FFF73ABB0000506565723D
:105A3000207265667573656420746F206167726596
:105A40006520746F206F7572204950206164647204
:105A50006573730052656675736564206F75722097
:105A6000495020616464726573730000436F756C04
:105A700064206E6F742064657465726D696E652054
:105A80006C6F63616C20495020616464726573734C
:105A9000000000004040400A436F756C64206E6F48
:105AA000742064657465726D696E652072656D6FD2
:105AB000746520495020616464726573733A206490
:105AC000656661756C74696E6720746F2025490086
:105AD00050656572206973206E6F742061757468FB
