:020000040800F2
:10000000102E01208102000833210008091F00087A
:1000100031210008E10500081D2A00080000000049
:10002000000000000000000000000000C101000806
:10003000A1060008000000001D020008612300085E
:100040009B0200089B0200089B0200089B0200081C
:100050009B0200089B0200089B0200089B0200080C
:100060009B0200089B0200089B0200089B020008FC
:100070009B0200089B0200089B0200089B020008EC
:100080009B0200089B0200089B0200089B020008DC
:100090009B0200089B0200089B0200089B020008CC
:1000A0009B020008012500089B0200089B02000833
:1000B0009B0200089B0200089B0200089B020008AC
:1000C0009B0200089B0200089B0200089B0200089C
:1000D0009B0200089B0200089B0200089B0200088C
:1000E0009B0200089B0200089B0200089B0200087C
:1000F0009B0200089B0200089B0200089B0200086C
:100100009B0200089B0200089B0200089B0200085B
:10011000D52500089B0200089B0200089B020008EE
:100120009B020008E50500089B0200089B020008EE
:100130009B0200089B0200089B0200089B0200082B
:100140009B0200089B0200089B0200089B0200081B
:100150009B020008F10500089B02000835290008F1
:100160009B0200089B0200089B0200089B020008FB
:100170009B0200089B0200089B0200080000000090
:100180009B0200089B0200089B0200089B020008DB
:100190009B0200089B0200089B0200089B020008CB
:1001A0009B0200089B0200089B020008DFF80CD0AD
:1001B00000F08AF90048004789780008102E0120D5
:1001C0002C4B19680868B0E8F04F80F30988BFF33A
:1001D0006F8F4FF0000080F311887047000000001F
:1001E00008480068006880F308884FF0000080F33A
:1001F000148862B661B6BFF34F8FBFF36F8F00DF15
:1002000000BF00BF08ED00E0DFF80C00016841F41A
:1002100070010160704700BF88ED00E0EFF30980D6
:10022000BFF36F8F134B1A681EF0100F08BF20ED3D
:10023000108A20E9F04F106009B44FF0500080F3AD
:100240001188BFF34F8FBFF36F8F12F03FF94FF05C
:10025000000080F3118809BC19680868B0E8F04F05
:100260001EF0100F08BFB0EC108A80F30988BFF3AE
:100270006F8F7047C4140020EFF3058070470000B3
:100280000648804706480047FEE7FEE7FEE7FEE730
:10029000FEE7FEE7FEE7FEE7FEE7FEE715240008BF
:1002A000AD0100082DE9F05F0546002092469B460F
:1002B00088460646814640241BE02846414647467C
:1002C000224600F0B9F853465A46C01A914110D35D
:1002D00011461846224600F0A0F82D1A67EB0108D7
:1002E0004F4622460120002100F097F817EB000945
:1002F0004E41201EA4F10104DFDC484631462A4667
:100300004346BDE8F09F00000048704718410108CF
:100310000649074A0868504343F23902104408600E
:10032000400870470149086070470000101600201F
:100330006D4EC64110B5431A934209D283188818EE
:1003400003E010F8011D03F8011D521EF9D210BD83
:1003500040EA01039B0703D009E008C9121F08C047
:10036000042AFAD203E011F8013B00F8013B521EC7
:10037000F9D210BDD2B201E000F8012B491EFBD228
:1003800070470022F6E710B513460A4604461946A0
:10039000FFF7F0FF204610BD30B505462A460B4654
:1003A00012F8010B13F8014B08B1A042F8D01CB1B0
:1003B000002802D06D1CF1E7284630BD421C10F821
:1003C000011B0029FBD1801A704710B5002200E004
:1003D000521C835C8C5CA34201D1002BF8D1D8B2B3
:1003E000E1B2401A10BD30B504460020034600E0DB
:1003F0005B1C934203D2E05CCD5C401BF8D030BD67
:1004000070B5064602F040FB046805460A2200214A
:10041000304600F021F82C6070BD202A04DB203A21
:1004200000FA02F1002070479140C2F1200320FA47
:1004300003F3194390407047202A04DB203A21FA45
:1004400002F00021704721FA02F3D040C2F12002ED
:1004500091400843194670472DE9F04791460F46F1
:1004600080460446002614F8015B2DB1FFF74CFFCF
:100470000068405DC007F6D12B2D02D02D2D18D07D
:10048000641E4A463946204600F030F827B13968E4
:10049000A14201D1C7F8008071054FF002040BD5CD
:1004A0004042002803DD02F0EFFA0460A007BDE837
:1004B000F08746F48066E4E70028F8DA02F0E4FA10
:1004C00004606FF00040F2E7064C074D06E0E0687C
:1004D00040F0010394E8070098471034AC42F6D38B
:1004E000FFF768FEF4420108144301082DE9F05FAC
:1004F00082460078002715468B460AF10104B9466A
:10050000302801D09DB113E014F8010B01277828A1
:1005100003D0582801D045B10AE00DB1102D07D104
:100520000027102514F8010B02E0082500E00A2539
:100530000026B0460EE005FB080005FB06F101278A
:1005400001EB10461FFA80F8B6F5803F00D3B9469C
:1005500014F8010B294600F018F80028EBDABBF17B
:10056000000F05D00FB1641E00E05446CBF80040E8
:10057000B9F1000F06D002F087FA02210160C81E0F
:10058000BDE8F09F48EA0640FAE73A2800D2303842
:1005900020F02002412A01D3A2F13700884201D382
:1005A0004FF0FF30704730B58C1810F8012B12F067
:1005B0000F0301D110F8013B120906D110F8012BED
:1005C00003E010F8015B01F8015B5B1EF9D101E06B
:1005D00001F8013B521EFBD1A142E6D3002030BD01
:1005E000FEE70000014800F0F7B90000B429002040
:1005F000014800F0F1B90000142A00200168182316
:10060000CAB2103AB2FBF3F2054B6FF30901032AA9
:100610009B5CC36500D9091D8165084670470000D1
:10062000EC3B010810B5014600208B698A6A4FF047
:10063000C07453B1B3F5005F15D072B1012A0CD06C
:10064000022A0AD0032A09D104E01AB1012A06D0ED
:10065000022A03D1C96AC90100D5012010BDC96AA7
:10066000A142FAD010BD002AF7D0012AF2D0022A06
:10067000F3D0032AF3D010BD30B50468256825F403
:1006800080252560046863608368402B036803D07D
:1006900099600068C26030BD9A600068C16030BD7A
:1006A00070477047002229B101291DD002291ED0B0
:1006B0004FF440720B2800D9001D0E490B6823F43B
:1006C00040730B600B6813430B600A6822F0F8025A
:1006D0000A600A68022303EBC00002430A6008684C
:1006E00040F48030086070474FF48072E2E74FF4C6
:1006F0000072DFE7103C02401348016889050FD5FE
:10070000016821F400710160016841F40061016039
:10071000016821F400610160016841F40071016029
:10072000016849050FD5016821F480610160016805
:1007300041F480510160016821F480510160016839
:1007400041F4806101607047003C02400E4A13682A
:1007500023F44073136003290DD0012911680FD0D1
:1007600041F40041116011684FF4803343EA0020E6
:10077000014311607047116848F204031943F1E71F
:1007800041F00401EEE70000103C0240064A136805
:1007900023F44073136013681360136843F001037C
:1007A0001360017070470000103C0240094910B509
:1007B0000C6824F440740C600C6844F440740C60C1
:1007C0000C6844F001040C600260BFF36F8F43605B
:1007D00010BD0000103C0240074A136823F4407328
:1007E0001360136843F480731360136843F00103CC
:1007F0001360018070470000103C0240074A1368F4
:1008000023F440731360136843F400731360136898
:1008100043F001031360016070470000103C024088
:100820001C490868C2061C4805D5C26942F010027E
:10083000C26110220A600A68920605D5C26942F0B8
:100840000802C26120220A600A68520605D5C26900
:1008500042F00402C26140220A600A68120605D50D
:10086000C26942F00202C26180220A600A68D205AF
:1008700006D5C26942F00102C2614FF480720A607B
:100880000A68920705D5C26942F02002C2610220BF
:10089000086070470C3C0240082D002070B51149DB
:1008A00004460020C86100F0A5FB06460E4D09E095
:1008B000601C07D024B100F09DFB801BA04201D931
:1008C000032070BD2868C003F2D42868C00701D097
:1008D00001202860286810F4F970F2D0FFF7A0FF1B
:1008E000012070BD082D00200C3C024070B586B080
:1008F00000240D46059403F0A5F9064600F074FAAD
:10090000022002960094CDE9035005A9684600F044
:10091000D5F920B100F020FA002006B070BD00F03B
:100920001BFA0120F9E72DE9F0410446876D00F03C
:1009300061FB064694F835000025022806D0802089
:10094000606584F834500120BDE8F08120680168BA
:1009500021F0160101602068416921F080014161A8
:10096000206C08B9A06C20B12068016821F0080152
:1009700001602068016821F0010101600BE000F0D6
:1009800039FB801B052806D92020606504F8345FF8
:1009900003206070D8E720680068C007EFD194F8A2
:1009A0005C103F208840B86004F8345F012060701C
:1009B0000020C9E790F83510022903D08021416555
:1009C00001207047052180F835100068016821F08A
:1009D00001010160002070472DE9F84304464FF003
:1009E0000009CDF8009063484FF41651A56D0068DA
:1009F000B0FBF1F72E6894F85C10082000FA01F1C2
:100A000031420FD021680A6852070BD50A6822F0DC
:100A100004020A6094F85C108840A860606D40F0A1
:100A20000100606594F85C104FF0010808FA01F0CD
:100A3000304208D021684969090604D5A860606D74
:100A400040F00200606594F85C1004208840304259
:100A500008D021680968890704D5A860606D40F056
:100A60000400606594F85C1010208840304218D073
:100A700021680968090714D5A8602068016849033E
:100A800004D50068000308D5A16C07E00168C9051A
:100A900003D4016821F008010160216C09B12046EE
:100AA000884794F85C1020208840304231D021687B
:100AB0000968C9062DD5A86094F835000528206876
:100AC000016806D0490347D5006800031DD4616C56
:100AD0001CE021F0160101602068416921F08001CD
:100AE0004161206C08B9A06C20B12068016821F038
:100AF0000801016094F85C103F208840A86084F8E9
:100B0000349084F83580216D1FE0E16B09B12046F7
:100B10008847606D00282BD0606DC00714D0052079
:100B200084F835002068016821F001010160009817
:100B3000401C0090B84203D820680068C007F6D176
:100B400084F8349084F83580E16C002910D001B02D
:100B50002046BDE8F04308470168C905D5D40168BF
:100B600021F01001016084F8349084F83580CCE7DE
:100B7000BDE8F883C01400202DE9F041044600F0E0
:100B800039FA06465CB1002584F83450022084F816
:100B900035002068016821F0010101600DE00120AD
:100BA000BDE8F08100F026FA801B052805D9202039
:100BB0006065032084F83500F2E720680068C0070C
:100BC000F0D12268116820480140D4E9010318439C
:100BD000D4E903363343184363691843A3691843C0
:100BE000E3691843236A18430843616A042903D15F
:100BF000D4E90B1319430843106020684069666A02
:100C000020F0070130460E43012704280CD1A06ACA
:100C10000643E06A40B12046FFF704FD20B14020C2
:100C2000606584F83570BAE7206846612046FFF7B2
:100C3000E5FC94F85C203F2191408160656584F873
:100C400035700020ACE700003F8010F02DE9F04146
:100C50000446866D90F83400002501280DD001204F
:100C600084F8340094F835700020012F07D084F800
:100C7000340002252846BDE8F0810220FBE7022768
:100C800084F8357060652046FFF7F6FC94F85C1038
:100C90003F208840B0602068016841F01601016083
:100CA000206C20B12068016841F0080101602068D3
:100CB000016841F001010160DCE700002DE9F04727
:100CC000044623480F46017E01290AD001218046AF
:100CD00001764CF250394846FFF7E0FD020003D0A0
:100CE00030E00220BDE8F0874FF0FF303860206828
:100CF000184D012801D0A6681DE0207C6168FFF72F
:100D000025FD4846FFF7CAFD0246286848F204015F
:100D10008843286014E0217C3046FFF7C3FC484636
:100D2000FFF7BCFD0200286820F0FA00286001D01F
:100D30003E6005E0761CD4E902100844B042EAD8CF
:100D4000FFF7DAFC002188F818101046CAE7000007
:100D5000082D0020103C02400348016841F000418A
:100D60000160002070470000103C02402DE9F04770
:100D70001B4E05461446307E1F468946012808D082
:100D8000012030764CF250384046FFF787FD18B10D
:100D900014E00220BDE8F0879DB1012D16D0022D90
:100DA00019D022463B464846FFF700FD4046FFF774
:100DB00075FD0C490A6822F001020A6000213176B3
:100DC000E8E7E1B24846FFF7E1FCEFE7A1B24846A9
:100DD000FFF702FDEAE721464846FFF70FFDE5E78A
:100DE000082D0020103C0240074900200A68002A14
:100DF00009DA054A054B0C3A1360054B1360096884
:100E0000002900DA01207047103C024023016745A9
:100E1000AB89EFCD2DE9F84F00224FF001080325F3
:100E20004FF00F0E0B6808FA02F42340A3426ED174
:100E30004E68012E05D0022E03D0112E01D0122EA5
:100E400012D186684FEA420C05FA0CF7BE43CF6810
:100E500007FA0CF7374387604668A6430C79C4F35A
:100E60000014944034434460C668570005FA07FCF8
:100E70008C6826EA0C06BC403443C4604C68022CE3
:100E800001D0122C13D1D40800EB8404A346D4F86B
:100E9000209054074FEAD46A0EFA0AF629EA0609A6
:100EA0000E6906FA0AF646EA0906CBF820600468DD
:100EB0000E7924EA0C0406F00306BE4026430660C1
:100EC0004C68E4006FD53B4C266846F480462660AB
:100ED000246822F0030604F480440094364C344421
:100EE000A446D4F808489607360F0EFA06F7BC4316
:100EF000324FB84201D100272EE0314FB84201D124
:100F0000012729E02F4FB84202D1022724E04AE00E
:100F10002D4FB84201D103271EE02C4FB84201D11A
:100F2000042719E02A4FB84201D1052714E0294FC0
:100F3000B84201D106270FE0274FB84201D1072759
:100F40000AE0264FB84201D1082705E0244FB842F5
:100F500001D1092700E00A27B7402743CCF80878D9
:100F6000204E34684F689C43FF0300D51C43346017
:100F70001C4E361D34684F689C43BF0300D51C438C
:100F80003460184E083634684F689C43FF0200D521
:100F90001C433460134E0C3634684F689C43BF02C8
:100FA00000D51C433460521C102AFFF43BAFBDE84F
:100FB000F88F000044380240003001400000024039
:100FC0000004024000080240000C024000100240F1
:100FD0000014024000180240001C024000200240A1
:100FE00000240240003C01400AB1816170470904BD
:100FF000FBE700000148806870470000B41400203F
:10100000024881680278114481607047B41400205E
:101010000B4810B5016841F400710160016841F4AA
:1010200080610160016841F480710160032000F07B
:1010300089F8002000F006F800F03EF8002010BD0E
:10104000003C024010B5014688B00022192000F093
:1010500059F8192000F048F813480024016841F0BD
:1010600001010160006805A900F0010006906846D2
:1010700000F04CF900F07AF90C494000B0FBF1F1B6
:101080000C480B4A491E026040F2E732C0E90324D3
:10109000C0E9011400F05AFB10B1012008B010BDE6
:1010A000044800F06FFBF9E74438024040420F006B
:1010B00000000140C82C00200A4808B5016841F42E
:1010C00080410160006800F4804000900548001FE6
:1010D000016841F080510160006800F0805000908C
:1010E00008BD000044380240002809DB00F01F0260
:1010F000012191404009800000F1E020C0F800117A
:1011000070470000F0B40E4B1B680C46C3F302237B
:10111000C3F10705042D00D90425191D072901D2A3
:10112000002300E0DB1E012606FA05F1491E2140DE
:1011300099409E40761E16403143F0BC01F094BCAD
:101140000CED00E0064900F0070208684FF6FF03C7
:10115000184040EA0220034A10430860704700002C
:101160000CED00E00000FA052DE9F843174801688E
:1011700041F0805101600068154F00F08050012659
:1011800000903E64FFF736FF05464FF47A78114C25
:1011900005E000BFFFF72EFF401B40450DD86068FB
:1011A000C003F7D57E64FFF725FF0546464607E0F6
:1011B000FFF720FF401BB04202D90320BDE8F883AF
:1011C00060688003F4D50020F8E700004038024052
:1011D00000000E42007000402DE9F0470E46050069
:1011E00065D0DFF81481D8F80000F7B200F00F00E6
:1011F000B04207D288F80070D8F8000000F00F0065
:10120000B04254D128683D4C810712D5400703D520
:10121000206840F4E05020602878000703D520685B
:1012200040F4604020602068A96820F0F000084386
:1012300020602878C0072DD0304968680839012817
:1012400012D0022813D0032811D009688907002979
:101250002DDA216821F0030101432160FFF7CAFE66
:10126000814641F2883A0EE009688903EFE7096890
:101270008901ECE7FFF7BEFEA0EB0901514502D959
:101280000320BDE8F0872068696800F00C00B0EB2F
:10129000810FEFD1D8F80010404601F00F01B142A4
:1012A00007D90770006800F00F00B04201D001209C
:1012B000E7E72878400705D52068E96820F4E05082
:1012C000084320602878000706D52068296920F4A3
:1012D000604040EAC100206000F058F82168084AE8
:1012E000C1F30311515CC840064908600648006814
:1012F000FFF7A8FE0020C4E7003C02400838024087
:10130000F43B0108C0140020B81400200F22026032
:101310000C4A136803F003034360136803F0F003FF
:101320008360136803F4E053C36012684FF4E05322
:1013300003EAD20202610448006800F00F0008606E
:101340007047000008380240003C0240044805494C
:1013500000680968044AC1F38221515CC8407047A3
:10136000C014002008380240043C01080448054924
:1013700000680968044AC1F34231515CC8407047B3
:10138000C014002008380240043C0108154810B57C
:10139000006810F00C02144813D04110042A0FD03A
:1013A000082A0ED10F4C241F2268236802F03F0246
:1013B0005B0207D52068C0F38810A0FB010106E09E
:1013C000084610BD2168C1F38811A1FB000100236C
:1013D000FEF768FF2168C1F30141491C4900B0FBD9
:1013E000F1F010BD083802400024F4002DE9F84F58
:1013F00004006ED02078DFF83C93C007A9F1040503
:101400004AD009F104000168C1F38101012908D023
:101410000068C0F3810002280AD1D9F80000400218
:1014200006D52868800337D560680028E1D033E00E
:101430006068B0F5803F10D0B0F5A02F286810D0BC
:1014400020F480302860286820F4802028606068BC
:10145000A8B1FFF7CFFD06460DE0286840F48030C4
:10146000F4E740F480202860F7E700BFFFF7C2FDF3
:10147000801B642873D828688003F7D50CE0FFF739
:10148000B9FD064605E000BFFFF7B4FD801B6428E8
:10149000F0D828688003F7D42078DFF89C82800792
:1014A0004FF0000A3ED5A348001D016811F00C0F53
:1014B00008D00068C0F3810002280BD1D9F80000E1
:1014C000400207D42868800716D5E068012800D1BB
:1014D00012E02BE1E068B8B10120C8F80000FFF786
:1014E00089FD064605E000BFFFF784FD801B02284A
:1014F000C0D828688007F7D52868216920F0F8004F
:1015000040EAC10028600DE0C8F800A0FFF772FDB6
:10151000064604E0FFF76EFD801B02281FD82868EE
:101520008007F7D42078000722D5824E834861696E
:10153000703671B101210160FFF75CFD074604E0E0
:10154000FFF758FDC01B022809D830688007F7D57F
:101550000EE0C0F800A0FFF74DFD074605E082E071
:10156000FFF748FDC01B02287DD830688007F7D4FC
:101570002078400768D5DFF8BCB100270BF13C0BA1
:10158000DBF80000C0000BD4DBF8001041F0805104
:10159000CBF80010DBF80000012700F0805000902D
:1015A000674E3068C00510D4306840F480703060F9
:1015B000FFF720FD009005E0FFF71CFD0099401AA1
:1015C000022850D83068C005F6D55A4EA0686C364F
:1015D00001280FD00528306810D020F001003060BD
:1015E000306820F004003060A068B8B1FFF702FD59
:1015F00000900FE0306840F00100F4E740F0040094
:101600003060F7E7FFF7F6FC0099411A41F28830A5
:10161000814266D830688007F4D50EE0FFF7EAFC17
:10162000009007E0FFF7E6FC0099411A41F288308C
:10163000814256D830688007F4D42FB1DBF800100F
:1016400021F08051CBF80010A069C8B33949091DB9
:101650000968C1F3810102294AD00228504607D007
:10166000C8F8600000E03CE0FFF7C4FC04463BE043
:101670004746C8F86000FFF7BDFC064605E000BF1E
:10168000FFF7B8FC801B02282BD828688001F7D40C
:10169000D4E907010843A16A2A4A490802EB01413B
:1016A000626A41EA8211084394F82C1040EA016111
:1016B000C9F8001001203866FFF79CFC044606E0DC
:1016C00036E000BFFFF796FC001B022809D8286807
:1016D0008001F7D52CE000BFFFF78CFC001B02282F
:1016E00002D90320BDE8F88F28688001F4D41FE0F8
:1016F0000128F7D0D9F80000E26900F48001914296
:1017000014D1226A00F03F0191420FD147F6C07117
:10171000626A0140914209D1A26A00F440319142CB
:1017200004D1E16A00F07060884201D00120D9E75D
:101730000020D7E70438024000004742800E4742AD
:10174000007000400000FFFF7047704710B50400B4
:1017500003D094F83D0010B107E0012010BD002037
:1017600084F83C00204600F00CF8022084F83D008C
:10177000211D206800F0CAFE012084F83D000020F1
:1017800010BD70470168CA6842F00102CA60006873
:10179000816801F00701062903D0016841F00101C9
:1017A000016000207047704770B504460068016909
:1017B0004FF00005C943890715D4C168C94389079B
:1017C00011D4E91E0161012020772068806980071B
:1017D000204602D0FFF7E7FF04E000F098F820462B
:1017E00000F096F8257720680169C943490717D4A6
:1017F000C168C943490713D46FF004010161022095
:1018000020772068806910F4407F204602D0FFF7DF
:10181000CAFF04E000F07BF8204600F079F8257755
:1018200020680169C943090716D4C168C94309077B
:1018300012D46FF008010161042020772068C0698C
:101840008007204602D0FFF7AEFF04E000F05FF80B
:10185000204600F05DF8257720680169C943C90674
:1018600017D4C168C943C90613D46FF010010161D0
:10187000082020772068C06910F4407F204602D0FD
:10188000FFF791FF04E000F042F8204600F040F836
:10189000257720680169C943C90708D1C168C943D0
:1018A000C90704D1891E0161204600F033F8206881
:1018B0000169C943090609D4C168C943090605D4A9
:1018C0006FF0800101612046FFF73EFF206801694B
:1018D000C943490609D4C168C943490605D46FF014
:1018E00040010161204600F01FF820680169C943EA
:1018F00089060BD4C168C943890607D46FF020015B
:1019000001612046BDE87040FFF71FBF70BD704702
:101910007047000000680349884201D1FFF770BB9F
:101920007047000000000140704708B590F838107B
:10193000012907D0012180F8381090F839102129A9
:1019400002D006E0022008BD01684A6942F0800228
:101950004A6190F83A100022222911D101680B68DF
:101960004B680093CB6843F48073CB6001684B698C
:1019700043F001034B6101684B6943F040034B6145
:1019800080F83820002008BD10B504460068416981
:1019900094F83920C1F3C011212A0BD151B141690A
:1019A00021F080014161206B08B1FEF7BCFF2046A9
:1019B00000F074FE2068416994F83A20C1F3801168
:1019C000222A0BD151B1416921F040014161606B84
:1019D00008B1FEF7A8FF204600F052FE002010BD1F
:1019E0007047000070B5026804461068D1685369FA
:1019F00010F00F0F52D003F0010501F490762E4342
:101A00005FD0C20705D0CA0503D5E26B42F00102E0
:101A1000E263420705D5DA0703D0E26B42F0020227
:101A2000E263820705D5DA0703D0E26B42F00402D5
:101A3000E263020707D501F020022A4303D0E26BDC
:101A400042F00802E263E26B002A33D0800604D53C
:101A5000880602D5204600F02AFE20684069E16B26
:101A6000C0F38010090700D428B3204600F008FE18
:101A70002068416949061AD5416921F04001416158
:101A8000606BA0B11B490165606BFEF793FF0028F6
:101A900010D0606B016DBDE870400847830610D51B
:101AA0008B060ED52046BDE8704000F000BE2046F3
:101AB000FFF796FF70BD2046FFF792FF0020E0631E
:101AC00070BD030606D50B0604D52046BDE8704060
:101AD00000F0CCBE4006F3D54806F1D5D1682046CB
:101AE00021F04001D160202184F8391000F0D8F9AC
:101AF00070BD0000E125000870B5040004D094F822
:101B00003900002510B106E0012070BD84F838507E
:101B1000204600F023F8242084F839002068C168AA
:101B200021F40051C160204600F00CFE20680169DC
:101B300021F4904101612068416921F02A0141614D
:101B40002068C16841F40051C160E563202084F839
:101B5000390084F83A00002070BD00002DE9F04102
:101B600086B0064614216846FEF70BFCDFF80CC170
:101B700031684348022203230827424D002461456F
:101B800023D13F4910310C6844F400240C600968EB
:101B900001F400210591016841F004010160006831
:101BA00002AC00F0040005909802CDE9000201208B
:101BB00084E8890069462846FFF72CF9002211467F
:101BC0003420FFF79FFA342053E0DFF8BCC06145B2
:101BD00051D12B491431D1F800C04CF0200CC1F880
:101BE00000C0096801F020010591016841F004017D
:101BF00001600068694600F004000590C0208DE88F
:101C00001500CDE903372846FFF704F9204D1F489A
:101C10004FF4806887052860C5E90174C5E9034869
:101C20006C61AC61EC612C6228466C62FEF7A4FF2B
:101C300008B1FEF736FD7563AE631448154D783074
:101C4000E5E802074020A5E81101124845F81449CB
:101C5000AC61EC612C626C62FEF78EFF08B1FEF79E
:101C600020FD3563002204214720AE63FFF74AFAC6
:101C70004720FFF739FA06B0BDE8F081004C00407C
:101C8000303802400008024000140140286402403D
:101C9000B4290020142A0020F8B5044690F83A0030
:101CA00020283CD1C1B3BAB394F83800012836D00B
:101CB000012084F83800A162A2850025E563222076
:101CC00084F83A00636B1748D863636B164818644E
:101CD000636B1648D864606B134605650846666BEF
:101CE000216802463046091DFEF7B0FF20680168F2
:101CF0004168009184F83850C16841F48071C16036
:101D00002068416941F0010141612068416941F069
:101D1000400141610020F8BDFFE70120FBE7022000
:101D2000F9E700003B26000877260008F1250008A7
:101D300090F83A30202B22D1F9B1F2B190F8383036
:101D4000012B1CD081628285C2850021C1632222C1
:101D500080F83A2080F838100168CA6842F480722E
:101D6000CA6001684A6942F001024A610068C168BC
:101D700041F02001C160002070470120704702201F
:101D8000704700001CB504460068124988420FD114
:101D9000114800F07FFA58B169460F4800F03CFA4C
:101DA00030B1BDF8042064230C48009900F01BF802
:101DB0000B49206888420CD10849642301220C3960
:101DC000064800F010F8054901220C390348FFF7D6
:101DD000AFFF1CBD001401401C1600203429002058
:101DE000004C004070472DE9F843044690F8390054
:101DF0001F4616460D46202850D1B5B1AEB194F815
:101E0000380001284AD0012084F838004FF000083B
:101E1000C4F83C80212084F83900FFF7EBF8A68451
:101E20008146E68484F8388026E00120BDE8F88306
:101E3000E08C401EE084A0684B46B0F5805F4FF018
:101E400000024FF080012046009703D000F03FFDD4
:101E5000E8B90DE000F03BFDC8B928882168C0F35F
:101E600008004860206908B16D1C05E0AD1C03E066
:101E7000216815F8010B4860E08C0028D8D14B464A
:101E8000002240212046009700F021FD08B10320E8
:101E9000CCE7202084F839000020C7E70220C5E7FE
:101EA000704700F001B80000F8B5124800900BF040
:101EB000E9FC114C00221149606209F059FF606A87
:101EC000002816D00E4B502269460AF097F90D49AA
:101ED000606A0AF0E7FC00254FF47A76606A007DBC
:101EE000042806D0304606F06FFD6D1CADB2052DFE
:101EF000F4D3F8BD2F6EB1361C140020743D0108D8
:101F0000013D0008A31E0008FEE70000014800F0A4
:101F1000A5B900001C16002070B50546046800F045
:101F20003DF8287C092816D1206AC00202D50AA0F3
:101F300008F0B2FB2946134809F076FD607A4FF4A9
:101F40007A7110FB01F02A460E4909F06FFC206AF5
:101F500040F48010206270BD617373657274696FA4
:101F60006E206C63705F6563686F5F74696D657226
:101F70005F72756E6E696E673D3D30206661696C9B
:101F800065640000891F000801680A6AD30204D54D
:101F900022F480120A62FFF7BFBF70472DE9FC41AF
:101FA0000468054604F16406A27A002A17D094F862
:101FB000D210914213D3287C274609280CD118A0AF
:101FC00007F0ACFF1EA008F01FF9092087F82100D8
:101FD00025A1384604F06EFC002084F8D200287C4D
:101FE00009281AD1B06801AB010E8DF80410010C5C
:101FF0008DF80510010A8DF806108DF807000420F1
:10200000009014F8D32F0921501C04F80109284628
:1020100001F064FD2078401C2070BDE8FC810000C8
:102020004E6F20726573706F6E736520746F20251C
:1020300064206563686F2D726571756573747300D4
:1020400053657269616C206C696E6B20617070659C
:1020500061727320746F20626520646973636F6EB0
:102060006E65637465642E0050656572206E6F74D2
:1020700020726573706F6E64696E670070B586B0AC
:1020800014216846FEF77DF919480025016841F0E2
:1020900004010160016801F004010591016841F04B
:1020A00080010160016801F080010591016841F043
:1020B00002010160016801F002010591016841F02F
:1020C000010101600068012200F00100094E1403C3
:1020D000059021463046FEF787FF0121CDE90041FA
:1020E000CDE9021569463046FEF794FE06B070BD94
:1020F000303802400004024010B50C4C0A480C2154
:1021000020604FF4E13060600020A060E060C4E92E
:102110000401A061E0612046FFF7EEFC2068C16881
:1021200041F01001C16010BD00140140742900206D
:10213000FEE7704770B515460E4608B109A000E0ED
:102140000AA000F06DFC002405E0315D09A000F05C
:1021500067FC641CA4B2AC42F7D3BDE8704007A092
:1021600000F05EBC726563763A00000073656E64D1
:102170003A00000025303278200000000D0A0000EF
:102180001CB5104C6068C0B10F4800F083F8A0B1D6
:1021900069460D4800F040F878B1BDF804200120F0
:1021A0000099FFF7C7FF0FF0BFFFBDF904200099AA
:1021B000606808F0F1FB0FF0D7FF0A2006F004FC7E
:1021C000E0E70000081400201C16002010B590F96C
:1021D000D230002B07DD90F9D03090F9D140A342E6
:1021E00006D1002010BD03D190F8D13080F8D03056
:1021F00090F9D03000EBC303C3E9001210F9D01FEF
:102200001922491C91FBF2F302FB13110170817832
:10221000491C8170012010BD70B5044690F8D200B1
:102220000D46002818D00FF07FFF94F9D10004EB81
:10223000C000D0E90010C5E9001014F9D10F192130
:10224000401C90FBF1F201FB120020706078401EF0
:1022500060700FF089FF012070BD0000002180F840
:10226000D01080F8D11080F8D210A0F8D41080F8E7
:10227000D610074AC0F8C820C0F8CC204FEA0102A7
:1022800040F83210521CD2B2192AF9D3704700001C
:10229000F516002010B5044690F8D20008B10120D0
:1022A00010BD94F9D00094F9D11088420AD00FF0F3
:1022B0003BFF94F8D20018B994F8D10084F8D0000C
:1022C0000FF052FF002010BD09A000F0A9FB05F09F
:1022D000CFF90AA000F0A4FB0BA000F0A1FB42F292
:1022E00010740DA000F09CFB204606F06DFBF8E793
:1022F000494E4954204C5749500D0A00494E495403
:10230000204F5645520D0A004F5441205645523237
:102310002E300D0A0000000069646C652054617362
:102320006B2069732052756E6E6E696E670D0A00C0
:102330000AF056F805A000F073FB4FF47A74002001
:102340000FF0B6FF204606F03FFBF8E752544F531C
:102350002049532052554E4E494E470D0A00000069
:1023600010B5502080F31188BFF34F8FBFF36F8FEC
:1023700011F06EFA18B104494FF080500860002047
:1023800080F3118810BD000004ED00E030B593B07B
:1023900030216846FDF7F5FF14210CA8FDF7F1FF89
:1023A0001A480025016841F080510160006800F082
:1023B000805011901648016841F440410160006866
:1023C000022400F44040119001200390102004905A
:1023D000009406940820CDE90750B420CDE9090403
:1023E00004200B906846FFF701F8FEF7BDFE0CA92C
:1023F0000F2081E831004FF4A0500F90E0021090C0
:1024000005210CA8FEF7E8FE13B030BD40380240AD
:10241000007000400548016841F470010160034903
:102420004FF00060803908607047000088ED00E0E0
:1024300070B58AB014460E461D46242221A1684676
:10244000FDF778FF002C34D0218930460DF006FBD3
:10245000254800F0E5FA694624A000F0E1FA218958
:1024600024A000F0DDFA254D20896861618921A052
:1024700000F0D6FA1C4800F0D3FA1B4800F0D0FA5E
:102480001AA0616800F0CCFA174800F0C9FA0FF002
:102490004BFE606801F07CFC0FF066FE204607F002
:1024A000E3F8A87858B1322006F08EFA05F05CFA0D
:1024B00005E025B1304609F001FDFFF7F5FC0AB053
:1024C000002070BD546869732069732074686520AA
:1024D00073657276657220636F6E74656E742065C5
:1024E00063686F3A0D0A00008C41010825730D0ADC
:1024F0000000000025640D0A000000001C140020EC
:102500000148FFF751B90000C82C0020F0B502685F
:10251000254C264D264E274F274B4FF0804CA0428E
:1025200009D0604507D0A84205D0B04203D0B842D8
:1025300001D0984204D122F0700E4A6842EA0E029D
:10254000A0421BD0604519D0A84217D0B04215D088
:10255000B84213D0984211D0184DA8420ED0184D51
:10256000A8420BD0174DA84208D0174DA84205D05D
:10257000164DA84202D0164DA84203D122F4407550
:10258000CA682A434D6922F080022A4302608A68A1
:10259000C2620A688262A04201D0984201D10969F0
:1025A000016301214161F0BD0000014000040040D1
:1025B00000080040000C00400004014000400140C1
:1025C000004401400048014000180040001C004049
:1025D000002000400148FFF705BA00003429002020
:1025E00010B5806B0021C185C184FFF7F9F910BDDA
:1025F00070B5846B2068406994F83910C0F3C0103E
:102600000025212904D118B1E584204600F046F8C0
:102610002068406994F83A10C0F38010222904D150
:1026200018B1E585204600F02BF8E06B40F0100073
:10263000E0632046FFF7D4F970BD10B50146806B0A
:1026400009680968C90513D40021C1850168CA68F1
:1026500022F48072CA6001684A6922F001024A616C
:1026600001684A6922F040024A61202180F83A104C
:10267000FFF788FB10BD10B5806BFFF7B3FB10BDF3
:102680000168CA6822F49072CA6001684A6922F03F
:1026900001024A61202180F83A1070470168CA6837
:1026A00022F0C002CA60202180F83910704710B5AE
:1026B00090F83A10222901D0022010BD8168B1F5AE
:1026C000805F11D00169002901681FD0496801F0BD
:1026D0007F03816A4A1C82620B70C18D491E090406
:1026E000090CC18518D02BE00269816A002A0268B2
:1026F000526805D0D2B20A80816A491C8162ECE737
:10270000C2F308020A80816A891CF7E74A68816A75
:102710004B1C83620A70E0E70168CA6822F020025D
:10272000CA600168CA6822F48072CA6001684A6996
:1027300022F001024A61202180F83A10FFF722FBC3
:10274000002010BD2DE9F041044600680169E268EF
:1027500021F44051114301612169A068E2690843F5
:102760006169114308432168CA6849F20C639A43BE
:102770000243CA6020684169A26921F44071114393
:102780004161E069192764253226B0F5004F354ACA
:10279000354920684FF0000806D0884201D09042A9
:1027A00036D1FEF7E3FD35E0884201D0904202D1F8
:1027B000FEF7DCFD01E0FEF7C9FD61684A18A0FBE9
:1027C000070148EB0803FDF76DFD0146B0FBF5F08E
:1027D0000201B1FBF5F06FF01803584301EB8000E4
:1027E00006EBC000B0FBF5F000F0F80002EB400291
:1027F000B1FBF5F0584301EB800006EBC000B0FBE5
:10280000F5F000F00700216810448860BDE8F08111
:10281000FEF79CFD61688B0F8A00A0FB0701FDF7A6
:1028200041FD0146B0FBF5F06FF01802504301EB9B
:10283000800006EB0010B0FBF5F000F0F002B1FBF9
:10284000F5F002EB0012B1FBF5F06FF018035843FE
:1028500001EB800006EB0010B0FBF5F000F00F007C
:10286000D1E70000001401400010014090F8391039
:10287000212901D0022070478168B1F5805F016A8B
:102880000BD04A1C0262026809785160C18C491E53
:102890000904090CC1840ED017E009880268C1F34D
:1028A0000801516001690029016A02D0491C0162D6
:1028B000ECE7891CFBE70168CA6822F08002CA6065
:1028C0000068C16841F04001C160002070472DE9F7
:1028D000F041984617460E460446069D1DE0681CCA
:1028E0001BD02DB1FEF786FBA0EB0800A84214D93F
:1028F0002068C16821F4D071C1602068416921F06D
:1029000001014161202084F8390084F83A00002058
:1029100084F838000320BDE8F0812068006836EABA
:10292000000004D00020B842D9D00020F3E70120F5
:10293000F9E7000010B50449044800F009F8BDE8C3
:1029400010400248FFF74EB81C16002074290020E2
:102950002DE9F843804600680C460168C943C90662
:102960003DD401680027406800904046FFF70CF80E
:102970001C48006840684FF40066B04224D0C0F59F
:102980000060B04220D2184DA880D4F8CC10296045
:1029900020466A68FFF71AFCC8B1B4F8D410B5F93C
:1029A0000400014409B2A4F8D410C1F58051B14229
:1029B00003DBD4F8CC10084403E0A4F8D470D4F8B6
:1029C000C800C4F8CC0002E04046FEF7AEFF324635
:1029D0004046D4F8CC10BDE8F843FFF75DB9BDE838
:1029E000F8830000B42900200014002010B504462C
:1029F0006423FFF7F8F900280CD02046FEF795FF76
:102A000005484FF40062D0F8CC102046BDE81040D5
:102A1000FFF742B910BD00001C160020FEE70000C1
:102A20000FB4054B10B503A9044A029800F040F812
:102A300010BC5DF814FB0000B5320008141600202D
:102A40000FB4084B10B504A902AA039800F030F89F
:102A5000044602A9002000F05CFA204610BC5DF894
:102A600014FB0000132F00080907090E002804DBDF
:102A700000F1E02080F80014704700F00F0000F132
:102A8000E02080F8141D7047004870471816002099
:102A900002E008C8121F08C1002AFAD17047704727
:102AA000002001E001C1121F002AFBD17047000085
:102AB0002DE9FF4F8DB00F460546002606E025287C
:102AC0000BD0DDE90F1290476D1C761C287800288A
:102AD000F5D111B03046BDE8F08F0024A246A146E2
:102AE0000122EC4900E0044315F8013F203B02FAC3
:102AF00003F00842F7D128782A2810D06FF02F026F
:102B00002878A0F13001092914D80AEB8A0102EBD8
:102B1000410144F0020400EB010A6D1CF0E701CF13
:102B20005FEA000A03D544F40054CAF1000A44F0F5
:102B300002046D1C28782E2817D115F8010F44F0D7
:102B400004042A280ED06FF02F022878A0F130015B
:102B500009290AD809EB890102EB410100EB0109BF
:102B60006D1CF2E757F8049B6D1C28786C280FD079
:102B700006DC4C2817D068280DD06A2814D104E050
:102B8000742810D07A280FD10DE044F400140AE024
:102B900044F4801401E044F440146978814202D185
:102BA00004F580146D1C6D1C2A786E2A1FD00CDC75
:102BB000632A31D004DC002A8BD0582A11D1A3E03B
:102BC000642A68D0692A0CD165E0732A2ED004DC0F
:102BD0006F2A73D0702A04D19BE0752A6FD0782AAF
:102BE0006ED01046DDE90F129047761C50E1C4F319
:102BF0000250022806D0032809D0042801CF09D0AA
:102C0000066045E101CFF117C0E9006140E101CF65
:102C100006803DE106703BE117F8040B8DF80000DB
:102C200000208DF80100EB46012003E057F804BBBB
:102C30004FF0FF3061074FF0000102D40DE008F1C2
:102C40000101884649450FDA8045F8DB1BF808107A
:102C50000029F4D108E008F1010188468142FADB3D
:102C60001BF808100029F6D1DDE90F23AAEB0800B4
:102C70008146214600F036F9304400EB080604E0B6
:102C8000DDE90F121BF8010B9047B8F10108F7D2EC
:102C900021464846F7E00A21C4F302534FF0000BE7
:102CA0000891022B04D001CFC117032B09D00AE0F1
:102CB000FF1D27F00707F7E8020108E032E01FE0F8
:102CC00020E000B2C117042B01D140B2C117031E8E
:102CD00071F1000307DA4FF0000CD0EB0C006CEB45
:102CE00001012D2302E0230504D52B238DF8243088
:102CF000012303E0E30701D02023F7E7984658E0DB
:102D00000A2110E010210EE010204FF0000B089077
:102D10000CE010214FF0000B44F004044FF00809C0
:102D2000089103E008214FF0000B0891C4F302530F
:102D3000022B04D001CF0021032B06D006E0FF1D9B
:102D400027F00707F7E8020103E080B2042B00D167
:102D5000C0B24FF0000823072BD5702A07D0DDF84A
:102D600020C08CF0100C5CEA0B0C05D00EE0402368
:102D70008DF82430012308E050EA010306D0302307
:102D80008DF824308DF8252002239846DDF820C0E8
:102D90008CF0080C5CEA0B0C0BD150EA010301D15A
:102DA000630706D530238DF824304FF00108A9F1D0
:102DB0000109582A04D038A20B9208AA0A920BE003
:102DC0003AA2F9E75B46089AFDF76CFA0B9B9B5C0D
:102DD0000A9A521E0A92137050EA0102F2D10A981E
:102DE000ADEB000000F1200B600702D524F4803425
:102DF00001E04FF00109D94502DDA9EB0B0000E02D
:102E0000002000EB0B0141440890AAEB010AE0030B
:102E100006D4DDE90F232146504600F063F806444E
:102E20004FF0000908E009A911F80900DDE90F12C7
:102E3000904709F10109761CC145F4DBE0030CD58C
:102E4000DDE90F232146504600F04CF8064404E02B
:102E5000DDE90F1230209047761C0899481E089033
:102E60000029F5DC08E00A980A990078491C0A91C3
:102E7000DDE90F129047761CBBF10001ABF1010BAD
:102E8000F1DC21465046DDE90F2300F019F8064435
:102E90006D1C1BE6092801003031323334353637DA
:102EA0003839616263646566000000003031323396
:102EB0003435363738394142434445460000000036
:102EC0002DE9F041044600251E461746880404D427
:102ED00005E039462020B0476D1C641EF9D5284610
:102EE000BDE8F0812DE9F041044600251E469046DC
:102EF000C80301D5302700E02027880404D505E069
:102F000041463846B0476D1C641EF9D52846BDE8D9
:102F1000F0810A68531C0B601070704710B5044BA9
:102F2000C069044A194605F021FC012010BD0000CB
:102F3000743D0108783D01083EB50446064807A3E4
:102F400080698DE80700044A064928322046FFF7C9
:102F500077FD20463EBD00001C1400206C774950D0
:102F60002F00000024410108074C02E00A2005F070
:102F70002BFD20780028F9D001F024F901F088F920
:102F80000A2005F021FDF9E7081400202DE9F041A1
:102F9000054600244FF440470F4E0CE00188B9422B
:102FA00008D2816931B12846884795F8D400401C81
:102FB00085F8D400641C56F824000028EED195F85A
:102FC000D400002805D12846BDE8F04103A103F054
:102FD00071BCBDE8F0810000443E01084E6F206ED8
:102FE0006574776F726B2070726F746F636F6C7340
:102FF0002072756E6E696E670000000070B5054640
:103000000C46880706D00BA34FF4B67215A11DA07D
:10301000FFF706FD08F02EFB2A689188491E918073
:10302000E96809682160E9680C60BDE8704008F053
:103030002DBB00002E2E5C4D6964646C6577617257
:1030400065735C54686972645F50617274795C4C3A
:103050007749505C7372635C636F72655C6D656D1C
:10306000702E63006D656D705F667265653A206DE8
:10307000656D2070726F7065726C7920616C696724
:103080006E656400417373657274696F6E202225EA
:103090007322206661696C6564206174206C696EBE
:1030A0006520256420696E2025730A0070B50546E9
:1030B00008F0E0FA0646E8680468002C19D0216898
:1030C0000160A00706D00FA34FF48C7219A122A0B3
:1030D000FFF7A6FC28688188491C89B2818028688E
:1030E000C288914200D9C180304608F0CFFA20460C
:1030F00070BD29680888401C0880304608F0C6FA70
:10310000002070BD2E2E5C4D6964646C6577617221
:1031100065735C54686972645F50617274795C4C69
:103120007749505C7372635C636F72655C6D656D4B
:10313000702E63006D656D705F6D616C6C6F633ACE
:10314000206D656D702070726F7065726C79206192
:103150006C69676E65640000417373657274696FB2
:103160006E2022257322206661696C65642061747B
:10317000206C696E6520256420696E2025730A0025
:103180002DE9F0411E4615460F46FDF705F90400EE
:1031900011D03846FDF712F920442946FDF7FCF816
:1031A000050001D0AC4208D909A000BFFFF738FCE8
:1031B0000020BDE8F0810EA0F8E73846FDF7FEF8E4
:1031C00001196A1A3046FDF7B5F80120F1E7000051
:1031D000726967687420737472696E67206E616DBE
:1031E00065206E6F7420666F756E64210A000000A2
:1031F0006C65667420737472696E67206E616D65AC
:10320000206E6F7420666F756E64210A00000000E6
:103210002DE9F04116460D46074600240CE038190A
:1032200000F00EF829192855020A4A70020C000E07
:103230008A70241DC870A4B2B442F0D3BDE8F081F6
:10324000006870472DE9F0418046002017460E4681
:10325000054616E0705D60F307047019417861F36C
:103260000F248178C07861F3174460F31F6421460E
:1032700008EB050000F009F8002804D001202D1DFE
:10328000ADB2BD42E6D3BDE8F08170B50C4605464F
:10329000FDF7AAFD2246002329460220FDF766FD20
:1032A00018B1FDF759FD002070BDFDF755FD012057
:1032B00070BD000004490A685206FCD5024AC1B23A
:1032C000121D116070470000004C004070B50D00E9
:1032D0000446856008D02846FDF770F8FF2805D21F
:1032E0002846FDF76BF802E0002001E0FF20C0B2A5
:1032F0002076207C0A280CD2DFE800F00B050B07B3
:103300000B090C0C0C0C002002E0022000E0042051
:10331000207470BD2046BDE8704004210EF080BCD2
:1033200000210268017441748174D279C2750176FA
:1033300070470000F8B5134604460D46042A33DBF7
:103340000878691C11F801CB11F8012B11F8016BF9
:1033500046EA02260A46042E26DB9E4224DC217C15
:10336000361F002920D001291ED008283AD2DFE8D4
:1033700000F039040C14141C242901B033462046F3
:10338000BDE8F040614600F0F3B901B03346204695
:10339000BDE8F040614600F0EBB8134601466246D6
:1033A0002046009600F052F9F8BD01B033462046A1
:1033B000BDE8F040614600F06DBA2046BDE8F84037
:1033C00000F03ABA1046042EEEDB027843786068CB
:1033D000816B10A007F060F9207C0728E4D106205B
:1033E0002074F8BD61684F6B3FB1134601466246D9
:1033F00020460096B8470028F3D1361D0096A07CE1
:103400002B46401CC2B2A2740721204600F066FB86
:10341000F8BD000025733A205263766420436F6440
:10342000652D52656A65637420666F7220636F64F0
:10343000652025642C2069642025640070B5017C1A
:10344000044600200125891E082906D2DFE801F084
:1034500004060F1111111118207470BD25746068D5
:10346000416A0029F9D02046BDE870400847207421
:1034700000E025742146BDE87040054808F0D4BA44
:103480006068016A09B120468847257470BD000054
:10349000693B000810B50446007C30B101280CD10E
:1034A000607C400703D5032006E0022004E00021F1
:1034B000204600F049FA0620207410BD10B50446DD
:1034C000007C0A281BD2DFE800F0051A0F1D1B1A2A
:1034D0001A1A1A1D012020746068416A00290ED052
:1034E0002046BDE810400847607C400701D5032016
:1034F00004E00021204600F027FA0620207410BDC9
:1035000005202074607C8007F9D52046FFF796FFE0
:103510002046BDE81040FFF7BDBF000010B50446CF
:10352000007C801E08281FD2DFE800F0080E040A85
:103530000A0A0A1821460D4808F076FA022004E02B
:1035400021460A4808F070FA032020746068816AF6
:10355000002909D02046BDE8104008472046BDE8B4
:10356000104005210EF05CBB10BD0000693B000857
:103570002DE9F84304460568C07C0E461F46904678
:10358000B04229D1207B002826D16068C3682BB1C6
:103590003A4641462046984708B107E037B13A46D7
:1035A0004146BDE8F84320A006F0AEBC01202073E0
:1035B0000020A075217C0627891E08290CD2DFE88F
:1035C00001F004040B0B0D1217280090F2B2002337
:1035D0000621204600F082FABDE8F8830720207417
:1035E00068792075F8E72146174808F01DFA15E0BC
:1035F0002146154808F018FA0920207468792075CA
:103600006068C1690029E7D001B02046BDE8F043F9
:1036100008476068016A09B12046884700212046B2
:1036200000F092F92774D7E752656365697665649F
:103630002062616420636F6E6669677572652D61D3
:10364000636B3A2025500000693B00082DE9F843E0
:103650000446C07C1646DDF820901F46B04244D197
:10366000207B002841D1804603290BD084F81680A6
:103670006068436953B34A46394620469847050077
:1036800024D012E0A07D401CC0B2A075E17D88422C
:1036900001D3012300E000236068056995B14A4623
:1036A00039462046A84705000CD001202073207C15
:1036B0000627801E082818D2DFE800F00F0F171722
:1036C0001928192D4A46394618A002E04A463946BB
:1036D0001EA0BDE8F84306F017BCF2B20023062195
:1036E0002046CDF8008000F0F9F9BDE8F8832146C6
:1036F0001E4808F099F9002D02DA03202074F4E73F
:103700002046BDE8F843002100F01EB921461748C5
:1037100008F08AF904E06068016A09B12046884728
:103720000021204600F010F92774DEE7526563653A
:10373000697665642062616420636F6E666967758F
:1037400072652D6E616B3A202550000052656365ED
:10375000697665642062616420636F6E666967756F
:1037600072652D72656A3A2025500000693B000899
:103770002DE9FF430446007C00270626801E81B009
:1037800091468846082819D2DFE800F004130B0B95
:103790001818180E0023424606212046009700F014
:1037A0009DF905B0BDE8F0836068016A09B1204663
:1037B00088470021204600F0C7F8267460688569B4
:1037C00065B1607DE17D884201D3012300E00023E3
:1037D00004AA49462046A847054604E0049808B1D3
:1037E000042500E0022504980090E9B24B464246C9
:1037F000204600F073F9207C022D08D0072800D065
:103800002674032DCDD1607D401C6075C9E7072863
:1038100003D0082020746775C3E72146054808F0E7
:1038200003F9092020746068C1690029F3D020469B
:103830008847F0E7693B000870B50446007C04281F
:1038400011D0052815D0062507280AD0092809D146
:103850006068016A09B1204688470021204600F0CF
:1038600073F8257470BD2146094808F0DDF8022080
:1038700004E02146064808F0D7F803202074606869
:10388000816A0029EED02046BDE87040084700005C
:10389000693B0008F8B504460568007C00269C4694
:1038A0000F46072804D0082802D0092826D102E0B4
:1038B0000620207422E06068BCF1000F816B05DDFA
:1038C0001346624611A006F029FB02E017A006F09D
:1038D00025FB2675052020746068016A09B1204621
:1038E00088472146174808F09FF828794FF47A71E5
:1038F00010FB01F02246134907F098FFFAB20023AB
:1039000006212046009600F0E9F8F8BD25732074E2
:1039100065726D696E617465642062792070656599
:1039200072202825302E2A76290000002573207465
:1039300065726D696E617465642062792070656579
:1039400072000000693B0008F8B504460668007C78
:1039500000250F4606280AD0072808D0082806D0D8
:103960006068016809B1204688476575A5752FB95B
:1039700070792075A07C401CA074E0742573606889
:10398000416859B1806848B1204688470090B6F830
:10399000D010091F814202DA009100E000950098E2
:1039A0004FF4C172083081B2002005F0B1F9050072
:1039B00006D028896989884203D0284605F054FE3C
:1039C000F8BD6968FF2001F8010B032001F8010B25
:1039D000E089000A01F8020BA07B01F8010C01202C
:1039E00001F8040BE07C01F8030C0098001D000AAC
:1039F00001F8020C0098001D01F8010C0098002845
:103A000010D060686A4683682046984768890099A4
:103A10000838884206D00EA340F2F22219A124A051
:103A2000FEF7FEFF2946304606F040FE207D214687
:103A3000401E2075284807F0F7FF30794FF47A715F
:103A400010FB01F02246244907F0F0FEF8BD00000B
:103A50002E2E5C4D6964646C6577617265735C548D
:103A6000686972645F50617274795C4C7749505C2C
:103A70007372635C6E657469665C7070705C6673AB
:103A80006D2E630063696C656E203D3D20702D3E98
:103A90006C656E202D204845414445524C454E20D2
:103AA0002D205050505F4844524C454E00000000BD
:103AB000417373657274696F6E20222573222066CC
:103AC00061696C6564206174206C696E6520256491
:103AD00020696E2025730A00693B00082DE9FF5F0D
:103AE000D0F8009080468A46B9F8D0000E9F011F9A
:103AF0009346B94200DA071F3D1D281D81B24FF4DD
:103B0000C172002005F004F906002AD030897189BD
:103B1000884205D004B03046BDE8F05F05F0A4BD92
:103B200074682FB13A4604F108000399FCF702FCCF
:103B3000FF20207003206070B8F80E003146000AA4
:103B4000A07098F80E00E07084F804A084F805B026
:103B5000280AA071E57104B04846BDE8F05F06F0A0
:103B6000A5BDBDE8FF9F000038B504460568007C90
:103B7000011F052922D2DFE801F0030329292900CA
:103B8000217DE1B1207E0090A07CA368401CC2B2E0
:103B9000A274E27405212046FFF7A0FF21461D48CC
:103BA00007F042FF28794FF47A7110FB01F02246AA
:103BB000184907F03BFE207D401E207538BD0428C3
:103BC00002D0032020741CE00220FBE7207D0028A7
:103BD00060680DD0016B09B120468847012120465D
:103BE000FFF7B2FE207C0728E8D10620207438BDFC
:103BF000816B09A006F050FD03202074607CC00793
:103C0000F5D16068816A0029F1D001B02046BDE895
:103C100030400847693B000825733A2074696D6598
:103C20006F75742073656E64696E6720436F6E668E
:103C300069672D5265717565737473004FF0FF30BD
:103C4000704700000021A0F100634FF480429342CE
:103C50003FD321490144914201D2012139E01F495A
:103C60000144914201D2022133E01D4901449142B5
:103C700001D203212DE01B490144B1F5803F01D25F
:103C8000042126E0184942184FF400318A4201D23B
:103C900005211EE0154A02448A4201D2062118E09D
:103CA000134A02448A4201D2072112E0114A024417
:103CB0008A4201D208210CE00F4A02448A4201D212
:103CC000092106E00D4A1044884201D20A2100E091
:103CD0000B2108467047000000C0FFF70080FFF787
:103CE0000040FFF70000FFF70000FEF70000FCF7C0
:103CF0000000FAF70000F8F70000F6F70000F4F70C
:103D000010B5ADF5207D0C46242210A196A8FCF735
:103D100011FB174920460BF0F7FD6846FCF74EFBF8
:103D200001466846FCF72DFB1248FEF779FE96A97E
:103D300011A0FEF775FE0F48FEF772FE0FA0FEF70A
:103D40006FFE0DF5207D002010BD000054686973E2
:103D50002069732061206E657720636C69656E74DD
:103D600020636F6E6E656374696F6E2E0D0A0000BE
:103D7000312400088C41010825730000636F6E6ECA
:103D8000656374207375636365737321210D0A0085
:103D90002DE9F047ADF5CE6D82464FF400773946F8
:103DA0006846FCF7EEFA4FF416794C46494680A86F
:103DB000FCF7E7FA39460DF58B60FCF7E2FA1421BF
:103DC0000DF5CB60FCF7DDFA002539460DF58B606B
:103DD000FCF7D7FA39466846FCF7D3FA214680A8A3
:103DE000FCF7CFFA14210DF5CB60FCF7CAFA85A1D8
:103DF0005046FCF7D1FA00B10125854C0126207808
:103E0000002824D1267083A15046FCF7C5FA0DF591
:103E1000CB6384A284A1FFF7B3F90DF5CB60FCF767
:103E2000EFFA0146A06081A0FEF7FAFDA168C1F398
:103E30004F20E080C90501D0401CE0800DF5CB602B
:103E4000FCF7DEFA0146E28879A0FEF7E9FD002DD5
:103E50007BD0B8463D4639466846FCF792FA49465B
:103E600080A8FCF78EFA29460DF58B60FCF789FADD
:103E700080AB7EA27FA15046FFF782F980A8FCF7B5
:103E80009DFA00F108017DA0FEF7CAFD80A8FCF7AD
:103E900095FA6169081A0838E06174A15046FCF788
:103EA0007BFA011D6846E269FCF744FA78A0FEF748
:103EB000B7FD694683A0FEF7B3FD75A0FEF7B0FD20
:103EC00086A0E169FEF7ACFD71A0FEF7A9FDA08810
:103ED000401C81B2A18089A0FEF7A2FD87A0E16805
:103EE000FEF79EFD85A02169FEF79AFDD4E9030740
:103EF000381A8F4DB0F5FF7F31D88EA0FEF790FDB8
:103F0000A0684FF05531401E20619048FFF7BDF981
:103F10008E48A168001DFFF7B8F9A08B694682B2F0
:103F2000A08805EB4020FFF78DF9A08B0DF58B6184
:103F300082B2A08805EB4020FFF76AF90DF58B618E
:103F40006846FCF742FA014600E059E080A0FEF71F
:103F500067FDA67083A000BFFEF762FD44E0424605
:103F600069468548FCF7E6F9781C07F50077C4E94F
:103F70000307A068874209D980A0FEF751FD206998
:103F8000A0F2FF10E060A068401E20616670A0886B
:103F9000464605EB402042467749FFF753F9A08893
:103FA000324605EB40200DF58B61FFF731F938A063
:103FB000FEF736FD704943A0FEF732FD34A0FEF750
:103FC0002FFD0DF58B616C48FCF7FFF9014660A0F1
:103FD000FEF726FD31466848FCF7D3F9A08805EBCB
:103FE00040216CA0FEF71CFD0FF024FC206250461F
:103FF0006169FCF7C6F90DF5CE6D5F48BDE8F08745
:104000006BA0A9E7485454502F312E310000000016
:104010001C140020436F6E74656E742D52616E67C0
:10402000650000000D0A00002F000000256400005C
:104030002121212121212121212121212121212170
:10404000212121212121212020256420202121211D
:104050002121212121212121212121212121212150
:1040600021212121202564200D0A00000D0A0D0ABE
:104070000000000048545450000000006865617260
:1040800064206C656E73206973202564200D0A001E
:104090002121212121212121212121212121212110
:1040A0002121212121212120212121212121212101
:1040B00021212121212121212121212121212120F1
:1040C0000D0A000066696C655F62696E5F64617409
:1040D00061200D0A202573200D0A00000D0A687466
:1040E00074705F66697273745F7061636B65745F2F
:1040F0006C656E2025640D0A00000000212121213D
:10410000212121212121212121212121212121219F
:104110002121212564212121212121212121212148
:10412000212121212121212121212121200D0A00CC
:1041300000FE0308546865206C617374207061632D
:104140006B657421212121210D0A00000040000827
:10415000200D0A2020526573756C7420322025646E
:10416000200D0A004F5441204F7665722C52657322
:10417000657421210D0A000028270020546865205D
:104180006C617374207061636B6574202D20312025
:104190000D0A0000424C4F434B5F415050325F5379
:1041A0005441525420312069732025780D0A0000B3
:1041B0006572726F72206461746120EFBC81EFBC24
:1041C000810D0A0070B5FDF76FFE124C01212046EB
:1041D000FCF78CFB0F4D104908352846FFF755F8C2
:1041E0002846FFF72DF801460CA0FEF719FC1149EF
:1041F00011A0FEF715FC184918A0FEF711FC214686
:104200001CA0FEF70DFC2046BDE870400221FCF723
:104210006DBB000000000408896745230D0A746D1A
:10422000705F646174615F746573743D25780D0A15
:1042300000000000004000080D0A424C434F4B5F55
:104240005359535F504152414D5F53544152543D75
:1042500025780D0A00000000008000080D0A424C7D
:104260004F434B5F415050315F53544152543D25B1
:10427000780D0A000D0A20424C4F434B5F415050CD
:10428000325F53544152543D25780D0A000000001E
:1042900010B5ADF5487D6846FCF790F801466846D4
:1042A000FCF76FF80FF0C6FA234C216A401A43F668
:1042B0009821884209D9606A07F000FEFDF7F4FDF5
:1042C000012060700FF0B6FA2062606A60B3007D72
:1042D000042829D1607838B3002060701748FEF7B1
:1042E0009FFBD4E903126846FEF726FE02E00A208F
:1042F00004F06AFB6846FCF761F882B20123694664
:10430000606A0CF077FD0028F1D1D4E90312684609
:10431000FEF712FE01460AA0FEF782FB0748FEF7F1
:104320007FFB642004F050FB4FF47A7004F04CFBE8
:104330000DF5487D10BD00001C1400208C410108C3
:1043400025730D0A000000000A46032100F028B979
:104350002DE9FE4F5D4C05468B46B4F84A005C499A
:10436000401CA4F84A00D1F8088098F80000000723
:10437000860E142E74D368890428FBD368680078ED
:1043800048B108280CD034F8580F401C24F80A090A
:104390002088401C20802846BDE8FE4F05F064B907
:1043A0004869DFF82CA1C0F303120AF1140A0E2A9F
:1043B0004DD08946096800F0DCF9002847D12889EA
:1043C00008287CD306F10E010F46284604F03CFC79
:1043D000002830D02889811989B2884237D84FF413
:1043E00020720E2004F094FC070030D0798906F189
:1043F0000800814216D3324641467868FBF79AFF9F
:104400003146384605F0FCFA002806D031A3B62222
:104410003EA14CA0FEF704FB04E02946384604F018
:104420002DFF18B1384605F01FF910E0284605F0B9
:104430001BF93D4615E03946284605F0E1FA00280B
:104440000FD024A3C72249A13EA0FEF7E9FA2846CF
:1044500005F00AF934F85C0F401C2080BDE8FE8F9F
:104460002DE031462846D5F8048004F0EDFB002805
:1044700091D16F68DAF800003146F860D9F8100081
:1044800038614FF0000988F80090A8F80290FF20EA
:104490003872A7F80A90384600F01AF9788134F893
:1044A000480F0122401C2080CDE90092FF23CDF867
:1044B00008B000225146284600F0C2FB6BE72846B0
:1044C00005F0D2F834F8520FC6E700002C16012090
:1044D000186A00202E2E5C4D6964646C65776172E9
:1044E00065735C54686972645F50617274795C4C86
:1044F0007749505C7372635C636F72655C69707658
:10450000345C69636D702E630000000069636D7038
:104510005F696E7075743A206D6F76696E67207290
:104520002D3E7061796C6F616420746F2069636DDA
:104530007020686561646572206661696C65640AF3
:1045400000000000417373657274696F6E2022254C
:104550007322206661696C6564206174206C696EE9
:104560006520256420696E2025730A0069636D70DB
:104570005F696E7075743A20726573746F72696EDC
:1045800067206F726967696E616C20702D3E706183
:10459000796C6F6164206661696C65640A00000073
:1045A0002DE9FF479146884606464FF420722421A4
:1045B000222004F0ADFB050036D06889242806D2FD
:1045C0001AA34FF4B47227A131A0FEF729FA6C6840
:1045D00077681C2284F8008084F801904FF000086E
:1045E000A4F80480A4F80680686871680830FBF7B6
:1045F000A1FEF868039003A800F078FD88B12E4B67
:10460000A4F80280002133F8482F521C1A8001229E
:10461000CDF80080CDE90120FF2303AA284600F051
:104620000FFB284605F020F8BDE8FF872E2E5C4DD5
:104630006964646C6577617265735C5468697264FF
:104640005F50617274795C4C7749505C7372635C43
:10465000636F72655C697076345C69636D702E633C
:1046600000000000636865636B20746861742066F5
:104670006972737420706275662063616E20686F62
:104680006C642069636D70206D657373616765008C
:10469000417373657274696F6E20222573222066E0
:1046A00061696C6564206174206C696E65202564A5
:1046B00020696E2025730A002C1601200A460B2162
:1046C000FFF76EBFEFF30580002800D00120704790
:1046D00000B503F08FF8C04380B200BD30B41B6852
:1046E000029D9CB204EB13442B6814FA83F404EB90
:1046F00013431C0C14FA83F31C0C14FA83F330BC20
:10470000AFF300802DE9F0411C4690460F4600268D
:10471000054612E06989686803F06CF82044010CD2
:1047200011FA80F4A87AC00706D006B30026E0B2DA
:10473000C4F3072141EA00242D68002DEAD126B1F7
:10474000E0B2C4F3072141EA0024384603F03AF806
:104750000444404603F036F82044010C11FA80F07E
:10476000010C11FA80F0C04380B2BDE8F08101264F
:10477000DDE7421C12D088B191F8292092070BD5B1
:104780004B68834208D0896800EA01020B409A42D4
:1047900002D10143491C01D000207047012070471D
:1047A0002DE9F74F88B00446099800251426008C9F
:1047B000AF1F1438C11700EB5170C0F3CF00039046
:1047C00060680690017801F00F01052903D0384692
:1047D0000BB0BDE8F08F6189142907D260A34FF4B4
:1047E0003F726EA174A0FEF71BF9F0E7C08802F0DB
:1047F000E9FFC0F30C0100F40050029107902089FA
:1048000014381FFA80F89AE003994FF6FF7000EA17
:10481000C1004146404500D9084605904FF420723A
:1048200014210E2004F074FA5FEA000A7DD0BAF871
:104830000A00142806D24AA34FF4497268A15EA068
:10484000FEF7EEF81422DAF804000699FBF772FD81
:10485000DAF804000490059F35E06089811B8DB271
:10486000B04206D23EA340F22D3265A152A0FEF71F
:10487000D7F8AF4200D23D461DB3052003F008FD36
:104880005FEA000961D060684B463044CDE900051D
:1048900041222946002004F0C9FB5FEA000B5AD0F0
:1048A000204605F05FF85A49C9E9041459465046B4
:1048B00004F0D8FB781B07043F0C06D000262468C0
:1048C000CBE724680026002FC7D1701986B209985B
:1048D000008C143840450298C0F30C0001DB0799A6
:1048E00009B140F4005002F06DFF0499C8800598AA
:1048F000143080B202F066FF0499488004980021C9
:10490000418114210498FFF7E3FE04994881099836
:1049100051460A9A436998473E49088B401C0883D0
:10492000504604F0A1FE059900E011E0A8EB01005B
:104930001FFA80F8DDE90201084480B20290B8F164
:10494000000F7FF461AF002042E7504604F08CFE78
:104950004FF0FF303CE7484600F046FCF5E700002A
:104960002E2E5C4D6964646C6577617265735C546E
:10497000686972645F50617274795C4C7749505C0D
:104980007372635C636F72655C697076345C6970C6
:10499000345F667261672E63000000006970345FE7
:1049A0006672616728293A207062756620746F6F9D
:1049B0002073686F72740000417373657274696F5D
:1049C0006E2022257322206661696C656420617403
:1049D000206C696E6520256420696E2025730A00AD
:1049E00074686973206E65656473206120706275F8
:1049F0006620696E206F6E652070696563652100B1
:104A0000702D3E6C656E203E3D20706F6666000026
:104A1000096500082C1601202DE9F047DFF8E88130
:104A20000E460746B8F83210491CA8F832104568FF
:104A300004212878B1EB101F0AD0384604F014FE88
:104A4000404630F8441F491C20F80E19018821E027
:104A500000074FEA9069688802F0B4FE044638897E
:104A6000A04203D92146384604F0E2FE798949453F
:104A700006D33889A04203D34846B9F1140F0DD2AA
:104A8000384604F0F1FDB8F83A104046491CA8F841
:104A90003A1075E0491CA8F836107BE0014628461C
:104AA000FFF716FE48B1384604F0DEFDB8F83810BE
:104AB0004046491CA8F8381062E02969DFF84CA18B
:104AC000C1F303100E28CAF81410EA68CAF81020BF
:104AD00005D0304600F09EF850B1344619E096F803
:104AE0002900C00702D070680028F6D1002410E029
:104AF0009AF8140000247F280BD04548046806E08B
:104B0000B44203D0204600F085F810B92468002C88
:104B1000F6D13146DAF81000FFF72BFE60BB9AF8A9
:104B20001000C0F303100E2826D05CB3E88830F0E4
:104B3000C00005D0384600F073F907002AD07D6820
:104B4000CAF80850CAE90046297838460907890E8C
:104B5000AAF80C10494604F053FF687A012826D0C1
:104B600006281FD0112818D055462146DAF814001F
:104B7000FFF7FFFD00B32CE0384604F075FD40461A
:104B8000C18E87E7B8F836103846491CA8F83610A9
:104B900004F06AFD0020BDE8F087314638460DF08C
:104BA0008FF823E03146384608F014F81EE031460D
:104BB0003846FFF7CDFB19E0287DC0F303100E281F
:104BC00007D04946384604F01BFE02213846FFF75D
:104BD000BBFB404630F8401F491C20F80A190188E9
:104BE0003846491CA8F8361004F03EFD0021CAF8EA
:104BF0000010CAF80410CAF80810AAF80C10CAF875
:104C00001010CAF81410C5E72C160120186A0020ED
:104C10007C15002010B590F82910C9070CD0416808
:104C200051B1064A52698A4204D001461046FFF744
:104C3000A0FD08B1012010BD002010BD186A0020A1
:104C4000FEB5DDE90954089E1AB109B10F6807B92C
:104C5000211D0096CDE9015400F002F8FEBD0000D0
:104C60002DE9FF4F81B00546DDE90E87807BDDF839
:104C700040A09B461646012806D040A34FF455722B
:104C80004BA14EA0FDF7CCFEDFF858916FF0010468
:104C9000002E4BD01421284603F0D6FF002848D11F
:104CA00068896C68142806D234A34FF462724EA14E
:104CB00042A0FDF7B5FE84F808B0390247EA0B20A0
:104CC000677241EA10203168216110FA81F000EB2F
:104CD0001140452121704FEA082248F48A4142EAF6
:104CE000112184F801800F18288902F06BFD00EB78
:104CF00007086080484F0020E080388802F062FD9D
:104D0000A08039884044491C3980029901B943493F
:104D10000968E16010FA81F000EB1140010C11FA12
:104D200080F000EB1040C04360810FE068891428D8
:104D300008D2B9F844102046491CA9F8441005B01F
:104D4000BDE8F08F68686E4600690090B9F83010D1
:104D5000491CA9F83010BAF8200040B129898142D5
:104D600005D9324651462846FFF71AFDE7E7DAF83B
:104D700014305046324629469847E0E72E2E5C4DC7
:104D80006964646C6577617265735C5468697264A8
:104D90005F50617274795C4C7749505C7372635CEC
:104DA000636F72655C697076345C6970342E630081
:104DB000702D3E726566203D3D2031004173736564
:104DC0007274696F6E2022257322206661696C659A
:104DD00064206174206C696E6520256420696E20F2
:104DE00025730A002C160120636865636B207468C4
:104DF00061742066697273742070627566206361E5
:104E00006E20686F6C6420737472756374206970AF
:104E10005F68647200000000E0150020743D010826
:104E20002DE9F14FDFF81C82B8F81A10491CA8F8D8
:104E30001A1000984568287800F00F00052805D062
:104E4000B8F82C10491CA8F82C10F1E0E88802F002
:104E5000B9FCC004070C688802F0B4FC2978090783
:104E6000890E8142F1D8401A1FFA80F9009804F0A7
:104E70009AF9754C0646208830440A2808D93146EC
:104E8000284600F047FCE0B3208830440A283CD88C
:104E9000A24664684FF0000B18E06069E968884238
:104EA00013D1A069296988420FD1A089A9888842B5
:104EB0000BD1B8F82E10491CA8F82E1044B1E88880
:104EC00002F080FCC00426D030E02468002CE4D13D
:104ED000042003F0DDF904000AD13146284600F031
:104EE00019FCB04211DB042003F0D2F904000CD00D
:104EF0002021FBF746FA0F20E077DAF80410216052
:104F000000E002E0CAF804400AE0B8F82410491CA6
:104F1000A8F824108CE0E08902F054FCC00405D00D
:104F20001422294604F10800FBF704FAA87940F39B
:104F300040156D1C08D007EB090080B2B84266D35B
:104F40004FF6EB71884262D82A462046009900F05D
:104F500093F9411C5BD0BAF800203244AAF8002033
:104F600035B107EB0901A183A17F41F00101A177D0
:104F700001284AD1A08B1422143087B2606804F152
:104F80000801456828462E68FBF7D4F9384602F038
:104F900019FC6880A5F806B0A5F80AB014212846C7
:104FA000FFF796FB6881656809E014213046776851
:104FB00004F026FD3146284604F054F83E68002EE1
:104FC000F3D1DAF8041056468C4205D1002105E0F1
:104FD0000868A04202D001460029F9D1204600F01D
:104FE0006FFA284604F0DFF804463088A04206D263
:104FF00016A340F29B2224A12AA0FDF711FD3088C0
:10500000001B30802846BDE8F88F0020FBE7606871
:1050100070B9DAF80400844206D00CA340F2AB2247
:105020002AA120A0FDF7FCFC0021204600F048FA50
:10503000B8F81E10491CA8F81E10009804F014FBC4
:10504000E3E700002C160120E41500202E2E5C4D15
:105050006964646C6577617265735C5468697264D5
:105060005F50617274795C4C7749505C7372635C19
:10507000636F72655C697076345C6970345F667208
:1050800061672E630000000069705F726561737371
:105090005F70627566636F756E74203E3D20636C51
:1050A000656E0000417373657274696F6E2022250E
:1050B0007322206661696C6564206174206C696E7E
:1050C0006520256420696E2025730A006E6F7420A8
:1050D0006669727374616C74686F756768206A754D
:1050E000737420656E7175657565640070B50146F1
:1050F000164813E090F82920D3070FD053070DD599
:1051000043685BB184680D68234005EA04069E424B
:105110001AD0920702D4C268954215D000680028C0
:10512000E8D10B48006850B190F82920D30706D089
:10513000520704D5426812B109787F2904D1054984
:10514000C88F401CC887002070BD00007C1500205F
:10515000801500202C1601201022014900F002B811
:10516000201701202DE9FC430023006889466C4686
:105170001E464FF00A0C01AD0090002094F800800C
:10518000B8FBFCF70CFB1787B8FBFCF884F8008031
:1051900030372F54401CC0B2B8F1000FEED106E0FA
:1051A0001F465B1C974209DA2F5C01F8017B401E09
:1051B000C0B2F5D218465B1C904202DB0020BDE86D
:1051C000FC832E20761CF6B2641C01F8010B042E21
:1051D000D3D3002001F8010C4846F0E738B5049C11
:1051E0000094FFF77BFA38BD10B5040006D106A382
:1051F0004FF4317213A116A0FDF712FC2146BDE851
:105200001040052002F082BF2E2E5C4D6964646C54
:105210006577617265735C54686972645F5061722E
:1052200074795C4C7749505C7372635C636F726530
:105230005C697076345C6970345F667261672E6396
:10524000000000007020213D204E554C4C00000015
:10525000417373657274696F6E2022257322206614
:1052600061696C6564206174206C696E65202564D9
:1052700020696E2025730A002DE9F05F4C68064610
:1052800093460F4600254FF00108608802F09AFA15
:1052900021784FF0FF3A0907890E814231D8A0EBFF
:1052A0000109E08802F08EFAC0047C68010C00203D
:1052B000206001EB090083B2A180E3808B4220D300
:1052C000726829E05068B0F804C0614515D22260C8
:1052D0006DB1B5F806C0614513D38088834210D8FC
:1052E0002F60A088844506D04FF0000803E0808836
:1052F000834206D877608AB12EE002D0C2889142FC
:1053000002D25046BDE8F09F25B1EA88624501D03F
:105310004FF0000802680546002AD3D195B1E8880D
:10532000A188884206D92AA34FF4DB7237A13FA097
:10533000FDF776FB2F60E888A18888420CD04FF0FB
:10534000000809E0706830B121A34FF4DF7241A179
:1053500036A0FDF765FB7760BBF1000F02D1B07F8F
:10536000C007CFD0B8F1000F30D07268002A2DD01E
:1053700050688088002829D12168204629B14C68CE
:10538000C088A1888842F7D020E0B8F1000F1DD076
:1053900032B90FA340F2DF123CA124A0FDF740FB7D
:1053A00070684068A04206D109A34FF4F07237A19B
:1053B0001EA0FDF735FB206830B105A34FF4F17254
:1053C00036A11AA0FDF72CFB01209BE7002099E7EE
:1053D0002E2E5C4D6964646C6577617265735C54F4
:1053E000686972645F50617274795C4C7749505C93
:1053F0007372635C636F72655C697076345C69704C
:10540000345F667261672E63000000006368656345
:105410006B20667261676D656E747320646F6E27B2
:1054200074206F7665726C61700000004173736563
:105430007274696F6E2022257322206661696C6523
:1054400064206174206C696E6520256420696E207B
:1054500025730A006E6F2070726576696F75732010
:10546000667261676D656E742C2074686973206D57
:105470007573742062652074686520666972737440
:1054800020667261676D656E7421000073616E69DC
:10549000747920636865636B0000000076616C6955
:1054A000646174655F646174616772616D3A6E65B1
:1054B00078745F70627566213D4E554C4C0000005B
:1054C00070B504460C480D464168A14202D12168DE
:1054D00041600AE0002D06D108A340F2451216A152
:1054E0001CA0FDF79DFA206828602146BDE87040A9
:1054F000042002F00BBE0000E41500202E2E5C4DAF
:105500006964646C6577617265735C546869726420
:105510005F50617274795C4C7749505C7372635C64
:10552000636F72655C697076345C6970345F667253
:1055300061672E630000000073616E6974792063F7
:105540006865636B206C696E6B6564206C6973744D
:1055500000000000417373657274696F6E2022252C
:105560007322206661696C6564206174206C696EC9
:105570006520256420696E2025730A002DE9F04717
:10558000054600240F46A94205D12FA3AB223DA119
:105590003FA0FDF745FA002F08D03868A84205D093
:1055A00029A3AD2244A13AA0FDF73AFA6E684FF460
:1055B00080387068818800291AD1006868601422D8
:1055C00005F108017068FAF7B5FE01213046FFF7D2
:1055D00075F8304603F0E7FD0446404505D31AA3AD
:1055E000BC223AA12AA0FDF71BFA304604F03CF891
:1055F0006E6812E07068B1460668484603F0D3FD55
:105600000444444505D310A3CC2230A120A0FDF7CB
:1056100007FAA4B2484604F027F8002EEAD139462A
:105620002846FFF74DFF314D2888A04205D206A33A
:10563000D2222FA116A0FDF7F3F92888001B28809D
:105640002046BDE8F08700002E2E5C4D6964646C36
:105650006577617265735C54686972645F506172EA
:1056600074795C4C7749505C7372635C636F7265EC
:105670005C697076345C6970345F667261672E6352
:10568000000000007072657620213D206970720074
:10569000417373657274696F6E20222573222066D0
:1056A00061696C6564206174206C696E6520256495
:1056B00020696E2025730A00707265762D3E6E6536
:1056C0007874203D3D20697072000000706275663C
:1056D000735F6672656564202B20636C656E203C89
:1056E0003D2030786666666600000000E415002004
:1056F00069705F72656173735F70627566636F7501
:105700006E74203E3D2070627566735F66726565DB
:10571000640000002DE9F0471D4F8946064600242D
:105720000022134611461546786822E0D0F814C0CE
:10573000D6F80C80C4450BD1D0F818C0D6F810802C
:10574000C44505D1B0F80CC0B6F80480C44509D0F2
:105750006D1C2AB190F81FC092F81F80C44501D873
:1057600002461946D0F800C0BCF1000F00D0034635
:1057700060460028DAD11AB11046FFF7FFFE044454
:105780004C4501DA012DCBDC2046BDE8F087000056
:10579000E415002070B50948002544680BE0E07F5F
:1057A00020B1401EE0772546246804E020462468A6
:1057B0002946FFF7E3FE002CF1D170BDE41500206F
:1057C00070B50C46006841F230214518164628682D
:1057D000C10732D1800730D5B2F10A0671D414F86E
:1057E000010B14F8011B0A296BD1012869D114F8A7
:1057F000010B010214F8010B0843010214F8020B1B
:105800000843010214F8010C084301F0D9FF69684C
:10581000814256D114F8010B010214F8010B084320
:10582000010214F8020B0843010214F8010C0843AA
:1058300001F0C6FFA968814243D12868010724D539
:10584000C10601D5042100E00621761A39D414F8E6
:10585000012B14F8013B8B4233D1022A31D114F8C9
:10586000011B0A0214F8011B1143AA898A4228D19C
:10587000C1060AD414F8011BAA7B8A4221D114F86C
:10588000011BC0F340128A421BD1C00718D0B61FBB
:1058900017D414F8010B14F8011B062911D10328A1
:1058A0000FD120780102607808430102A0780843F4
:1058B0000102E078084301F083FF6968814200D16A
:1058C0000EB1002070BD012070BD2DE9F0411646DB
:1058D000006841F23022841835682068C20725D15B
:1058E000820723D50A2D1EDB012001F8010B0A20B7
:1058F00008704F1C606801F063FF010E3970010CE5
:105900007970010AB970F870A06801F059FF010EB2
:105910003971010C7971010A07F8061F791C0A3DDB
:1059200001F8010B02E020F002002060226810075D
:1059300022D5D00601D5042000E00620854218DBE0
:10594000022201F8012B01F8010BA289120A01F8C9
:10595000022B227B01F8012C2278D20607D4A27BED
:1059600001F8012B2278C2F3401201F8012B2D1A05
:1059700002E022F0080020602068C20716D0062D41
:1059800011DB032001F8010B062008704F1C606832
:1059900001F016FF010E3970010C7970010AB9701F
:1059A000F870AD1F02E020F0010020603068401B5D
:1059B0003060BDE8F08130B5016841F23020084424
:1059C00001F5915241F2502319440368DC0709D0D4
:1059D0009C0707D50C68E50704D1A40702D523F07E
:1059E00001030360127812070ED51A461B070BD469
:1059F000D30609D40B681C0706D5DB0604D542F094
:105A000018020260898981810068C10703D181077A
:105A100001D50A2100E00021020705D5C20601D503
:105A2000042202E0062200E000221144C00700D058
:105A30000620084430BD41F204221044FDF746BC64
:105A400070B5046841F25020261841F23020251824
:105A5000206A410306D520F48020206221212046BF
:105A600002F07BFF00231A461946204605F056FC3B
:105A7000204605F035FC20466968B268BDE87040F4
:105A8000FDF74CBA0068016A8A0305D521F400319C
:105A90000162212102F06EBF7047000070B501461F
:105AA00041F204200D1848F221002960E8811448D1
:105AB000686001F5915401F592562846FDF730FCD7
:105AC0006420E875206840F00200410861F300009E
:105AD00040F0080020602D20A0810F21A1732068D4
