:020000040800F2
:100000008835012081020008732300084921000877
:1000100071230008310600085D2C00080000000074
:10002000000000000000000000000000C101000806
:10003000E1080008000000001D020008A1250008DA
:100040009B0200089B0200089B0200089B0200081C
:100050009B0200089B0200089B0200089B0200080C
:100060009B0200089B0200089B0200089B020008FC
:100070009B0200089B0200089B0200089B020008EC
:100080009B0200089B0200089B0200089B020008DC
:100090009B0200089B0200089B0200089B020008CC
:1000A0009B020008412700089B0200089B020008F1
:1000B0009B0200089B0200089B0200089B020008AC
:1000C0009B0200089B0200089B0200089B0200089C
:1000D0009B0200089B0200089B0200089B0200088C
:1000E0009B0200089B0200089B0200089B0200087C
:1000F0009B0200089B0200089B0200089B0200086C
:100100009B0200089B0200089B0200089B0200085B
:10011000152800089B0200089B0200089B020008AB
:100120009B020008350600089B0200089B0200089D
:100130009B0200089B0200089B0200089B0200082B
:100140009B0200089B0200089B0200089B0200081B
:100150009B020008410600089B020008752B00085E
:100160009B0200089B0200089B0200089B020008FB
:100170009B0200089B0200089B0200080000000090
:100180009B0200089B0200089B0200089B020008DB
:100190009B0200089B0200089B0200089B020008CB
:1001A0009B0200089B0200089B020008DFF80CD0AD
:1001B00000F0A4F900480047118D0008883501209F
:1001C0002C4B19680868B0E8F04F80F30988BFF33A
:1001D0006F8F4FF0000080F311887047000000001F
:1001E00008480068006880F308884FF0000080F33A
:1001F000148862B661B6BFF34F8FBFF36F8F00DF15
:1002000000BF00BF08ED00E0DFF80C00016841F41A
:1002100070010160704700BF88ED00E0EFF30980D6
:10022000BFF36F8F134B1A681EF0100F08BF20ED3D
:10023000108A20E9F04F106009B44FF0500080F3AD
:100240001188BFF34F8FBFF36F8F14F08BF94FF00E
:10025000000080F3118809BC19680868B0E8F04F05
:100260001EF0100F08BFB0EC108A80F30988BFF3AE
:100270006F8F70472C150020EFF30580704700004A
:100280000648804706480047FEE7FEE7FEE7FEE730
:10029000FEE7FEE7FEE7FEE7FEE7FEE7552600087D
:1002A000AD0100082DE9F05F0546002092469B460F
:1002B00088460646814640241BE02846414647467C
:1002C000224600F0D2F853465A46C01A914110D344
:1002D00011461846224600F0B9F82D1A67EB0108BE
:1002E0004F4622460120002100F0B0F817EB00092C
:1002F0004E41201EA4F10104DFDC484631462A4667
:100300004346BDE8F09F000000487047CC610108FB
:10031000A0F14101192900D8203070470649074A49
:100320000868504343F2390210440860400870479F
:100330000149086070470000881600206D4EC641D4
:1003400010B5431A934209D28318881803E010F8B5
:10035000011D03F8011D521EF9D210BD40EA010330
:100360009B0703D009E008C9121F08C0042AFAD26B
:1003700003E011F8013B00F8013B521EF9D210BD19
:10038000D2B201E000F8012B491EFBD270470022D7
:10039000F6E710B513460A4604461946FFF7F0FF84
:1003A000204610BD30B505462A460B4612F8010B13
:1003B00013F8014B08B1A042F8D01CB1002802D0BC
:1003C0006D1CF1E7284630BDCAB2401E10F8011F6F
:1003D0008A4202D00029F9D100207047421C10F84F
:1003E000011B0029FBD1801A704710B5002200E0E4
:1003F000521C835C8C5CA34201D1002BF8D1D8B293
:10040000E1B2401A10BD30B504460020034600E0BA
:100410005B1C934203D2E05CCD5C401BF8D030BD46
:10042000034611F8012B00F8012B002AF9D11846D8
:10043000704770B5064602F047FC046805460A227C
:100440000021304600F021F82C6070BD202A04DB2A
:10045000203A00FA02F1002070479140C2F12003D7
:1004600020FA03F3194390407047202A04DB203A16
:1004700021FA02F00021704721FA02F3D040C2F1C4
:10048000200291400843194670472DE9F0479146F4
:100490000F4680460446002614F8015B2DB1FFF795
:1004A00033FF0068405DC007F6D12B2D02D02D2D03
:1004B00018D0641E4A463946204600F031F827B16C
:1004C0003968A14201D1C7F8008071054FF00204DC
:1004D0000BD54042002803DD02F0F6FB0460A007C4
:1004E000BDE8F08746F48066E4E70028F8DA02F019
:1004F000EBFB04606FF00040F2E70000064C074D94
:1005000006E0E06840F0010394E8070098471034E3
:10051000AC42F6D3FFF74EFE8C630108AC630108D2
:100520002DE9F05F82460078002715468B460AF1D8
:100530000104B946302801D09DB113E014F8010B35
:100540000127782803D0582801D045B10AE00DB121
:10055000102D07D10027102514F8010B02E0082503
:1005600000E00A250026B0460EE005FB080005FB6A
:1005700006F1012701EB10461FFA80F8B6F5803F1F
:1005800000D3B94614F8010B294600F018F80028EA
:10059000EBDABBF1000F05D00FB1641E00E054464A
:1005A000CBF80040B9F1000F06D002F08DFB02211C
:1005B0000160C81EBDE8F09F48EA0640FAE73A2805
:1005C00000D2303820F02002412A01D3A2F13700B6
:1005D000884201D34FF0FF30704770B58C1810F887
:1005E000015B15F0070301D110F8013B2A1106D178
:1005F00010F8012B03E010F8016B01F8016B5B1E92
:10060000F9D12B0705D40023521E0DD401F8013B6C
:10061000FAE710F8013BCB1A921C03E013F8015BD8
:1006200001F8015B521EF9D5A142D8D3002070BD5C
:10063000FEE70000014800F0EFBA0000F42A0020B5
:10064000014800F0E9BA0000542B0020016818238B
:10065000CAB2103AB2FBF3F2054B6FF30901032A59
:100660009B5CC36500D9091D816508467047000081
:10067000845C010810B5014600208B698A6A4FF03E
:10068000C07453B1B3F5005F15D072B1012A0CD01C
:10069000022A0AD0032A09D104E01AB1012A06D09D
:1006A000022A03D1C96AC90100D5012010BDC96A57
:1006B000A142FAD010BD002AF7D0012AF2D0022AB6
:1006C000F3D0032AF3D010BD30B50468256825F4B3
:1006D00080252560046863608368402B036803D02D
:1006E00099600068C26030BD9A600068C16030BD2A
:1006F00070B58AB014460E461D46282220A16846D1
:10070000FFF71EFE002C33D02189304610F016FE74
:10071000254802F0A5FA694624A002F0A1FA218931
:1007200024A002F09DFA254D20896861618921A0ED
:1007300002F096FA1C4802F093FA1B4802F090FA75
:100740001AA0616802F08CFA174802F089FA13F0D7
:100750000BFD606802F0D0FF13F026FD0120E87069
:10076000687030460DF01AF820460AF0B9FA03E036
:1007700015B130460DF012F80AB0002070BD00002F
:10078000546869732069732074686520444E53204F
:1007900073657276657220636F6E74656E74206522
:1007A00063686F3A0D0A00004062010825730D0A64
:1007B0000000000025640D0A000000001C14002049
:1007C00010B5ADF5207D0C4628221FA196A8FFF795
:1007D000B7FD2749204610F007FD4FF41671684613
:1007E000FFF7D5FD234802F03BFA96A922A002F0BC
:1007F00037FA204802F034FA1E4802F031FA1F4C52
:100800001FA104F12C026846A36902F039FA02E044
:100810000A2009F08FFB6846FFF7E0FD82B2012352
:100820006946A06A11F056FF0028F1D1694622A05E
:1008300002F016FA0F4802F013FA24A002F010FAA0
:100840000DF5207D002010BD546869732069732068
:1008500061206E657720444E5320636C69656E7429
:1008600020636F6E6E656374696F6E2E0D0A0000F3
:10087000F106000840620108257300001C140020E6
:1008800047455420257320485454502F312E310DA4
:100890000A486F73743A2025730D0A436F6E6E65B4
:1008A0006374696F6E3A206B6565702D616C697653
:1008B000650D0A0D0A0000000D0A2073656E645F65
:1008C00064617461200D0A25730D0A00636F6E6EFA
:1008D000656374207375636365737321210D0A006A
:1008E00070477047002229B101291DD002291ED06E
:1008F0004FF440720B2800D9001D0E490B6823F4F9
:1009000040730B600B6813430B600A6822F0F80217
:100910000A600A68022303EBC00002430A60086809
:1009200040F48030086070474FF48072E2E74FF483
:100930000072DFE7103C02401348016889050FD5BB
:10094000016821F400710160016841F400610160F7
:10095000016821F400610160016841F400710160E7
:10096000016849050FD5016821F4806101600168C3
:1009700041F480510160016821F4805101600168F7
:1009800041F4806101607047003C02400E4A1368E8
:1009900023F44073136003290DD0012911680FD08F
:1009A00041F40041116011684FF4803343EA0020A4
:1009B000014311607047116848F204031943F1E7DD
:1009C00041F00401EEE70000103C0240064A1368C3
:1009D00023F44073136013681360136843F001033A
:1009E0001360017070470000103C0240094910B5C7
:1009F0000C6824F440740C600C6844F440740C607F
:100A00000C6844F001040C600260BFF36F8F436018
:100A100010BD0000103C0240074A136823F44073E5
:100A20001360136843F480731360136843F0010389
:100A30001360018070470000103C0240074A1368B1
:100A400023F440731360136843F400731360136856
:100A500043F001031360016070470000103C024046
:100A60001C490868C2061C4805D5C26942F010023C
:100A7000C26110220A600A68920605D5C26942F076
:100A80000802C26120220A600A68520605D5C269BE
:100A900042F00402C26140220A600A68120605D5CB
:100AA000C26942F00202C26180220A600A68D2056D
:100AB00006D5C26942F00102C2614FF480720A6039
:100AC0000A68920705D5C26942F02002C26102207D
:100AD000086070470C3C0240482E002070B5114958
:100AE00004460020C86100F0A5FB06460E4D09E053
:100AF000601C07D024B100F09DFB801BA04201D9EF
:100B0000032070BD2868C003F2D42868C00701D054
:100B100001202860286810F4F970F2D0FFF7A0FFD8
:100B2000012070BD482E00200C3C024070B586B0FC
:100B300000240D46059403F08DFF064600F074FA7C
:100B4000022002960094CDE9035005A9684600F002
:100B5000D5F920B100F020FA002006B070BD00F0F9
:100B60001BFA0120F9E72DE9F0410446876D00F0FA
:100B700061FB064694F835000025022806D0802047
:100B8000606584F834500120BDE8F0812068016878
:100B900021F0160101602068416921F08001416166
:100BA000206C08B9A06C20B12068016821F0080110
:100BB00001602068016821F0010101600BE000F094
:100BC00039FB801B052806D92020606504F8345FB6
:100BD00003206070D8E720680068C007EFD194F860
:100BE0005C103F208840B86004F8345F01206070DA
:100BF0000020C9E790F83510022903D08021416513
:100C000001207047052180F835100068016821F047
:100C100001010160002070472DE9F84304464FF0C0
:100C20000009CDF8009063484FF41651A56D006897
:100C3000B0FBF1F72E6894F85C10082000FA01F17F
:100C400031420FD021680A6852070BD50A6822F09A
:100C500004020A6094F85C108840A860606D40F05F
:100C60000100606594F85C104FF0010808FA01F08B
:100C7000304208D021684969090604D5A860606D32
:100C800040F00200606594F85C1004208840304217
:100C900008D021680968890704D5A860606D40F014
:100CA0000400606594F85C1010208840304218D031
:100CB00021680968090714D5A860206801684903FC
:100CC00004D50068000308D5A16C07E00168C905D8
:100CD00003D4016821F008010160216C09B12046AC
:100CE000884794F85C1020208840304231D0216839
:100CF0000968C9062DD5A86094F835000528206834
:100D0000016806D0490347D5006800031DD4616C13
:100D10001CE021F0160101602068416921F080018A
:100D20004161206C08B9A06C20B12068016821F0F5
:100D30000801016094F85C103F208840A86084F8A6
:100D4000349084F83580216D1FE0E16B09B12046B5
:100D50008847606D00282BD0606DC00714D0052037
:100D600084F835002068016821F0010101600098D5
:100D7000401C0090B84203D820680068C007F6D134
:100D800084F8349084F83580E16C002910D001B0EB
:100D90002046BDE8F04308470168C905D5D401687D
:100DA00021F01001016084F8349084F83580CCE79C
:100DB000BDE8F883281500202DE9F041044600F035
:100DC00039FA06465CB1002584F83450022084F8D4
:100DD00035002068016821F0010101600DE001206B
:100DE000BDE8F08100F026FA801B052805D92020F7
:100DF0006065032084F83500F2E720680068C007CA
:100E0000F0D12268116820480140D4E90103184359
:100E1000D4E903363343184363691843A36918437D
:100E2000E3691843236A18430843616A042903D11C
:100E3000D4E90B1319430843106020684069666ABF
:100E400020F0070130460E43012704280CD1A06A88
:100E50000643E06A40B12046FFF70CFC20B1402079
:100E6000606584F83570BAE7206846612046FFF770
:100E7000EDFB94F85C203F2191408160656584F82A
:100E800035700020ACE700003F8010F02DE9F04104
:100E90000446866D90F83400002501280DD001200D
:100EA00084F8340094F835700020012F07D084F8BE
:100EB000340002252846BDE8F0810220FBE7022726
:100EC00084F8357060652046FFF7FEFB94F85C10EF
:100ED0003F208840B0602068016841F01601016041
:100EE000206C20B12068016841F008010160206891
:100EF000016841F001010160DCE700002DE9F047E5
:100F0000044623480F46017E01290AD0012180466C
:100F100001764CF250394846FFF7E0FD020003D05D
:100F200030E00220BDE8F0874FF0FF3038602068E5
:100F3000184D012801D0A6681DE0207C6168FFF7EC
:100F400025FD4846FFF7CAFD0246286848F204011D
:100F50008843286014E0217C3046FFF7C3FC4846F4
:100F6000FFF7BCFD0200286820F0FA00286001D0DD
:100F70003E6005E0761CD4E902100844B042EAD88D
:100F8000FFF7DAFC002188F818101046CAE70000C5
:100F9000482E0020103C02400348016841F0004107
:100FA0000160002070470000103C02402DE9F0472E
:100FB0001B4E05461446307E1F468946012808D040
:100FC000012030764CF250384046FFF787FD18B1CB
:100FD00014E00220BDE8F0879DB1012D16D0022D4E
:100FE00019D022463B464846FFF700FD4046FFF732
:100FF00075FD0C490A6822F001020A600021317671
:10100000E8E7E1B24846FFF7E1FCEFE7A1B2484666
:10101000FFF702FDEAE721464846FFF70FFDE5E747
:10102000482E0020103C0240074900200A68002A90
:1010300009DA054A054B0C3A1360054B1360096841
:10104000002900DA01207047103C02402301674567
:10105000AB89EFCD2DE9F84F00224FF001080325B1
:101060004FF00F0E0B6808FA02F42340A3426ED132
:101070004E68012E05D0022E03D0112E01D0122E63
:1010800012D186684FEA420C05FA0CF7BE43CF68CE
:1010900007FA0CF7374387604668A6430C79C4F318
:1010A0000014944034434460C668570005FA07FCB6
:1010B0008C6826EA0C06BC403443C4604C68022CA1
:1010C00001D0122C13D1D40800EB8404A346D4F829
:1010D000209054074FEAD46A0EFA0AF629EA060964
:1010E0000E6906FA0AF646EA0906CBF8206004689B
:1010F0000E7924EA0C0406F00306BE40264306607F
:101100004C68E4006FD53B4C266846F48046266068
:10111000246822F0030604F480440094364C3444DE
:10112000A446D4F808489607360F0EFA06F7BC43D3
:10113000324FB84201D100272EE0314FB84201D1E1
:10114000012729E02F4FB84202D1022724E04AE0CC
:101150002D4FB84201D103271EE02C4FB84201D1D8
:10116000042719E02A4FB84201D1052714E0294F7E
:10117000B84201D106270FE0274FB84201D1072717
:101180000AE0264FB84201D1082705E0244FB842B3
:1011900001D1092700E00A27B7402743CCF8087897
:1011A000204E34684F689C43FF0300D51C433460D5
:1011B0001C4E361D34684F689C43BF0300D51C434A
:1011C0003460184E083634684F689C43FF0200D5DF
:1011D0001C433460134E0C3634684F689C43BF0286
:1011E00000D51C433460521C102AFFF43BAFBDE80D
:1011F000F88F0000443802400030014000000240F7
:101200000004024000080240000C024000100240AE
:101210000014024000180240001C0240002002405E
:1012200000240240003C01400AB18161704709047A
:10123000FBE7000001488068704700001C15002093
:101240000248816802781144816070471C150020B3
:101250000B4810B5016841F400710160016841F468
:1012600080610160016841F480710160032000F039
:1012700089F8002000F006F800F03EF8002010BDCC
:10128000003C024010B5014688B00022192000F051
:1012900059F8192000F048F813480024016841F07B
:1012A00001010160006805A900F001000690684690
:1012B00000F04CF900F07AF90C494000B0FBF1F174
:1012C0000C480B4A491E026040F2E732C0E9032491
:1012D000C0E9011400F05AFB10B1012008B010BDA4
:1012E000044800F06FFBF9E74438024040420F0029
:1012F00000000140082E00200A4808B5016841F4AA
:1013000080410160006800F4804000900548001FA3
:10131000016841F080510160006800F08050009049
:1013200008BD000044380240002809DB00F01F021D
:10133000012191404009800000F1E020C0F8001137
:1013400070470000F0B40E4B1B680C46C3F3022339
:10135000C3F10705042D00D90425191D072901D261
:10136000002300E0DB1E012606FA05F1491E21409C
:1013700099409E40761E16403143F0BC01F094BC6B
:101380000CED00E0064900F0070208684FF6FF0385
:10139000184040EA0220034A1043086070470000EA
:1013A0000CED00E00000FA052DE9F843174801684C
:1013B00041F0805101600068154F00F08050012617
:1013C00000903E64FFF736FF05464FF47A78114CE3
:1013D00005E000BFFFF72EFF401B40450DD86068B9
:1013E000C003F7D57E64FFF725FF0546464607E0B4
:1013F000FFF720FF401BB04202D90320BDE8F8836D
:1014000060688003F4D50020F8E70000403802400F
:1014100000000E42007000402DE9F0470E46050026
:1014200065D0DFF81481D8F80000F7B200F00F00A3
:10143000B04207D288F80070D8F8000000F00F0022
:10144000B04254D128683D4C810712D5400703D5DE
:10145000206840F4E05020602878000703D5206819
:1014600040F4604020602068A96820F0F000084344
:1014700020602878C0072DD03049686808390128D5
:1014800012D0022813D0032811D009688907002937
:101490002DDA216821F0030101432160FFF7CAFE24
:1014A000814641F2883A0EE009688903EFE709684E
:1014B0008901ECE7FFF7BEFEA0EB0901514502D917
:1014C0000320BDE8F0872068696800F00C00B0EBED
:1014D000810FEFD1D8F80010404601F00F01B14262
:1014E00007D90770006800F00F00B04201D001205A
:1014F000E7E72878400705D52068E96820F4E05040
:10150000084320602878000706D52068296920F460
:10151000604040EAC100206000F058F82168084AA5
:10152000C1F30311515CC8400649086006480068D1
:10153000FFF7A8FE0020C4E7003C02400838024044
:101540008C5C010828150020201500200F22026065
:101550000C4A136803F003034360136803F0F003BD
:101560008360136803F4E053C36012684FF4E053E0
:1015700003EAD20202610448006800F00F0008602C
:101580007047000008380240003C0240044805490A
:1015900000680968044AC1F38221515CC840704761
:1015A00028150020083802409C5C010804480549C1
:1015B00000680968044AC1F34231515CC840704771
:1015C00028150020083802409C5C0108154810B519
:1015D000006810F00C02144813D04110042A0FD0F8
:1015E000082A0ED10F4C241F2268236802F03F0204
:1015F0005B0207D52068C0F38810A0FB010106E05C
:10160000084610BD2168C1F38811A1FB0001002329
:10161000FEF748FE2168C1F30141491C4900B0FBB7
:10162000F1F010BD083802400024F4002DE9F84F15
:1016300004006ED02078DFF83C93C007A9F10405C0
:101640004AD009F104000168C1F38101012908D0E1
:101650000068C0F3810002280AD1D9F800004002D6
:1016600006D52868800337D560680028E1D033E0CC
:101670006068B0F5803F10D0B0F5A02F286810D07A
:1016800020F480302860286820F48020286060687A
:10169000A8B1FFF7CFFD06460DE0286840F4803082
:1016A000F4E740F480202860F7E700BFFFF7C2FDB1
:1016B000801B642873D828688003F7D50CE0FFF7F7
:1016C000B9FD064605E000BFFFF7B4FD801B6428A6
:1016D000F0D828688003F7D42078DFF89C82800750
:1016E0004FF0000A3ED5A348001D016811F00C0F11
:1016F00008D00068C0F3810002280BD1D9F800009F
:10170000400207D42868800716D5E068012800D178
:1017100012E02BE1E068B8B10120C8F80000FFF743
:1017200089FD064605E000BFFFF784FD801B022807
:10173000C0D828688007F7D52868216920F0F8000C
:1017400040EAC10028600DE0C8F800A0FFF772FD74
:10175000064604E0FFF76EFD801B02281FD82868AC
:101760008007F7D42078000722D5824E834861692C
:10177000703671B101210160FFF75CFD074604E09E
:10178000FFF758FDC01B022809D830688007F7D53D
:101790000EE0C0F800A0FFF74DFD074605E082E02F
:1017A000FFF748FDC01B02287DD830688007F7D4BA
:1017B0002078400768D5DFF8BCB100270BF13C0B5F
:1017C000DBF80000C0000BD4DBF8001041F08051C2
:1017D000CBF80010DBF80000012700F080500090EB
:1017E000674E3068C00510D4306840F480703060B7
:1017F000FFF720FD009005E0FFF71CFD0099401A5F
:10180000022850D83068C005F6D55A4EA0686C360C
:1018100001280FD00528306810D020F0010030607A
:10182000306820F004003060A068B8B1FFF702FD16
:1018300000900FE0306840F00100F4E740F0040051
:101840003060F7E7FFF7F6FC0099411A41F2883063
:10185000814266D830688007F4D50EE0FFF7EAFCD5
:10186000009007E0FFF7E6FC0099411A41F288304A
:10187000814256D830688007F4D42FB1DBF80010CD
:1018800021F08051CBF80010A069C8B33949091D77
:101890000968C1F3810102294AD00228504607D0C5
:1018A000C8F8600000E03CE0FFF7C4FC04463BE001
:1018B0004746C8F86000FFF7BDFC064605E000BFDC
:1018C000FFF7B8FC801B02282BD828688001F7D4CA
:1018D000D4E907010843A16A2A4A490802EB0141F9
:1018E000626A41EA8211084394F82C1040EA0161CF
:1018F000C9F8001001203866FFF79CFC044606E09A
:1019000036E000BFFFF796FC001B022809D82868C4
:101910008001F7D52CE000BFFFF78CFC001B0228EC
:1019200002D90320BDE8F88F28688001F4D41FE0B5
:101930000128F7D0D9F80000E26900F48001914253
:1019400014D1226A00F03F0191420FD147F6C071D5
:10195000626A0140914209D1A26A00F44031914289
:1019600004D1E16A00F07060884201D00120D9E71B
:101970000020D7E70438024000004742800E47426B
:10198000007000400000FFFF7047704710B5040072
:1019900003D094F83D0010B107E0012010BD0020F5
:1019A00084F83C00204600F00CF8022084F83D004A
:1019B000211D206800F0CAFE012084F83D000020AF
:1019C00010BD70470168CA6842F00102CA60006831
:1019D000816801F00701062903D0016841F0010187
:1019E000016000207047704770B5044600680169C7
:1019F0004FF00005C943890715D4C168C943890759
:101A000011D4E91E016101202077206880698007D8
:101A1000204602D0FFF7E7FF04E000F098F82046E8
:101A200000F096F8257720680169C943490717D463
:101A3000C168C943490713D46FF004010161022052
:101A400020772068806910F4407F204602D0FFF79D
:101A5000CAFF04E000F07BF8204600F079F8257713
:101A600020680169C943090716D4C168C943090739
:101A700012D46FF008010161042020772068C0694A
:101A80008007204602D0FFF7AEFF04E000F05FF8C9
:101A9000204600F05DF8257720680169C943C90632
:101AA00017D4C168C943C90613D46FF0100101618E
:101AB000082020772068C06910F4407F204602D0BB
:101AC000FFF791FF04E000F042F8204600F040F8F4
:101AD000257720680169C943C90708D1C168C9438E
:101AE000C90704D1891E0161204600F033F820683F
:101AF0000169C943090609D4C168C943090605D467
:101B00006FF0800101612046FFF73EFF2068016908
:101B1000C943490609D4C168C943490605D46FF0D1
:101B200040010161204600F01FF820680169C943A7
:101B300089060BD4C168C943890607D46FF0200118
:101B400001612046BDE87040FFF71FBF70BD7047C0
:101B50007047000000680349884201D1FFF770BB5D
:101B60007047000000000140704708B590F8381039
:101B7000012907D0012180F8381090F83910212967
:101B800002D006E0022008BD01684A6942F08002E6
:101B90004A6190F83A100022222911D101680B689D
:101BA0004B680093CB6843F48073CB6001684B694A
:101BB00043F001034B6101684B6943F040034B6103
:101BC00080F83820002008BD10B50446006841693F
:101BD00094F83920C1F3C011212A0BD151B14169C8
:101BE00021F080014161206B08B1FEF7BCFF204667
:101BF00000F074FE2068416994F83A20C1F3801126
:101C0000222A0BD151B1416921F040014161606B41
:101C100008B1FEF7A8FF204600F052FE002010BDDC
:101C20007047000070B5026804461068D1685369B7
:101C300010F00F0F52D003F0010501F490762E43FF
:101C40005FD0C20705D0CA0503D5E26B42F001029E
:101C5000E263420705D5DA0703D0E26B42F00202E5
:101C6000E263820705D5DA0703D0E26B42F0040293
:101C7000E263020707D501F020022A4303D0E26B9A
:101C800042F00802E263E26B002A33D0800604D5FA
:101C9000880602D5204600F02AFE20684069E16BE4
:101CA000C0F38010090700D428B3204600F008FED6
:101CB0002068416949061AD5416921F04001416116
:101CC000606BA0B11B490165606BFEF793FF0028B4
:101CD00010D0606B016DBDE870400847830610D5D9
:101CE0008B060ED52046BDE8704000F000BE2046B1
:101CF000FFF796FF70BD2046FFF792FF0020E063DC
:101D000070BD030606D50B0604D52046BDE870401D
:101D100000F0CCBE4006F3D54806F1D5D168204688
:101D200021F04001D160202184F8391000F0D8F969
:101D300070BD00002128000870B5040004D094F89C
:101D40003900002510B106E0012070BD84F838503C
:101D5000204600F023F8242084F839002068C16868
:101D600021F40051C160204600F00CFE206801699A
:101D700021F4904101612068416921F02A0141610B
:101D80002068C16841F40051C160E563202084F8F7
:101D9000390084F83A00002070BD00002DE9F041C0
:101DA00086B0064614216846FEF7F1FADFF80CC14A
:101DB00031684348022203230827424D002461452D
:101DC00023D13F4910310C6844F400240C600968A9
:101DD00001F400210591016841F0040101600068EF
:101DE00002AC00F0040005909802CDE90002012049
:101DF00084E8890069462846FFF72CF9002211463D
:101E00003420FFF79FFA342053E0DFF8BCC061456F
:101E100051D12B491431D1F800C04CF0200CC1F83D
:101E200000C0096801F020010591016841F004013A
:101E300001600068694600F004000590C0208DE84C
:101E40001500CDE903372846FFF704F9204D1F4858
:101E50004FF4806887052860C5E90174C5E9034827
:101E60006C61AC61EC612C6228466C62FEF7A4FFE9
:101E700008B1FEF736FD7563AE631448154D783032
:101E8000E5E802074020A5E81101124845F8144989
:101E9000AC61EC612C626C62FEF78EFF08B1FEF75C
:101EA00020FD3563002204214720AE63FFF74AFA84
:101EB0004720FFF739FA06B0BDE8F081004C00403A
:101EC00030380240000802400014014028640240FB
:101ED000F42A0020542B0020F8B5044690F83A006C
:101EE00020283CD1C1B3BAB394F83800012836D0C9
:101EF000012084F83800A162A2850025E563222034
:101F000084F83A00636B1748D863636B164818640B
:101F1000636B1648D864606B134605650846666BAC
:101F2000216802463046091DFEF7B0FF20680168AF
:101F30004168009184F83850C16841F48071C160F3
:101F40002068416941F0010141612068416941F027
:101F5000400141610020F8BDFFE70120FBE70220BE
:101F6000F9E700007B280008B7280008312800089E
:101F700090F83A30202B22D1F9B1F2B190F83830F4
:101F8000012B1CD081628285C2850021C16322227F
:101F900080F83A2080F838100168CA6842F48072EC
:101FA000CA6001684A6942F001024A610068C1687A
:101FB00041F02001C16000207047012070470220DD
:101FC000704700001CB504460068124988420FD1D2
:101FD000114800F07FFA58B169460F4800F03CFA0A
:101FE00030B1BDF8042064230C48009900F01BF8C0
:101FF0000B49206888420CD10849642301220C391E
:10200000064800F010F8054901220C390348FFF793
:10201000AFFF1CBD0014014094160020742A00205C
:10202000004C004070472DE9F843044690F8390011
:102030001F4616460D46202850D1B5B1AEB194F8D2
:10204000380001284AD0012084F838004FF00008F9
:10205000C4F83C80212084F83900FFF7EBF8A6840F
:102060008146E68484F8388026E00120BDE8F883C4
:10207000E08C401EE084A0684B46B0F5805F4FF0D6
:1020800000024FF080012046009703D000F03FFD92
:10209000E8B90DE000F03BFDC8B928882168C0F31D
:1020A00008004860206908B16D1C05E0AD1C03E024
:1020B000216815F8010B4860E08C0028D8D14B4608
:1020C000002240212046009700F021FD08B10320A6
:1020D000CCE7202084F839000020C7E70220C5E7BC
:1020E00070477047F8B5134801F04EFE00900DF0B0
:1020F00039F8114C3222114960620BF0A9FA606A7A
:10210000002816D00E4B502269460BF0E7FC0D4913
:10211000606A0CF037F800254FF47A76606A007D2B
:10212000042806D0304607F005FF6D1CADB2052D22
:10213000F4D3F8BDA02700201C140020285E01085D
:10214000114B0008E3200008FEE70000014800F002
:10215000A5B900009416002070B50546046800F08B
:102160003DF8287C092816D1206AC00202D50AA0B1
:1021700009F06CFE294613480BF0C6F8607A4FF45C
:102180007A7110FB01F02A460E490AF0B7FF206A67
:1021900040F48010206270BD617373657274696F62
:1021A0006E206C63705F6563686F5F74696D6572E4
:1021B0005F72756E6E696E673D3D30206661696C59
:1021C00065640000C921000801680A6AD30204D5C9
:1021D00022F480120A62FFF7BFBF70472DE9FC416D
:1021E0000468054604F16406A27A002A17D094F820
:1021F000D210914213D3287C274609280CD118A06D
:1022000009F066FA1EA009F0D9FB092087F8210021
:1022100025A1384605F0FAFC002084F8D200287C7D
:1022200009281AD1B06801AB010E8DF80410010C19
:102230008DF80510010A8DF806108DF807000420AE
:10224000009014F8D32F0921501C04F801092846E6
:1022500002F04CFB2078401C2070BDE8FC8100009F
:102260004E6F20726573706F6E736520746F2025DA
:1022700064206563686F2D72657175657374730092
:1022800053657269616C206C696E6B20617070655A
:1022900061727320746F20626520646973636F6E6E
:1022A0006E65637465642E0050656572206E6F7490
:1022B00020726573706F6E64696E670070B586B06A
:1022C00014216846FEF763F819480025016841F0BB
:1022D00004010160016801F004010591016841F009
:1022E00080010160016801F080010591016841F001
:1022F00002010160016801F002010591016841F0ED
:10230000010101600068012200F00100094E140380
:10231000059021463046FEF787FF0121CDE90041B7
:10232000CDE9021569463046FEF794FE06B070BD51
:10233000303802400004024010B50C4C0A480C2111
:1023400020604FF4E13060600020A060E060C4E9EC
:102350000401A061E0612046FFF7EEFC2068C1683F
:1023600041F01001C16010BD00140140B42A0020EA
:10237000FEE7704770B515460E4608B109A000E0AB
:102380000AA000F06DFC002405E0315D09A000F01A
:1023900067FC641CA4B2AC42F7D3BDE8704007A050
:1023A00000F05EBC726563763A00000073656E648F
:1023B0003A00000025303278200000000D0A0000AD
:1023C0001CB5104C6068C0B10F4800F083F8A0B194
:1023D00069460D4800F040F878B1BDF804200120AE
:1023E0000099FFF7C7FF11F0BFFEBDF90420009967
:1023F000606809F0ABFE11F0D7FE0A2007F09AFDE5
:10240000E0E70000081400209416002010B590F9B1
:10241000D230002B07DD90F9D03090F9D140A342A3
:1024200006D1002010BD03D190F8D13080F8D03013
:1024300090F9D03000EBC303C3E9001210F9D01FAC
:102440001922491C91FBF2F302FB131101708178F0
:10245000491C8170012010BD70B5044690F8D2006F
:102460000D46002818D011F07FFE94F9D10004EB3E
:10247000C000D0E90010C5E9001014F9D10F1921EE
:10248000401C90FBF1F201FB120020706078401EAE
:10249000607011F089FE012070BD0000002180F8FD
:1024A000D01080F8D11080F8D210A0F8D41080F8A5
:1024B000D610074AC0F8C820C0F8CC204FEA010265
:1024C00040F83210521CD2B2192AF9D370470000DA
:1024D0006D17002010B5044690F8D20008B1012015
:1024E00010BD94F9D00094F9D11088420AD011F0AF
:1024F0003BFE94F8D20018B994F8D10084F8D000CB
:1025000011F052FE002010BD09A000F0A9FB06F05A
:102510005BFA0AA000F0A4FB0BA000F0A1FB42F2C2
:1025200010740DA000F09CFB204607F003FDF8E7B7
:10253000494E4954204C5749500D0A00494E4954C0
:10254000204F5645520D0A004F54412056455232F5
:102550002E300D0A0000000069646C652054617320
:102560006B2069732052756E6E6E696E670D0A007E
:102570000BF0A6FB05A000F073FB4FF47A7400206B
:1025800011F0E2FE204607F0D5FCF8E752544F5315
:102590002049532052554E4E494E470D0A00000027
:1025A00010B5502080F31188BFF34F8FBFF36F8FAA
:1025B00013F09AF918B104494FF0805008600020D8
:1025C00080F3118810BD000004ED00E030B593B039
:1025D00030216846FDF7DBFE14210CA8FDF7D7FE7D
:1025E0001A480025016841F080510160006800F040
:1025F000805011901648016841F440410160006824
:10260000022400F440401190012003901020049017
:10261000009406940820CDE90750B420CDE90904C0
:1026200004200B906846FFF701F8FEF7BDFE0CA9E9
:102630000F2081E831004FF4A0500F90E00210907D
:1026400005210CA8FEF7E8FE13B030BD403802406B
:10265000007000400548016841F4700101600349C1
:102660004FF00060803908607047000088ED00E09E
:1026700070B58AB014460E461D46242221A1684634
:10268000FDF75EFE002C34D0218930460EF056FE58
:10269000254800F0E5FA694624A000F0E1FA218916
:1026A00024A000F0DDFA254D20896861618921A010
:1026B00000F0D6FA1C4800F0D3FA1B4800F0D0FA1C
:1026C0001AA0616800F0CCFA174800F0C9FA11F0BE
:1026D0004BFD606802F064FA11F066FD204608F0D8
:1026E000FFFAA87858B1322007F024FC06F080FBEE
:1026F00005E025B130460BF051F8FFF7F3FC0AB0C6
:10270000002070BD54686973206973207468652067
:1027100073657276657220636F6E74656E74206582
:1027200063686F3A0D0A00004062010825730D0AC4
:102730000000000025640D0A000000001C140020A9
:102740000148FFF751B90000082E0020F0B50268DB
:10275000254C264D264E274F274B4FF0804CA0424C
:1027600009D0604507D0A84205D0B04203D0B84296
:1027700001D0984204D122F0700E4A6842EA0E025B
:10278000A0421BD0604519D0A84217D0B04215D046
:10279000B84213D0984211D0184DA8420ED0184D0F
:1027A000A8420BD0174DA84208D0174DA84205D01B
:1027B000164DA84202D0164DA84203D122F440750E
:1027C000CA682A434D6922F080022A4302608A685F
:1027D000C2620A688262A04201D0984201D10969AE
:1027E000016301214161F0BD00000140000400408F
:1027F00000080040000C004000040140004001407F
:10280000004401400048014000180040001C004006
:10281000002000400148FFF705BA0000742A00209C
:1028200010B5806B0021C185C184FFF7F9F910BD97
:1028300070B5846B2068406994F83910C0F3C010FB
:102840000025212904D118B1E584204600F046F87E
:102850002068406994F83A10C0F38010222904D10E
:1028600018B1E585204600F02BF8E06B40F0100031
:10287000E0632046FFF7D4F970BD10B50146806BC8
:1028800009680968C90513D40021C1850168CA68AF
:1028900022F48072CA6001684A6922F001024A612A
:1028A00001684A6922F040024A61202180F83A100A
:1028B000FFF788FB10BD10B5806BFFF7B3FB10BDB1
:1028C0000168CA6822F49072CA6001684A6922F0FD
:1028D00001024A61202180F83A1070470168CA68F5
:1028E00022F0C002CA60202180F83910704710B56C
:1028F00090F83A10222901D0022010BD8168B1F56C
:10290000805F11D00169002901681FD0496801F07A
:102910007F03816A4A1C82620B70C18D491E0904C3
:10292000090CC18518D02BE00269816A002A02686F
:10293000526805D0D2B20A80816A491C8162ECE7F4
:10294000C2F308020A80816A891CF7E74A68816A33
:102950004B1C83620A70E0E70168CA6822F020021B
:10296000CA600168CA6822F48072CA6001684A6954
:1029700022F001024A61202180F83A10FFF722FB81
:10298000002010BD2DE9F041044600680169E268AD
:1029900021F44051114301612169A068E2690843B3
:1029A0006169114308432168CA6849F20C639A437C
:1029B0000243CA6020684169A26921F44071114351
:1029C0004161E069192764253226B0F5004F354A88
:1029D000354920684FF0000806D0884201D0904267
:1029E00036D1FEF7E3FD35E0884201D0904202D1B6
:1029F000FEF7DCFD01E0FEF7C9FD61684A18A0FBA7
:102A0000070148EB0803FDF74DFC0146B0FBF5F06C
:102A10000201B1FBF5F06FF01803584301EB8000A1
:102A200006EBC000B0FBF5F000F0F80002EB40024E
:102A3000B1FBF5F0584301EB800006EBC000B0FBA2
:102A4000F5F000F00700216810448860BDE8F081CF
:102A5000FEF79CFD61688B0F8A00A0FB0701FDF764
:102A600021FC0146B0FBF5F06FF01802504301EB7A
:102A7000800006EB0010B0FBF5F000F0F002B1FBB7
:102A8000F5F002EB0012B1FBF5F06FF018035843BC
:102A900001EB800006EB0010B0FBF5F000F00F003A
:102AA000D1E70000001401400010014090F83910F7
:102AB000212901D0022070478168B1F5805F016A49
:102AC0000BD04A1C0262026809785160C18C491E11
:102AD0000904090CC1840ED017E009880268C1F30B
:102AE0000801516001690029016A02D0491C016294
:102AF000ECE7891CFBE70168CA6822F08002CA6023
:102B00000068C16841F04001C160002070472DE9B4
:102B1000F041984617460E460446069D1DE0681C87
:102B20001BD02DB1FEF786FBA0EB0800A84214D9FC
:102B30002068C16821F4D071C1602068416921F02A
:102B400001014161202084F8390084F83A00002016
:102B500084F838000320BDE8F0812068006836EA78
:102B6000000004D00020B842D9D00020F3E70120B3
:102B7000F9E7000010B50449044800F009F8BDE881
:102B800010400248FFF74EB894160020B42A0020E7
:102B90002DE9F843804600680C460168C943C90620
:102BA0003DD401680027406800904046FFF70CF8CC
:102BB0001C48006840684FF40066B04224D0C0F55D
:102BC0000060B04220D2184DA880D4F8CC10296003
:102BD00020466A68FFF71AFCC8B1B4F8D410B5F9FA
:102BE0000400014409B2A4F8D410C1F58051B142E7
:102BF00003DBD4F8CC10084403E0A4F8D470D4F874
:102C0000C800C4F8CC0002E04046FEF7AEFF3246F2
:102C10004046D4F8CC10BDE8F843FFF75DB9BDE8F5
:102C2000F8830000F42A00200014002010B50446A8
:102C30006423FFF7F8F900280CD02046FEF795FF33
:102C400005484FF40062D0F8CC102046BDE8104093
:102C5000FFF742B910BD000094160020FEE7000007
:102C60000FB4054B10B503A9044A029800F040F8D0
:102C700010BC5DF814FB0000C54000088C16002055
:102C80000FB4084B10B504A902AA039800F030F85D
:102C9000044602A9002000F05CFA204610BC5DF852
:102CA00014FB0000533100080907090E002804DB5B
:102CB00000F1E02080F80014704700F00F0000F1F0
:102CC000E02080F8141D70470048704790160020DF
:102CD00002E008C8121F08C1002AFAD170477047E5
:102CE000002001E001C1121F002AFBD17047000043
:102CF0002DE9FF4F8DB00F460546002606E025283A
:102D00000BD0DDE90F1290476D1C761C2878002847
:102D1000F5D111B03046BDE8F08F0024A246A1469F
:102D20000122EC4900E0044315F8013F203B02FA80
:102D300003F00842F7D128782A2810D06FF02F022C
:102D40002878A0F13001092914D80AEB8A0102EB96
:102D5000410144F0020400EB010A6D1CF0E701CFD1
:102D60005FEA000A03D544F40054CAF1000A44F0B3
:102D700002046D1C28782E2817D115F8010F44F095
:102D800004042A280ED06FF02F022878A0F1300119
:102D900009290AD809EB890102EB410100EB01097D
:102DA0006D1CF2E757F8049B6D1C28786C280FD037
:102DB00006DC4C2817D068280DD06A2814D104E00E
:102DC000742810D07A280FD10DE044F400140AE0E2
:102DD00044F4801401E044F440146978814202D143
:102DE00004F580146D1C6D1C2A786E2A1FD00CDC33
:102DF000632A31D004DC002A8BD0582A11D1A3E0F9
:102E0000642A68D0692A0CD165E0732A2ED004DCCC
:102E10006F2A73D0702A04D19BE0752A6FD0782A6C
:102E20006ED01046DDE90F129047761C50E1C4F3D6
:102E30000250022806D0032809D0042801CF09D067
:102E4000066045E101CFF117C0E9006140E101CF23
:102E500006803DE106703BE117F8040B8DF8000099
:102E600000208DF80100EB46012003E057F804BB79
:102E70004FF0FF3061074FF0000102D40DE008F180
:102E80000101884649450FDA8045F8DB1BF8081038
:102E90000029F4D108E008F1010188468142FADBFB
:102EA0001BF808100029F6D1DDE90F23AAEB080072
:102EB0008146214600F036F9304400EB080604E074
:102EC000DDE90F121BF8010B9047B8F10108F7D2AA
:102ED00021464846F7E00A21C4F302534FF0000BA5
:102EE0000891022B04D001CFC117032B09D00AE0AF
:102EF000FF1D27F00707F7E8020108E032E01FE0B6
:102F000020E000B2C117042B01D140B2C117031E4B
:102F100071F1000307DA4FF0000CD0EB0C006CEB02
:102F200001012D2302E0230504D52B238DF8243045
:102F3000012303E0E30701D02023F7E7984658E098
:102F40000A2110E010210EE010204FF0000B089035
:102F50000CE010214FF0000B44F004044FF008097E
:102F6000089103E008214FF0000B0891C4F30253CD
:102F7000022B04D001CF0021032B06D006E0FF1D59
:102F800027F00707F7E8020103E080B2042B00D125
:102F9000C0B24FF0000823072BD5702A07D0DDF808
:102FA00020C08CF0100C5CEA0B0C05D00EE0402326
:102FB0008DF82430012308E050EA010306D03023C5
:102FC0008DF824308DF8252002239846DDF820C0A6
:102FD0008CF0080C5CEA0B0C0BD150EA010301D118
:102FE000630706D530238DF824304FF00108A9F18E
:102FF0000109582A04D038A20B9208AA0A920BE0C1
:103000003AA2F9E75B46089AFDF74CF90B9B9B5CEB
:103010000A9A521E0A92137050EA0102F2D10A98DB
:10302000ADEB000000F1200B600702D524F48034E2
:1030300001E04FF00109D94502DDA9EB0B0000E0EA
:10304000002000EB0B0141440890AAEB010AE003C9
:1030500006D4DDE90F232146504600F063F806440C
:103060004FF0000908E009A911F80900DDE90F1285
:10307000904709F10109761CC145F4DBE0030CD54A
:10308000DDE90F232146504600F04CF8064404E0E9
:10309000DDE90F1230209047761C0899481E0890F1
:1030A0000029F5DC08E00A980A990078491C0A9181
:1030B000DDE90F129047761CBBF10001ABF1010B6B
:1030C000F1DC21465046DDE90F2300F019F80644F3
:1030D0006D1C1BE609280100303132333435363798
:1030E0003839616263646566000000003031323354
:1030F00034353637383941424344454600000000F4
:103100002DE9F041044600251E461746880404D4E4
:1031100005E039462020B0476D1C641EF9D52846CD
:10312000BDE8F0812DE9F041044600251E46904699
:10313000C80301D5302700E02027880404D505E026
:1031400041463846B0476D1C641EF9D52846BDE897
:10315000F0810A68531C0B601070704770B51446FC
:103160000D46002000F00EFC0068A84203D108497B
:10317000002000F031FE012000F004FC0068A042B5
:1031800003D10349012000F027FE012070BD00009B
:10319000285E010810B5044BC069044A194606F0C0
:1031A000B1FD012010BD0000285E01082C5E010861
:1031B0003EB50446054806A38DE8070000F51972E0
:1031C00005492046FFF75CFD20463EBDA0270020B4
:1031D0006C7749502F000000D8610108074C02E0CD
:1031E0000A2006F0A7FE20780028F9D001F02CFF75
:1031F00001F036FF0A2006F09DFEF9E708140020D2
:103200002DE9F041054600244FF440470F4E0CE0F5
:103210000188B94208D2816931B12846884795F8BA
:10322000D400401C85F8D400641C56F82400002803
:10323000EED195F8D400002805D12846BDE8F0412C
:1032400003A104F0E3BCBDE8F0810000F85E0108D2
:103250004E6F206E6574776F726B2070726F746F33
:10326000636F6C732072756E6E696E67000000008C
:103270002DE9F047244E254D002400BF55F82400C9
:1032800020B1641CE4B2042CF8D329E0042C27D22A
:103290002E2010F0F4FB07004FF0000812D04FF47E
:1032A000806900BFFDF73AF882B24A45FAD318495F
:1032B000384610F079F910F1080FF3D020B13846F4
:1032C00010F024FC474604E000221249384610F072
:1032D000D9FB45F824701FB134702046BDE8F08753
:1032E00030780021401CC0B2042800D3002055F8DB
:1032F00020200AB13070F1E7491C401CC9B2C0B2AD
:103300000429F1D30420E9E77C160020042D0120D4
:10331000285E0108C139000801004FF000000AD002
:10332000C97A4A1C022A06D2034A02EB8101496883
:10333000002900D001207047801600202DE9F35F9E
:10334000DFF88880064600EB0611A8F5886900259D
:1033500009EB0114AA4604F1100B00BF05EB450769
:10336000404658F8273053B100EB87010A7AB24241
:1033700005D14A6858460199984748F827A06D1C1E
:10338000EDB2042DEAD3002104254846B1420DD008
:1033900001EB011200EB0212937A022B06D1D27BD1
:1033A000E37B9A4202D1E573BDE8FC9F491CC9B298
:1033B0000429EBD3E07B0428F6D2054E56F8200012
:1033C00010F0A4FBE17B46F821A0ECE7543101208A
:1033D000042D01202DE9F0410746324E00EB071085
:1033E00006EB0014042F06D32FA340F21C423AA18F
:1033F00040A0FFF735FCA07A002850D000254FF000
:10340000010801280CD0022821D0032841D0BDE8B2
:10341000F04125A340F25B4240A136A0FFF720BC5B
:10342000FCF77CFF81B2002000EB001206EB0212D9
:10343000937A022B02D112898A42F1D0401CC0B289
:103440000428F1D321810220A072E57218E0207BCC
:10345000401E10F0FF00207321D1607B401CC0B2E1
:103460006073042805D020733846BDE8F04100F0B1
:10347000B7BB2046FFF750FF30B1E07A401CE07246
:1034800084F80C806573EFE700213846FFF756FF9C
:1034900004E0206810B1401E206000D1A572BDE894
:1034A000F0810000142D01202E2E5C4D6964646CA7
:1034B0006577617265735C54686972645F506172AC
:1034C00074795C4C7749505C7372635C636F7265AE
:1034D0005C646E732E630000617272617920696EA4
:1034E000646578206F7574206F6620626F756E64F6
:1034F00073000000417373657274696F6E2022253A
:103500007322206661696C6564206174206C696E49
:103510006520256420696E2025730A00756E6B6E28
:103520006F776E20646E735F7461626C6520656E88
:103530007472792073746174653A00002DE9F04764
:103540008A46814614464FF6FF782146504607F0DA
:1035500045FF05002BD44046844228D0641CC5F3A7
:103560008111A4B2032923D017E02146504607F069
:1035700035FF06001BD499F80000FCF7C9FE07468A
:10358000F0B2FCF7C5FE874211D1404644450FD04A
:10359000641CA4B209F101096D1E002DE5DC09F1DE
:1035A00001092146504607F019FF002802DA40467B
:1035B000BDE8F087C9D140468442F9D0641CA0B26E
:1035C000F6E700002DE9FF5FDFF824819946924677
:1035D0000F4600244FF4807508F5886604EB04104C
:1035E00008EB0011887A02280FD12A461031009882
:1035F00005F056FB48B900BF00EB400156F821101A
:10360000B9B1401CC0B20428F6D3641CE4B2042C47
:10361000E4D3DFF8E0B0002104209BF801200C4641
:1036200004EB041308EB0315AB7ABBB1032B0AD0F0
:1036300010E000EB400046F820A006EB8000C0F848
:103640000490047251E0AB7BD31ADBB28B4201D9F8
:1036500019462046641CE4B2042CE1D3042C09D1A1
:10366000042812D200EB001108EB0115A97A0329F6
:103670000BD104465FF0000000EB400156F821102A
:1036800041B1401CC0B20428F6D34FF0FF3004B063
:10369000BDE8F09F00EB400016EB8006F5D001205E
:1036A0003472A872AA73C6E900A9FF2F00D3FF27BE
:1036B0003A4605F110000099FCF742FEE9194FF077
:1036C000000881F81080FFF7D3FDE873042804D3C5
:1036D00085F80A80C6F80080D7E79BF801102046DD
:1036E000491C8BF80110FFF775FE6FF00400CEE760
:1036F000142D01207C16002030B5ADF57B7D0446ED
:103700004FF4967529466846FCF741FE29464BA8BA
:10371000FCF73DFE982196A8FCF739FE41A1204612
:10372000FCF740FE01466846FCF77AFE40A12046C1
:10373000FCF738FE01464BA8FCF772FE6846FCF722
:103740004DFE024669463EA0FFF78AFA4BA8FCF7F9
:1037500045FE02464BA93FA0FFF782FA6846FCF7F8
:103760003DFE04464BA8FCF739FE221A694696A88E
:10377000921EFCF7E5FD96A8FCF730FE024696A9DE
:1037800039A0FFF76DFA3DA196A8FCF70BFE0146A4
:1037900096A8FCF745FE96A8FCF720FE024696A9DF
:1037A00038A0FFF75DFA0DF25F21BCA8FCF738FEE8
:1037B000BCA939A0FFF754FA64213E48FCF7E7FDA5
:1037C0002F21BCA8FCF700FEFCF708FE04462F21C1
:1037D000BCA8FCF7F9FD014622463648FCF7B0FDCF
:1037E000344935A0FFF73CFA3248FCF7F7FDC4B284
:1037F000BCA8FCF7F3FDC5B26421E2A8FCF7C7FD45
:103800002A1BBCA9E2A8FCF79BFD6422E2A9304870
:10381000FCF796FD2E492FA0FFF722FA0DF57B7DD0
:103820002B4830BD4C6F636174696F6E00000000FF
:103830004169722D5570677261646554696D6500E8
:1038400031436F756E74202B2B202C25732C25642F
:103850000D0A000032436F756E74202B2B202C252F
:10386000732C25640D0A000033436F756E74202B92
:103870002B202C25732C25640D0A000068747470AD
:103880000000000034436F756E74202B2B202C2514
:10389000732C25640D0A0000485A5F485454505F49
:1038A00055524C5F476574206973202573200D0ABB
:1038B00000000000042A002062696E2066696C65C1
:1038C000206E616D65206973202573200D0A00004C
:1038D000A0270020747275655F7365727665725FEC
:1038E0006E616D652069732025730D0A000000006C
:1038F0002DE9F05F9A4693460D0006466FF00F04DF
:1039000008D03EB1307828B13046FCF767FD8046DC
:10391000FF2802D92046BDE8F09F2946304602F034
:1039200009FB30BB154F00244FF4807904EB0410E1
:1039300007EB0011887A032805D14A46304610313A
:1039400005F0AEF970B1641CE4B2042CEED30C485F
:10395000006880B153465A4641463046BDE8F05FA4
:10396000FFF730BE2DB104EB041007EB00104068E8
:1039700028600020CFE76FF00500CCE7142D012070
:1039800080160020022803D2024901EB8000704714
:103990000148704780160020285E010808B504A081
:1039A00002F0C4FE00906946002000F015FA08BD40
:1039B0003131342E3131342E3131342E3131340025
:1039C0002DE9F04F10898DB09A469146102866D3A4
:1039D00000230C2207A9484607F07CF80C285ED18A
:1039E000BDF81C0005F09AF8DFF8E881002500BF5B
:1039F00005EB051208EB0216B17A02297ED1318956
:103A00008142FBD1BDF8200005F088F80446BDF8DE
:103A1000220005F083F807469DF81E0000063ED5FB
:103A2000012CDCD1F17A6C4ADAF8000052F821104E
:103A30008842D4D10C22494606F11000FFF77EFDE2
:103A40000446A0F57F40FF3829D0234604220AA966
:103A5000484607F03FF8042821D1BDF82A10B1F5F7
:103A6000807F1CD1BDF82810B1F5807F17D1241DAF
:103A7000B4F5803F13D29DF81F00A4B200074FF0A9
:103A8000000A4FF0030B5CD03046FFF745FCB0B3A3
:103A900086F80DB0012030732846FFF79BFC94E0B8
:103AA0004E462146641CA4B2304607F097FC00281D
:103AB0007EDB002C7CD0C0F3811103290BD031892F
:103AC0002044884274DA84B22146304607F086FCEE
:103AD00000287ADBE5D14FF6FF70844275D0641C74
:103AE000A4B2844271D023460A2204A9484606F0B3
:103AF000F1FF0A2869D14FF4803601E060E025E04B
:103B00000A34B44261D2BDF812103012A4B281421C
:103B100008D1BDF81010814204D1BDF81800B0F5ED
:103B2000806F23D0BDF8180004F0F8FF2044B042A5
:103B30004BD2BDF8180004F0F1FF20447F1E84B280
:103B4000BFB21FB1B9F80800A042A9D8484607F093
:103B5000C7F800212846FFF7F1FB05EB051208EB3B
:103B6000021181F80AA00DB0BDE8F08F23460422AF
:103B700001A9484606F0AEFF042826D105EB051240
:103B800008EB021401994846616007F0A9F805980E
:103B900004F0C2FF114984F80AB02060884200D9BD
:103BA0002160211D2846FFF7C9FB2068002800E09E
:103BB0000BE0D8D1A07A0328D5D184F80AA0D2E7A7
:103BC0006D1CEDB2042DFFF413AF484607F088F8E2
:103BD000C9E70000142D012080160020803A09005A
:103BE0002DE9FF5F04464A4900EB041001EB001584
:103BF000E87A022806D347A340F2FA2251A157A03F
:103C0000FFF72EF8E97A5F48002650F8210040B30C
:103C100005F110000446FCF7E1FB123081B24FF4CD
:103C20002072362006F0B0FB5FEA000A65D00096ED
:103C300001960296288904F071FFADF8000001207A
:103C40008DF802004FF4807BADF804B00C22694679
:103C5000504607F097FA0C26641E641C2746002283
:103C60000BE000212046FFF769FBAE72002004B094
:103C7000BDE8F09F521CD2B2641C20782E2801D0DF
:103C80000028F7D1E01B1FFA80F9B01800F10108F5
:103C9000B8F5803F35D23146504607F005F9761C1D
:103CA000B3B24A463946504607F028FB20781FFA3F
:103CB00088F60028D1D100223146504607F0F4F8AA
:103CC000761CADF80CB0B3B2ADF80EB0042203A967
:103CD000504607F013FBEA7A2A49E87B01EB82029F
:103CE0000B493523103951F8200051460FF066FF7B
:103CF0000446504606F0F4FF01E04FF0FF34204642
:103D0000B5E7504606F0ECFF6FF00500AFE70000A6
:103D1000142D01202E2E5C4D6964646C65776172F0
:103D200065735C54686972645F50617274795C4C4D
:103D30007749505C7372635C636F72655C646E7329
:103D40002E630000646E7320736572766572206F57
:103D50007574206F662061727261790041737365BA
:103D60007274696F6E2022257322206661696C650A
:103D700064206174206C696E6520256420696E2062
:103D800025730A008016002038B5044609A0FEF706
:103D900067FF6946204605F057FD48B9684602F0BE
:103DA00091F9684602F08EF9014606A0FEF758FF29
:103DB000009838BD535441525420444E5320212181
:103DC0000D0A000020202049502049532020203D8A
:103DD000202573200A000000022805D2044A02EBC5
:103DE000800011B10968016070470249FAE70000DC
:103DF00080160020285E010810B500242046FFF739
:103E0000E9FA641CE4B2042CF8D310BD70B5054681
:103E10000C46880706D00BA34FF4B67215A11DA05F
:103E2000FEF71EFF09F03AF82A689188491E918032
:103E3000E96809682160E9680C60BDE8704009F034
:103E400055B800002E2E5C4D6964646C6577617214
:103E500065735C54686972645F50617274795C4C1C
:103E60007749505C7372635C636F72655C6D656DFE
:103E7000702E63006D656D705F667265653A206DCA
:103E8000656D2070726F7065726C7920616C696706
:103E90006E656400417373657274696F6E202225CC
:103EA0007322206661696C6564206174206C696EA0
:103EB0006520256420696E2025730A0070B50546CB
:103EC00008F0ECFF0646E8680468002C19D0216869
:103ED0000160A00706D00FA34FF48C7219A122A095
:103EE000FEF7BEFE28688188491C89B28180286857
:103EF000C288914200D9C180304608F0F7FF2046C1
:103F000070BD29680888401C0880304608F0EEFF24
:103F1000002070BD2E2E5C4D6964646C6577617203
:103F200065735C54686972645F50617274795C4C4B
:103F30007749505C7372635C636F72655C6D656D2D
:103F4000702E63006D656D705F6D616C6C6F633AB0
:103F5000206D656D702070726F7065726C79206174
:103F60006C69676E65640000417373657274696F94
:103F70006E2022257322206661696C65642061745D
:103F8000206C696E6520256420696E2025730A0007
:103F90002DE9F0411E4615460F46FCF703FA0400D2
:103FA00011D03846FCF71AFA20442946FCF7FAF9F2
:103FB000050001D0AC4208D909A000BFFEF750FEB1
:103FC0000020BDE8F0810EA0F8E73846FCF706FABD
:103FD00001196A1A3046FCF7B3F90120F1E7000035
:103FE000726967687420737472696E67206E616DA0
:103FF00065206E6F7420666F756E64210A00000084
:104000006C65667420737472696E67206E616D658D
:10401000206E6F7420666F756E64210A00000000C8
:104020002DE9F04116460D46074600240CE03819EC
:1040300000F00EF829192855020A4A70020C000EE9
:104040008A70241DC870A4B2B442F0D3BDE8F081D8
:10405000006870472DE9F0418046002017460E4663
:10406000054616E0705D60F307047019417861F34E
:104070000F248178C07861F3174460F31F642146F0
:1040800008EB050000F009F8002804D001202D1DE0
:10409000ADB2BD42E6D3BDE8F08170B50C46054631
:1040A000FCF7C2FF2246002329460220FCF77EFFD0
:1040B00018B1FCF771FF002070BDFCF76DFF012007
:1040C00070BD000004490A685206FCD5024AC1B21C
:1040D000121D116070470000004C004070B50D00CB
:1040E0000446856008D02846FCF778F9FF2805D2F9
:1040F0002846FCF773F902E0002001E0FF20C0B27F
:104100002076207C0A280CD2DFE800F00B050B0794
:104110000B090C0C0C0C002002E0022000E0042033
:10412000207470BD2046BDE8704004210FF0F8B93E
:1041300000210268017441748174D279C2750176DC
:1041400070470000F8B5134604460D46042A33DBD9
:104150000878691C11F801CB11F8012B11F8016BDB
:1041600046EA02260A46042E26DB9E4224DC217CF7
:10417000361F002920D001291ED008283AD2DFE8B6
:1041800000F039040C14141C242901B033462046D5
:10419000BDE8F040614600F0F3B901B03346204677
:1041A000BDE8F040614600F0EBB8134601466246B8
:1041B0002046009600F052F9F8BD01B03346204683
:1041C000BDE8F040614600F06DBA2046BDE8F84019
:1041D00000F03ABA1046042EEEDB027843786068AD
:1041E000816B10A007F032FE207C0728E4D1062066
:1041F0002074F8BD61684F6B3FB1134601466246BB
:1042000020460096B8470028F3D1361D0096A07CC2
:104210002B46401CC2B2A2740721204600F066FB68
:10422000F8BD000025733A205263766420436F6422
:10423000652D52656A65637420666F7220636F64D2
:10424000652025642C2069642025640070B5017CFC
:10425000044600200125891E082906D2DFE801F066
:1042600004060F1111111118207470BD25746068B7
:10427000416A0029F9D02046BDE870400847207403
:1042800000E025742146BDE87040054809F03CB8BF
:104290006068016A09B120468847257470BD000036
:1042A0007949000810B50446007C30B101280CD1D2
:1042B000607C400703D5032006E0022004E00021D3
:1042C000204600F049FA0620207410BD10B50446BF
:1042D000007C0A281BD2DFE800F0051A0F1D1B1A0C
:1042E0001A1A1A1D012020746068416A00290ED034
:1042F0002046BDE810400847607C400701D50320F8
:1043000004E00021204600F027FA0620207410BDAA
:1043100005202074607C8007F9D52046FFF796FFC2
:104320002046BDE81040FFF7BDBF000010B50446B1
:10433000007C801E08281FD2DFE800F0080E040A67
:104340000A0A0A1821460D4808F0DEFF022004E0A0
:1043500021460A4808F0D8FF032020746068816A6B
:10436000002909D02046BDE8104008472046BDE896
:10437000104005210FF0D4B810BD000079490008A5
:104380002DE9F84304460568C07C0E461F4690465A
:10439000B04229D1207B002826D16068C3682BB1A8
:1043A0003A4641462046984708B107E037B13A46B9
:1043B0004146BDE8F84320A007F080B901202073F2
:1043C0000020A075217C0627891E08290CD2DFE871
:1043D00001F004040B0B0D1217280090F2B2002319
:1043E0000621204600F082FABDE8F88307202074F9
:1043F00068792075F8E72146174808F085FF15E031
:104400002146154808F080FF09202074687920753E
:104410006068C1690029E7D001B02046BDE8F043DB
:1044200008476068016A09B1204688470021204694
:1044300000F092F92774D7E7526563656976656481
:104440002062616420636F6E6669677572652D61B5
:10445000636B3A2025500000794900082DE9F843A4
:104460000446C07C1646DDF820901F46B04244D179
:10447000207B002841D1804603290BD084F8168088
:104480006068436953B34A46394620469847050059
:1044900024D012E0A07D401CC0B2A075E17D88420E
:1044A00001D3012300E000236068056995B14A4605
:1044B00039462046A84705000CD001202073207CF7
:1044C0000627801E082818D2DFE800F00F0F171704
:1044D0001928192D4A46394618A002E04A4639469D
:1044E0001EA0BDE8F84307F0E9B8F2B200230621A8
:1044F0002046CDF8008000F0F9F9BDE8F8832146A8
:104500001E4808F001FF002D02DA03202074F4E7B2
:104510002046BDE8F843002100F01EB921461748A7
:1045200008F0F2FE04E06068016A09B1204688479D
:104530000021204600F010F92774DEE7526563651C
:10454000697665642062616420636F6E6669677571
:1045500072652D6E616B3A202550000052656365CF
:10456000697665642062616420636F6E6669677551
:1045700072652D72656A3A2025500000794900085D
:104580002DE9FF430446007C00270626801E81B0EB
:1045900091468846082819D2DFE800F004130B0B77
:1045A0001818180E0023424606212046009700F0F6
:1045B0009DF905B0BDE8F0836068016A09B1204645
:1045C00088470021204600F0C7F826746068856996
:1045D00065B1607DE17D884201D3012300E00023C5
:1045E00004AA49462046A847054604E0049808B1B5
:1045F000042500E0022504980090E9B24B464246AB
:10460000204600F073F9207C022D08D0072800D046
:104610002674032DCDD1607D401C6075C9E7072845
:1046200003D0082020746775C3E72146054808F0C9
:104630006BFE092020746068C1690029F3D0204610
:104640008847F0E77949000870B50446007C0428E3
:1046500011D0052815D0062507280AD0092809D128
:104660006068016A09B1204688470021204600F0B1
:1046700073F8257470BD2146094808F045FE0220F4
:1046800004E02146064808F03FFE032020746068DD
:10469000816A0029EED02046BDE87040084700003E
:1046A00079490008F8B504460568007C00269C4658
:1046B0000F46072804D0082802D0092826D102E096
:1046C0000620207422E06068BCF1000F816B05DDDC
:1046D0001346624611A006F0FBFF02E017A006F0A9
:1046E000F7FF2675052020746068016A09B120462D
:1046F00088472146174808F007FE28794FF47A7159
:1047000010FB01F02246134908F0F8FCFAB200232E
:1047100006212046009600F0E9F8F8BD25732074C4
:1047200065726D696E61746564206279207065657B
:1047300072202825302E2A76290000002573207447
:1047400065726D696E61746564206279207065655B
:104750007200000079490008F8B504460668007C3C
:1047600000250F4606280AD0072808D0082806D0BA
:104770006068016809B1204688476575A5752FB93D
:1047800070792075A07C401CA074E074257360686B
:10479000416859B1806848B1204688470090B6F812
:1047A000D010091F814202DA009100E000950098C4
:1047B0004FF4C172083081B2002005F0E5FD05001C
:1047C00006D028896989884203D0284606F088FAED
:1047D000F8BD6968FF2001F8010B032001F8010B07
:1047E000E089000A01F8020BA07B01F8010C01200E
:1047F00001F8040BE07C01F8030C0098001D000A8E
:1048000001F8020C0098001D01F8010C0098002826
:1048100010D060686A468368204698476889009986
:104820000838884206D00EA340F2F22219A124A033
:10483000FEF716FA2946304607F012FB207D214686
:10484000401E2075284808F05FFD30794FF47A71DA
:1048500010FB01F02246244908F050FCF8BD00008E
:104860002E2E5C4D6964646C6577617265735C546F
:10487000686972645F50617274795C4C7749505C0E
:104880007372635C6E657469665C7070705C66738D
:104890006D2E630063696C656E203D3D20702D3E7A
:1048A0006C656E202D204845414445524C454E20B4
:1048B0002D205050505F4844524C454E000000009F
:1048C000417373657274696F6E20222573222066AE
:1048D00061696C6564206174206C696E6520256473
:1048E00020696E2025730A00794900082DE9FF5FD1
:1048F000D0F8009080468A46B9F8D0000E9F011F7C
:104900009346B94200DA071F3D1D281D81B24FF4BE
:10491000C172002005F038FD06002AD03089718967
:10492000884205D004B03046BDE8F05F06F0D8B943
:1049300074682FB13A4604F108000399FBF700FDB3
:10494000FF20207003206070B8F80E003146000A86
:10495000A07098F80E00E07084F804A084F805B008
:10496000280AA071E57104B04846BDE8F05F07F081
:1049700077BABDE8FF9F000038B504460568007CA3
:10498000011F052922D2DFE801F0030329292900AC
:10499000217DE1B1207E0090A07CA368401CC2B2C2
:1049A000A274E27405212046FFF7A0FF21461D48AE
:1049B00008F0AAFC28794FF47A7110FB01F0224626
:1049C000184908F09BFB207D401E207538BD042847
:1049D00002D0032020741CE00220FBE7207D002889
:1049E00060680DD0016B09B120468847012120463F
:1049F000FFF7B2FE207C0728E8D10620207438BDDE
:104A0000816B09A007F022FA03202074607CC007A4
:104A1000F5D16068816A0029F1D001B02046BDE877
:104A2000304008477949000825733A2074696D655C
:104A30006F75742073656E64696E6720436F6E6670
:104A400069672D5265717565737473004FF0FF309F
:104A5000704700000021A0F100634FF480429342B0
:104A60003FD321490144914201D2012139E01F493C
:104A70000144914201D2022133E01D490144914297
:104A800001D203212DE01B490144B1F5803F01D241
:104A9000042126E0184942184FF400318A4201D21D
:104AA00005211EE0154A02448A4201D2062118E07F
:104AB000134A02448A4201D2072112E0114A0244F9
:104AC0008A4201D208210CE00F4A02448A4201D2F4
:104AD000092106E00D4A1044884201D20A2100E073
:104AE0000B2108467047000000C0FFF70080FFF769
:104AF0000040FFF70000FFF70000FEF70000FCF7A2
:104B00000000FAF70000F8F70000F6F70000F4F7ED
:104B100010B5ADF5207D0C46242210A196A8FBF718
:104B20000FFC174920460CF05FFB6846FBF756FC6C
:104B300001466846FBF72BFC1248FEF791F896A950
:104B400011A0FEF78DF80F48FEF78AF80FA0FEF7C8
:104B500087F80DF5207D002010BD000054686973B2
:104B60002069732061206E657720636C69656E74BF
:104B700020636F6E6E656374696F6E2E0D0A0000A0
:104B8000712600084062010825730000636F6E6E95
:104B9000656374207375636365737321210D0A0067
:104BA0002DE9F047ADF5CE6D82464FF400773946DA
:104BB0006846FBF7ECFB4FF416794C46494680A853
:104BC000FBF7E5FB39460DF58B60FBF7E0FB1421A5
:104BD0000DF5CB60FBF7DBFB002539460DF58B604F
:104BE000FBF7D5FB39466846FBF7D1FB214680A889
:104BF000FBF7CDFB14210DF5CB60FBF7C8FB85A1BE
:104C00005046FBF7CFFB00B10125854C01262078EB
:104C1000002824D1267083A15046FBF7C3FB0DF575
:104C2000CB6384A284A1FFF7B3F90DF5CB60FBF74A
:104C300000FC0146A06081A0FEF712F8A168C1F354
:104C40004F20E080C90501D0401CE0800DF5CB600D
:104C5000FBF7EFFB0146E28879A0FEF701F8002D93
:104C60007BD0B8463D4639466846FBF790FB49463F
:104C700080A8FBF78CFB29460DF58B60FBF787FBC3
:104C800080AB7EA27FA15046FFF782F980A8FBF798
:104C9000A5FB00F108017DA0FDF7E2FF80A8FBF76E
:104CA0009DFB6169081A0838E06174A15046FBF762
:104CB00079FB011D6846E269FBF742FB78A0FDF72E
:104CC000CFFF694683A0FDF7CBFF75A0FDF7C8FFB6
:104CD00086A0E169FDF7C4FF71A0FDF7C1FFA088C0
:104CE000401C81B2A18089A0FDF7BAFF87A0E168CE
:104CF000FDF7B6FF85A02169FDF7B2FFD4E90307F0
:104D0000381A8F4DB0F5FF7F31D88EA0FDF7A8FF80
:104D1000A0684FF05531401E20619048FFF7BDF963
:104D20008E48A168001DFFF7B8F9A08B694682B2D2
:104D3000A08805EB4020FFF78DF9A08B0DF58B6166
:104D400082B2A08805EB4020FFF76AF90DF58B6170
:104D50006846FBF74AFB014600E059E080A0FDF7FA
:104D60007FFFA67083A000BFFDF77AFF44E04246B4
:104D700069468548FBF7E4FA781C07F50077C4E933
:104D80000307A068874209D980A0FDF769FF206961
:104D9000A0F2FF10E060A068401E20616670A0884D
:104DA000464605EB402042467749FFF753F9A08875
:104DB000324605EB40200DF58B61FFF731F938A045
:104DC000FDF74EFF704943A0FDF74AFF34A0FDF701
:104DD00047FF0DF58B616C48FBF707FB014660A0B0
:104DE000FDF73EFF31466848FBF7D1FAA08805EB96
:104DF00040216CA0FDF734FF10F068FD20625046A2
:104E00006169FBF7C4FA0DF5CE6D5F48BDE8F08728
:104E10006BA0A9E7485454502F312E3100000000F8
:104E20001C140020436F6E74656E742D52616E67A2
:104E3000650000000D0A00002F000000256400003E
:104E40002121212121212121212121212121212152
:104E500021212121212121202025642020212121FF
:104E60002121212121212121212121212121212132
:104E700021212121202564200D0A00000D0A0D0AA0
:104E80000000000048545450000000006865617242
:104E900064206C656E73206973202564200D0A0000
:104EA00021212121212121212121212121212121F2
:104EB00021212121212121202121212121212121E3
:104EC00021212121212121212121212121212120D3
:104ED0000D0A000066696C655F62696E5F646174EB
:104EE00061200D0A202573200D0A00000D0A687448
:104EF00074705F66697273745F7061636B65745F11
:104F00006C656E2025640D0A00000000212121211E
:104F10002121212121212121212121212121212181
:104F2000212121256421212121212121212121212A
:104F3000212121212121212121212121200D0A00AE
:104F400000FE0308546865206C617374207061630F
:104F50006B657421212121210D0A00000040000809
:104F6000200D0A2020526573756C74203220256450
:104F7000200D0A004F5441204F7665722C52657304
:104F8000657421210D0A0000042800205468652062
:104F90006C617374207061636B6574202D20312007
:104FA0000D0A0000424C4F434B5F415050325F535B
:104FB0005441525420312069732025780D0A000095
:104FC0006572726F72206461746120EFBC81EFBC06
:104FD000810D0A0038B50DA0FDF742FE12A0FEF7C4
:104FE000D3FE164C0090002060700AF0BBF8282217
:104FF0001349A06208F02CFBA06A002804D0114BD2
:105000005022694608F06AFD38BD000053544152F1
:1050100054204745542052454449522055524C2073
:1050200021210D0A00000000696F742E6F70656EFB
:105030006C7561742E636F6D000000001C140020FD
:10504000285E0108C107000810B502210348FBF7DC
:105050006DFDBDE81040FFF7BDBF00000000040873
:1050600010B5ADF5487D6846FBF7B8F901466846CE
:10507000FBF78DF910F02AFC264C216A401A43F602
:10508000982188420FD9E07868B1A06A08B108F089
:1050900085FB606A08F082FBFDF724F80120607050
:1050A00010F014FC2062606A60B3007D042829D1EE
:1050B000607838B3002060701748FDF7D1FDD4E95F
:1050C00003126846FEF774F802E00A2004F032FF8B
:1050D0006846FBF783F982B201236946606A0DF0E6
:1050E000F9FA0028F1D1D4E903126846FEF760F816
:1050F00001460AA0FDF7B4FD0748FDF7B1FD6420A5
:1051000004F018FF4FF47A7004F014FF0DF5487D99
:1051100010BD00001C1400204062010825730D0A18
:10512000000000000A46032100F028B92DE9FE4FD7
:105130005D4C05468B46B4F84A005C49401CA4F817
:105140004A00D1F8088098F800000007860E142E57
:1051500074D368890428FBD36868007848B10828AC
:105160000CD034F8580F401C24F80A092088401C41
:1051700020802846BDE8FE4F05F0B2BD4869DFF843
:105180002CA1C0F303120AF1140A0E2A4DD089464D
:10519000096800F0DCF9002847D1288908287CD369
:1051A00006F10E010F46284605F08AF8002830D097
:1051B0002889811989B2884237D84FF420720E208D
:1051C00005F0E2F8070030D0798906F10800814245
:1051D00016D3324641467868FBF7B2F83146384676
:1051E00005F05AFF002806D031A3B6223EA14CA0FC
:1051F000FDF736FD04E02946384605F07BFB18B183
:10520000384605F06DFD10E0284605F069FD3D4685
:1052100015E03946284605F03FFF00280FD024A3AB
:10522000C72249A13EA0FDF71BFD284605F058FD09
:1052300034F85C0F401C2080BDE8FE8F2DE0314625
:105240002846D5F8048005F03BF8002891D16F6816
:10525000DAF800003146F860D9F8100038614FF0F4
:10526000000988F80090A8F80290FF203872A7F88B
:105270000A90384600F01AF9788134F8480F012274
:10528000401C2080CDE90092FF23CDF808B0002219
:105290005146284600F0C2FB6BE7284605F020FD8A
:1052A00034F8520FC6E7000000190120986B002067
:1052B0002E2E5C4D6964646C6577617265735C5415
:1052C000686972645F50617274795C4C7749505CB4
:1052D0007372635C636F72655C697076345C69637A
:1052E0006D702E630000000069636D705F696E7001
:1052F00075743A206D6F76696E6720722D3E70610D
:10530000796C6F616420746F2069636D70206865CB
:1053100061646572206661696C65640A0000000062
:10532000417373657274696F6E2022257322206643
:1053300061696C6564206174206C696E6520256408
:1053400020696E2025730A0069636D705F696E7055
:1053500075743A20726573746F72696E67206F722C
:105360006967696E616C20702D3E7061796C6F6148
:1053700064206661696C65640A0000002DE9FF47DE
:105380009146884606464FF420722421222004F0DC
:10539000FBFF050036D06889242806D21AA34FF4F3
:1053A000B47227A131A0FDF75BFC6C6877681C2202
:1053B00084F8008084F801904FF00008A4F804807D
:1053C000A4F80680686871680830FAF7B9FFF868D1
:1053D000039003A800F078FD88B12E4BA4F802805A
:1053E000002133F8482F521C1A800122CDF800808A
:1053F000CDE90120FF2303AA284600F00FFB284631
:1054000005F06EFCBDE8FF872E2E5C4D6964646C70
:105410006577617265735C54686972645F5061722C
:1054200074795C4C7749505C7372635C636F72652E
:105430005C697076345C69636D702E6300000000F7
:10544000636865636B207468617420666972737445
:1054500020706275662063616E20686F6C642069DD
:10546000636D70206D65737361676500417373656B
:105470007274696F6E2022257322206661696C65E3
:1054800064206174206C696E6520256420696E203B
:1054900025730A00001901200A460B21FFF76EBF91
:1054A000EFF30580002800D00120704700B503F01D
:1054B000CBFBC04380B200BD30B41B68029D9CB2E0
:1054C00004EB13442B6814FA83F404EB13431C0C11
:1054D00014FA83F31C0C14FA83F330BCAFF300808E
:1054E0002DE9F0411C4690460F460026054612E085
:1054F0006989686803F0A8FB2044010C11FA80F464
:10550000A87AC00706D006B30026E0B2C4F307218C
:1055100041EA00242D68002DEAD126B1E0B2C4F39F
:10552000072141EA0024384603F0F8FA04444046D3
:1055300003F0F4FA2044010C11FA80F0010C11FA86
:1055400080F0C04380B2BDE8F0810126DDE7421C57
:1055500012D088B191F8292092070BD54B6883426D
:1055600008D0896800EA01020B409A4202D1014347
:10557000491C01D000207047012070472DE9F74FEA
:1055800088B00446099800251426008CAF1F1438F3
:10559000C11700EB5170C0F3CF0003906068069014
:1055A000017801F00F01052903D038460BB0BDE8A2
:1055B000F08F6189142907D260A34FF43F726EA166
:1055C00074A0FDF74DFBF0E7C08803F0A7FAC0F325
:1055D0000C0100F4005002910790208914381FFA42
:1055E00080F89AE003994FF6FF7000EAC100414647
:1055F000404500D9084605904FF4207214210E2032
:1056000004F0C2FE5FEA000A7DD0BAF80A0014284E
:1056100006D24AA34FF4497268A15EA0FDF720FBB1
:105620001422DAF804000699FAF78AFEDAF8040080
:105630000490059F35E06089811B8DB2B04206D28F
:105640003EA340F22D3265A152A0FDF709FBAF4207
:1056500000D23D461DB3052004F05EF85FEA000964
:1056600061D060684B463044CDE9000541222946AF
:10567000002005F017F85FEA000B5AD0204605F02D
:10568000BDFC5A49C9E904145946504605F026F8AC
:10569000781B07043F0C06D000262468CBE724685B
:1056A0000026002FC7D1701986B20998008C1438D3
:1056B00040450298C0F30C0001DB079909B140F4A2
:1056C000005003F02BFA0499C8800598143080B27A
:1056D00003F024FA049948800498002141811421A0
:1056E0000498FFF7E3FE04994881099851460A9A05
:1056F000436998473E49088B401C0883504605F093
:10570000EFFA059900E011E0A8EB01001FFA80F81C
:10571000DDE90201084480B20290B8F1000F7FF485
:1057200061AF002042E7504605F0DAFA4FF0FF3053
:105730003CE7484600F00EFDF5E700002E2E5C4DDC
:105740006964646C6577617265735C5468697264DE
:105750005F50617274795C4C7749505C7372635C22
:10576000636F72655C697076345C6970345F667211
:1057700061672E63000000006970345F66726167C4
:1057800028293A207062756620746F6F2073686FE5
:1057900072740000417373657274696F6E20222504
:1057A0007322206661696C6564206174206C696E87
:1057B0006520256420696E2025730A00746869736A
:1057C000206E656564732061207062756620696E65
:1057D000206F6E652070696563652100702D3E6CD9
:1057E000656E203E3D20706F66660000617800089F
:1057F000001901202DE9F047DFF8E8810E46074641
:10580000B8F83210491CA8F83210456804212878ED
:10581000B1EB101F0AD0384605F062FA404630F866
:10582000441F491C20F80E19018821E000074FEAA7
:105830009069688803F072F904463889A04203D958
:105840002146384605F040FB7989494506D3388919
:10585000A04203D34846B9F1140F0DD2384605F0E3
:105860003FFAB8F83A104046491CA8F83A1075E0DB
:10587000491CA8F836107BE001462846FFF716FEC3
:1058800048B1384605F02CFAB8F838104046491CA3
:10589000A8F8381062E02969DFF84CA1C1F30310C1
:1058A0000E28CAF81410EA68CAF8102005D030464D
:1058B00000F09EF850B1344619E096F82900C00770
:1058C00002D070680028F6D1002410E09AF8140085
:1058D00000247F280BD04548046806E0B44203D07A
:1058E000204600F085F810B92468002CF6D1314626
:1058F000DAF81000FFF72BFE60BB9AF81000C0F337
:1059000003100E2826D05CB3E88830F0C00005D024
:10591000384600F073F907002AD07D68CAF80850AD
:10592000CAE90046297838460907890EAAF80C10FA
:10593000494605F0B1FB687A012826D006281FD019
:10594000112818D055462146DAF81400FFF7FFFD5C
:1059500000B32CE0384605F0C3F94046C18E87E716
:10596000B8F836103846491CA8F8361005F0B8F9D2
:105970000020BDE8F087314638460DF0BBFE23E03D
:105980003146384608F096FD1EE031463846FFF7AE
:10599000CDFB19E0287DC0F303100E2807D049463F
:1059A000384605F069FA02213846FFF7BBFB40464E
:1059B00030F8401F491C20F80A1901883846491C54
:1059C000A8F8361005F08CF90021CAF80010CAF8C2
:1059D0000410CAF80810AAF80C10CAF81010CAF877
:1059E0001410C5E700190120986B0020E81500206D
:1059F00010B590F82910C9070CD0416851B1064A7A
:105A000052698A4204D001461046FFF7A0FD08B152
:105A1000012010BD002010BD986B0020FEB5DDE90F
:105A20000954089E1AB109B10F6807B9211D0096E3
:105A3000CDE9015400F002F8FEBD00002DE9FF4F52
:105A400081B00546DDE90E87807BDDF840A09B46EE
:105A50001646012806D040A34FF455724BA14EA024
:105A6000FDF7FEF8DFF858916FF00104002E4BD0DF
:105A70001421284604F024FC002848D168896C6869
:105A8000142806D234A34FF462724EA142A0FDF74F
:105A9000E7F884F808B0390247EA0B20677241EA58
:105AA00010203168216110FA81F000EB114045218E
:105AB00021704FEA082248F48A4142EA112184F811
:105AC00001800F18288903F029F800EB070860808F
:105AD000484F0020E080388803F020F8A080398803
